:10000000082A0020D9520000D5520000D552000025
:1000100000000000000000000000000000000000E0
:10002000000000000000000000000000D5520000A9
:100030000000000000000000D5520000D552000072
:10004000D5520000D5520000D5520000D552000014
:100050000D370000D5520000D5520000352F0000AA
:10006000D5520000610A0000710A0000810A0000F8
:10007000910A0000A10A0000B10A0000D552000058
:10008000D5520000D5520000D5520000D5520000D4
:10009000D5520000D5520000D5520000D5520000C4
:1000A000D5520000D5520000D5520000D5520000B4
:1000B0000000000010B5064C2378002B07D1054B3B
:1000C000002B02D0044800E000BF0123237010BDC4
:1000D000D8000020000000009C5E0000084B10B516
:1000E000002B03D00749084800E000BF0748036819
:1000F000002B00D110BD064B002BFBD09847F9E731
:1001000000000000DC0000209C5E00009C5E0000FF
:100110000000000010B5074B19682223CB5C5A1E63
:100120009341DBB24A7C096803480078034CA0473E
:1001300010BDC046F400002021010020414600000F
:1001400010B50423002801D0180010BD404B197AC7
:10015000CA090023002A04D14B09DB013D4A944619
:100160006344186A1F220A4001239340184210D0AA
:10017000374B9B7B012B04D00422354B9A7302230F
:10018000E2E7354B1B78002BF6D00022334B1A6088
:10019000F2E72F4B9A7B042A05D0012A33D00323A0
:1001A000032AD1D045E0033A9A732C4B1B68002BED
:1001B00017D00022284B1A700020294B9847FA22AA
:1001C000920000230021274CA047274A00238018D3
:1001D0005941264A0023264CA047264B9847022324
:1001E000B2E701241C4B1C7000201D4B9847FA21DC
:1001F0004901214B9847FA239B005843174B5860FD
:100200001C600223A0E7144B1B78002B07D0134B74
:100210001A680223D20397D50022104B1A600C4BA8
:1002200002229A73154A1A6001225A74002121325F
:1002300099540022124B1A70054C124B1C60124B41
:100240009847A37B023B5A425341DBB27CE7C0464E
:10025000F8000020004400412001002010E000E0F0
:100260006550000065590000571B0000581B000036
:100270002559000001000020BD550000801A06002D
:1002800021010020F400002015010000F8B5094DFF
:10029000094F0A4E00210A48B847041E07D0B0474C
:1002A000FF23034203D0013D002DF3D100242000A1
:1002B000F8BDC046410D0300854800009D48000080
:1002C0000D1B000010B582B00C4B1B689989090406
:1002D0000123009310220A480A4CA047002801D1AC
:1002E00002B010BD054B186812300121064B98472B
:1002F0000028F5D0054B9847F2E7C046F4000020EF
:1003000009110800F546000021490000AD49000030
:1003100010B5044B1B78002B00D010BD0020024B01
:100320009847FAE7210100209546000010B5042205
:10033000034B9A73FB32034B1A70034B984710BD63
:10034000F8000020210100206D450000F0B5C646F0
:1003500000B588B0CB4B98470400012806D0CA4BA3
:100360009847200008B004BC9046F0BDC74B1B68FE
:100370000122DA7300221A749A81C54B9847002132
:1003800088204001C34B9847002807D1BF4B1B680A
:1003900003229A73BC4B98470324E2E7D521490016
:1003A000BD48BC4B98470026002825D1B74B1B6899
:1003B000DB7BDB0700D5EBE1B44B1B68DA7B092361
:1003C0001340012B0FD180218900B448B14B9847CD
:1003D0000028DBD0AD4B1B68DB7BDB0703D5B04BC4
:1003E00098470028D2D0AF4B9847A84B1B680022F3
:1003F0009A73A54B9847B4E7AB4B9847431C00D181
:10040000C4E10005000DD5235B0001369842BDD143
:10041000CCE70021A5489F4B9847002819D19B4B5A
:100420001B680222DA73002188204001994B98470B
:100430000028ABD09E4D974F9B4E00219D48B8475A
:100440000028A3D0B047C3077DD5013D002DF4D1CE
:100450009CE7954B9847430005D58C4B1A68D37B96
:1004600008210B43D373002193488A4B98470028F7
:100470008CD0864B1B68DB7BDA0700D4A4E18F4B62
:100480009847002882D0814B1A68537D0721194074
:1004900089008B480858FA21890041435B061B0FED
:1004A0009B0088481B584B431360937C9B0900D0EA
:1004B0003CE1917E8911537E9B00107E80020343B4
:1004C0000B43107FC011D17E490008431B051B0D53
:1004D00001330721014002318B40D07D0F210140C3
:1004E0008B409B0A5360918909047748694B984770
:1004F000002800D14AE70123009308220021734815
:10050000734DA847002800D140E7012106A8714B90
:100510009847002800D139E76F4B9847002800D151
:1005200034E706AB1B780F221340012B00D119E1F1
:10053000002B00D109E1022B00D118E1534B1B68BD
:1005400010221A7405E100215848524B98470028A0
:1005500000D11BE7544B9847C023DB05184080238C
:10056000DB05984205D1494B1A68D17B08230B4320
:10057000D37300215048474B9847002800D105E726
:100580004E4B9847002800D100E7404B1A68937CF7
:100590009B061B0F022B00D1A8E007D9032B00D12B
:1005A000A7E0042B04D14023137403E0012B66D091
:1005B00012231374537D5906090F89000720034045
:1005C0009B003F481858FA239B004343434809586F
:1005D0004B431360917E8911537E9B00107E8002F5
:1005E00003430B431B051B0D3D498B420FD0107F6E
:1005F000C011D17E4900014301330720014002317F
:100600008B40D17D083001408B409B0A5360137CA6
:100610003F2B7BD900210091012380229200314899
:100620002B4DA847002800D1B0E600252E4E05A886
:10063000B047002800D1A9E60135ADB2322DF6D180
:10064000124B19688A7E92114B7E9B00097E8902AB
:100650000B4313431B051B0D214A934254D1224ED9
:1006600006A8B047002800D190E60135ADB2352D7F
:10067000F6D9064B1A68069B5B08536044E01423C6
:10068000137497E74101000011030000F4000020FB
:10069000BD4600008548000008550000101100000C
:1006A0008D020000150100009D4800003A05000081
:1006B000EF1B0000011100003B110000C50200000B
:1006C000FC5B0000185C00003711000033110800CB
:1006D000F546000021490000AD490000BC5B000068
:1006E000FF0F000008110800A9480000222313741E
:1006F00060E7302313745DE706A8364B984700285F
:1007000000D143E60135ADB27F2DF5D980218900B6
:100710003148324B9847002800D137E6304B984794
:10072000002800D132E62F4B98475EE6D07E937EBC
:100730001B02517E09040B4303439B025B0880218B
:1007400089008C4663445360CDE6274B1B6810221A
:100750001A74254B1B68DB7B09221340012B00D048
:1007600038E630E6204B1B681A221A74F1E706AB14
:100770009B78DB09012B04D11B4B1B6830221A74B8
:10078000E7E7194B1B6820221A74E2E700260DE602
:10079000731E9E41B3070393144D104FB846144E79
:1007A00000211448B847002800D138E603991248C0
:1007B000C047002800D132E6B047C30700D428E67E
:1007C000013D002DECD12AE609221340012B00D077
:1007D00009E6F8E5A948000010110000854800006E
:1007E0008D02000015010000F4000020EF1B000046
:1007F0009D480000371100002911000010B5064B7C
:1008000098470023002801D0180010BD034B9847DB
:10081000034B1B68DB7BF7E741010000110300007D
:10082000F400002010B5064B98470023002801D0A3
:10083000180010BD034B9847034B1B685B68F7E734
:100840004101000011030000F40000200020704767
:1008500070B582B00E001500164B9847041E02D0EA
:10086000200002B070BD144B9847002817D0012D0E
:1008700019D91248124B1B68DB7B1B0700D4760288
:10088000012300932B008022920031000D4EB047CF
:1008900000280AD00C4B1D800C4B1D80E0E70C4B50
:1008A00098470534DCE70B48E4E7094B98470524F3
:1008B000D6E7C046410100008D0200001211100071
:1008C000F4000020F54600001C0100201E0100205D
:1008D000110300001111080010B50C00074B9847D8
:1008E000002804D10022064B1A80053010BD044AAE
:1008F00013881C1B14800020F8E7C0462149000023
:100900001C01002010B50400144B98470523002853
:1009100001D1180010BD002C10D00022104B1A80FD
:10092000104B1B88012B0FD000210F480F4B98470D
:1009300000280DD00E4B98470023EAE7084B1A8891
:100940000023002AECD0E4E7094B98470023E0E7B6
:1009500000210548054B9847ECE7C046AD4900002B
:100960001C0100201E0100200C3100008548000001
:100970001103000070B582B00E001500114B9847AE
:10098000041E16D1012D17D90F48104B1B68DB7BB5
:100990001B0700D47602012300932B0080229200D3
:1009A00031000B4EB047002808D00A4B1D800A4B7F
:1009B0001D80200002B070BD0848E6E7084B98474C
:1009C0000524F6E74101000019911000F400002011
:1009D000F54600001C0100201E01002018910800AF
:1009E0001103000010B50C00074B9847002804D1F4
:1009F0000022064B1A80053010BD044A13881C1BC8
:100A000014800020F8E7C046B14900001C01002016
:100A100010B504000E4B98470523002801D118009B
:100A200010BD002C0AD000220A4B1A800A4B1B88EA
:100A3000012B09D0094B98470023F0E7054B1A8892
:100A40000023002AF2D0EAE7044B98470023E6E7A8
:100A5000314A00001C0100201E010020110300008B
:100A600010B5024B1B680020984710BD24010020E0
:100A700010B5024B5B680120984710BD240100208F
:100A800010B5024B9B680220984710BD240100203E
:100A900010B5024BDB680320984710BD24010020ED
:100AA00010B5024B1B690420984710BD240100209B
:100AB00010B5024B5B690520984710BD240100204A
:100AC00070470000054B802252015A61802292013A
:100AD0005A61802212025A617047C04600440041A8
:100AE000054B802252019A61802292019A618022F4
:100AF00012029A617047C04600440041054B8022B3
:100B000052015A61802292015A61802212025A6176
:100B10007047C046004400417047704770477047B7
:100B200000280AD10C4B802252015A618022920186
:100B30005A61802212025A617047FA239B00984240
:100B4000FAD1054B802252019A61802292019A616A
:100B5000802212029A61EFE70044004100207047B2
:100B6000431E9841C0B2034B18700122024B1A7009
:100B70007047C046810200202000002010B582B0DE
:100B8000084B00931F23084A01210220074CA0476D
:100B9000002801D002B010BD05490230054B98472E
:100BA000F8E7C046A10F0000600100204D250000BD
:100BB0007D0B0000F5240000F8B50023134A1370E4
:100BC000134A13700133134A1370134A1370134BF3
:100BD0009847002805D10022114B1A7000252800E3
:100BE000F8BD01380E4B18700E4B9847051EF6D015
:100BF00000240D4F0A4E00212000B8470134E4B212
:100C00003378A342F7D2094B9847E8E75601002012
:100C1000540100202000002021000020554A00003F
:100C200084010020A15500008D4A00007D0B0000CA
:100C300010B5014B984710BD7D0B000010B582B078
:100C4000084B00930D23084A00218120074CA04740
:100C5000002801D002B010BD05498130054B9847EE
:100C6000F8E7C046310C0000240000204D250000AC
:100C70003D0C0000F524000010B5064B1B78002B3E
:100C800000D110BD0220044B984704490220044BB8
:100C90009847F6E75401002081230000790C0000FA
:100CA000F524000010B5064B1B78002B00D110BDB9
:100CB0008120044B984704498120044B9847F6E76C
:100CC0005401002081230000A50C0000F524000041
:100CD00010B50B4B9B68002B06D00A4B1B7B7F2B60
:100CE00009D80220084B9847064B5A68044B5A60B3
:100CF000064B984710BD8120034B9847F4E7C04648
:100D00002400002060010020812300003D0C000031
:100D100010B5054C122200212000044B9847F02307
:100D20002370E63BE37110BD88010020AB5B00003F
:100D300070B506000D001400084B98470122084BBF
:100D40001A73084B9E70220EDA70220C1A71220A56
:100D50005A719C712A0A1A735D7370BD110D0000DF
:100D6000240000208801002010B500229021890174
:100D70000520014B984710BD310D000010B5094BFF
:100D80001B7B594049B2002904DB074B9A680123B9
:100D9000824204D2054B9847054B98470023180020
:100DA00010BDC0466001002024000020690D000035
:100DB000D10C000010B5002200210420014B9847FF
:100DC00010BDC046310D000010B582B002000B000E
:100DD0000749009101218120064CA047002801D03D
:100DE00002B010BD044B9847044B9847F8E7C04643
:100DF000410E00004D250000B50D0000D10C000093
:100E000010B50022A02189010620014B984710BD92
:100E1000310D000010B50022E82189010220014BAC
:100E2000984710BD310D000010B5034B98470022C4
:100E3000024B1A7310BDC046110D000024000020A3
:100E400010B50C00002800D010BD044B9847044B8F
:100E50009A68141B9C60034B9847F5E7290E000025
:100E600024000020D10C000070B5050014220021E0
:100E70002348244B9847002D18D0234BD97D204A76
:100E800008320824204B587C3F2303401C2B13D0EE
:100E90003F2B11D0201C8C4200D9081CC6B28021E7
:100EA00030001A4B984700280FD170BD164BD97CE3
:100EB000134A04320424E5E71C231370123B5370D9
:100EC000053BD3700C34E4B2E4E70F4B587B104B76
:100ED0009847431E9841C001002D0CD0023CA4B29B
:100EE000074A230A24021C431480D07031000448AE
:100EF000084B9847D9E7024B013C1C709870F5E706
:100F00003C010020AB5B0000600100207D0D000073
:100F10009D4A0000C90D000010B5041E1ED0174ADE
:100F2000174B597CD170997C9170D97C5170197D87
:100F30001170144A997D5170DB7D13701088400246
:100F400021004B1E9941C9010F4B9847002804D03E
:100F50000E4B1C7001220E4B1A7010BD084B587BB3
:100F60000C4B98470028DAD000229C2189010720E9
:100F7000094B9847094B9847EFE7C04650010020BE
:100F800060010020800100207D0D0000550100203F
:100F9000560100209D4A0000310D0000D10C0000D8
:100FA00070B500280DD11F2904D1844B844A1268E2
:100FB0009A4207D00122834B1A70834B9847834B88
:100FC000984770BD7E4B587B0F2210405873804B62
:100FD0001B7883420BD37A4B7E4A99689160DA7B07
:100FE0005A2A00D9D2E093007B4AD3589F467B4BC4
:100FF00098477B4B9847E4E7714BDA7C131C122A25
:1010000000D91223DCB280212000764B98470028BB
:10101000D7D021007448754B9847D2E7684BDB7CEA
:101020001A1C242B00D92422D4B2802120006D4B1D
:1010300098470028C5D0624B1B7C9B0703D1604BAF
:101040005D7C002D04D0654B9847654B9847B8E709
:101050005B4B587B664B98478023002800D12B00C0
:10106000644E7370564B587B634B984701003000B9
:10107000103001311022614B9847337C002B00D196
:101080008EE0222B00D18AE05A4901234A7C002AB3
:1010900000D185E0222A00D182E00133DBB20131A8
:1010A000102BF3D184E00020554B984789E70120AD
:1010B000534B984785E7534B9847022809D003289C
:1010C00004D0002808D0504B984707E04F4B984772
:1010D00004E04F4B984701E04E4B9847404B9847F0
:1010E0006FE7802108203F4B9847002800D168E730
:1010F000334B587B4849494B984702280DD0032869
:1011000006D000280ED0404B9847354B984758E7FB
:101110003E4B9847324B984753E73D4B9847304BEF
:1011200098474EE73C4880239B02436003681BBA04
:10113000036008212D4B984743E7214BDB7C9A073E
:1011400004D4344B9847264B98473AE701214B404B
:1011500001211940324B9847F3E7194BDB7C002BF8
:1011600004D01E4B98471E4B98472AE7294B9847B7
:10117000F9E7284B98471A4B984722E70120294B5B
:1011800098471EE70020274B98471AE70022802146
:1011900089010520244B9847114B984711E72B00F4
:1011A00014482021C21811740133DBB2102BF9D17D
:1011B000210010480D4B984703E7C0465553424362
:1011C0006001002054010020790C0000A50C0000F3
:1011D0008401002024000020585C0000690D0000FC
:1011E000D10C00007D0D000088010020C90D000019
:1011F000B54A000034000020CD4A0000995B000091
:10120000690E0000594A0000B50D0000010E0000F3
:10121000150E0000290E000058010020714A000040
:101220008D4A0000190F0000310D000010B500229A
:10123000044B1A700123044A1370044A1370044BC0
:10124000984710BD560100202000002021000020FA
:10125000B155000010B5204B1A7853B2002B05DBB6
:10126000602313400020202B18D010BD60231340B2
:101270000020202BF9D1184B5B78FE2B27D1164B81
:10128000DB88012BF1D1144B5B88002BEDD1124B85
:10129000124A9A6001229A810130E6E70E4B5B7890
:1012A000FF2B16D10C4BDB88002BDED10A4B5B8861
:1012B000002BDAD10A4A13700A4A137002300A4C22
:1012C000A0478120A047094B98470120CDE7002087
:1012D000CBE70020C9E7C046AC0400208401002011
:1012E0005401002056010020C12100007D0B0000A8
:1012F00010B51E4B1C78002C30D000231B4A1370F5
:101300001B4A13701B4B1B78002B15D01A4B1A88E5
:101310001A4B19681A4B587B1A4B9847144B1B7879
:10132000DBB2002B11D102281DD0032818D00028D1
:1013300010D0154B98470FE00F4B1A880F4B1968C8
:101340000F4B587B114B9847E8E70021084A117072
:101350001C0003E00E4B98470E4B9847200010BD31
:101360000D4B9847F8E70D4B9847F5E756010020DD
:1013700021000020550100208001002050010020A4
:1013800060010020DD4A0000B50D0000114B000097
:10139000290E0000D10C0000010E0000150E000007
:1013A00030B583B0050014001D4A1078C0B2002883
:1013B00013D0002010708130002D00D17F38002B19
:1013C0000DD0009323000A000021164DA8470028E5
:1013D00020D0154B9A68141B9C6003B030BD134B92
:1013E000009323000A0000210E4DA847002811D0C9
:1013F0000B4A1378002BFCD00D4B1B780020002BE0
:10140000EBD1094B9A68141B9C60094B1878012397
:101410005840E2E70122024B1A700020DDE7C04687
:10142000200000204D25000024000020610B00005A
:101430008102002010B5114B1B681A689478D3788C
:101440001B022343D2180378C018904210D243786D
:10145000042B0FD08B420AD00378C018904205D2DB
:101460004378042B08D08B42F6D100E0002010BD59
:101470000020FCE70020FAE70020F8E7A8010020A0
:1014800010B5034B5B887F201840024B984710BD76
:10149000AC0400202527000070B5194B1B780022F2
:1014A000002B29D0174B1B681B681C79844223D959
:1014B000154A13609A78DC78240214431C19A3425D
:1014C0001CD20025012607E00F4A13600FE01A78AE
:1014D0009B183500A3420CD25A78042AF7D19A7887
:1014E0008242F4D1DA788A42F1D1002DECD1012286
:1014F00002E0054A13600022100070BD0022FBE7E5
:10150000A4010020A8010020AC010020F0B5C646CF
:1015100000B504000021134B9847051E03D1280095
:1015200004BC9046F0BD104B1B685B68A200D3580A
:101530009846DB689847010020000A4B9847051E33
:10154000EDD00A4B1C680A4E0A4F05212000B04717
:10155000041E02D08078B847F7E743465B68984797
:10156000DDE7C04699140000A8010020AC0100206E
:10157000351400000D220000F8B505000F4B984708
:10158000002819D00E4B1C680E4E0F4F052120006D
:10159000B047041E09D00379427912021A43C17878
:1015A0008078B8470028F1D106E0084B1B685B68DB
:1015B000AD00EB581B689847F8BDC0469914000071
:1015C000AC0100203514000065220000A8010020B5
:1015D00010B5014B984710BDD527000070B50E4BD4
:1015E0001B78002B11D00D4B1B681B681B79002B3F
:1015F0000BD000240A4E094D2000B0470134E4B25C
:101600002B681B681B79A342F6D80022024B1A7084
:101610000132044B1A8070BDA4010020A8010020F3
:101620000D1500009A01002070B50E4B1B78002BA1
:1016300017D00D4B1B681A681279002A11D00024AC
:10164000094D06E00134E4B22B681A681279A2420F
:1016500007D95B68A200D3581B69002BF2D09847CA
:10166000F0E770BDA4010020A8010020F8B5AC4B44
:1016700000229A811A615A611B785AB2002A13DB40
:1016800060221A4200D1DAE0A54B1A781F231340DA
:10169000012B00D176E1A24B1A781F2313400020C2
:1016A000022B00D1CCE1F8BD9D4AD2880020002A4F
:1016B000F9D060211942E7D11F210B4008D1984988
:1016C0004978062923D0082900D187E0002917D0BE
:1016D000012B00D18AE0022BD6D1914B5B78002000
:1016E000002B00D0A8E1022AD5D18D4B18798D4B63
:1016F00098478D4B1880022118008C4B9847FFE0CB
:10170000022AC8D102318A48884B9847F8E0844BB6
:101710005A88130A022B23D0D9B202290FD9032BDE
:1017200034D00F2B00D084E1824B98680028B2D0CF
:101730008378C178090219437C4B984707E0012B55
:1017400000D076E17B4B18680178784B9847744B52
:10175000DA889B89934200D8D2E0714B9A81CFE01E
:10176000D2B2744B1B685B7C934200D893E7714BF9
:101770005B68D200D0588378C178090219436B4B5B
:101780009847674B9B6802225A70E0E7FF231A4094
:10179000012A20D0002A19D0022A00D178E1032A98
:1017A00000D071E70C21644C644A02320023E05CF3
:1017B000108001330232D8B28142F8D84900023198
:1017C0005E48017089B2594B9847C0E704215C48D4
:1017D000564B9847BBE75B4C0921E5E7012A00D04F
:1017E00059E701215848514B984789E04C494978BD
:1017F0000A2900D06FE7012A00D0C3E0524B1B78C2
:10180000002B00D1BEE0464B1C79504B1D682B6865
:101810001B79A34200D8B5E0002120004C4B98472B
:10182000002800D130E76B68A400E358DB689847D4
:10183000484B1870012118003C4B984760E01F226C
:1018400013405FD1364A5278032A00D1F3E0D1B277
:1018500003293BD9052A4BD0092A53D1304BDB88C9
:10186000002B00D017E73C4B9847002800D10BE72E
:101870002B4B9A782F4B1B685B7C9A4200DD03E769
:10188000364B9847264B9B782F4A1370002B37D046
:10189000334A94466344DB00264A5268D3182B4AE5
:1018A00013601B681B79002B2AD000242D4D1600D5
:1018B00000212000A847002800D1E5E60134E4B269
:1018C00033681B681B79A342F2D819E0012A19D1A9
:1018D000134BDB88002B00D0DDE6114B5B88012B1E
:1018E00000D0D8E6124A138802218B43138007E008
:1018F0000B4BDB88002B00D0CDE61B4A084B1A614E
:101900000120D0E6012B31D0022B00D0BCE6044BE5
:101910005B78012B6CD0032B00D178E000208BE0AA
:10192000AC0400206D2300009C010020452700002E
:101930009A01002088000020C45D000058000020AB
:101940007400002078000020A4010020A8010020DD
:1019500099140000A001002035270000DD150000CB
:10196000FFFFFF1F79150000811400004A4A5278DA
:101970000B2AC9D1484BDB88002B03D1474B1B787E
:10198000002B27D1454B1B780020002B00D18AE685
:10199000414B1C79424B1D682B681B79A34200D830
:1019A00081E6002120003F4B9847002800D172E6D5
:1019B0006B68A200D558EB68984701002000394BAE
:1019C0009847002800D166E6AB689847002800D009
:1019D00069E660E6304B1D795C882800324B9847F9
:1019E000002800D150E6E1B22800304B984723E0B0
:1019F000294BDB88002B00D04DE6274B5B88002B62
:101A000000D048E6244B1879294B984714E0224B24
:101A1000DB88002B00D03EE61F4B5B88002B00D0FC
:101A200039E61D4C2079234B98472079224B984763
:101A300002E0002000E00020002800D033E623E68A
:101A4000164B1B78002B00D12DE6154B1B681A682E
:101A50001279002A1AD00025124E114F5B68AA0095
:101A6000D458E368984701002800B047002800D107
:101A700019E6A3689847002800D014E60135EDB2B6
:101A80003B681A681279AA42E8D80CE600200AE6F8
:101A900003210A4C88E6C046AC040020A4010020C3
:101AA000A8010020991400000D1500007915000010
:101AB000B1240000C1210000812300008400002027
:101AC000044A137802210B43137053785BB2002B46
:101AD000FBDB70470018004000B583B0124A9369E1
:101AE00040210B43936101A900230B7005200F4B8C
:101AF000984705200E4B98470E4A137801210B4357
:101B0000137053785BB2002BFBDB0B4B1900403199
:101B1000002204C39942FCD11022084B1A60084BE2
:101B2000984703B000BDC046000400407D5100004E
:101B3000F1500000001800408402002000E100E0A5
:101B4000C11A000010B584B003AB00221A70033232
:101B50005A70013A9A70013ADA70274B1B78834227
:101B600007D0002807D1244B1B78002B23D1224B10
:101B7000187004B010BD03AB1B5C204AD25CFF2A76
:101B800000D1FEE7EFF3108251424A41019272B652
:101B9000BFF35F8F00211A4A1170019C1749CA5C7C
:101BA0000132CA54002CDED00122154B1A70BFF34B
:101BB0005F8F62B6D7E703AAD35C104AD25C002AD3
:101BC00000D1FEE7EFF3108251424A41029272B611
:101BD000BFF35F8F00210A4A1170029C0749CA5C5B
:101BE000013ACA54002CC2D00122054B1A70BFF32F
:101BF0005F8F62B6BBE7C046080200207C0200206F
:101C0000D400002043060BD00F2303405B00C00923
:101C100018180238830018188000024B18187047F3
:101C20000020FCE7B8010020F0B5D6464F464646F6
:101C3000C0B589468D796BB2002B26DB28005E4B40
:101C4000984704000F272F40038A98464B461B886D
:101C50009A46837C5B076AD4E36853441E00E360C2
:101C6000A3689E4200D874E0E360A37C0122934302
:101C7000A3742368002B03D0E1682A000020984752
:101C80001CBC90469946A246F0BD28004A4B984796
:101C900004000F272F40038A98464B465E88C3688E
:101CA0009C466644C66081688E4225D08D1BADB2CD
:101CB000424B9D4206D91D0041461800404B9847B3
:101CC0006D1AADB2A27C0023920707D541462800C9
:101CD0003C4B984789B24B424B41DBB25B00A27C44
:101CE00002218A431343A374626892192B003900BE
:101CF0003548364CA047C3E7837C9B070BD4837CD5
:101D00000122934383740368002BB9D02A00310069
:101D100000209847B4E7837C02229343837442688F
:101D20009219002339002848284CA047A8E74368A7
:101D3000C268944663441E0041468068214B984720
:101D40000A007B1E9B01224959183000214B9847FD
:101D500082E74A469288524500D086E79E4200D1EB
:101D600083E79B1B9DB2154B9D4216D91D00414632
:101D70001800134B98476B1A9BB2984514D9A37C53
:101D800004221343A3747A1E9201114BD2184346C6
:101D900039000D48104CA04772E741462800094B16
:101DA00098476B1A9BB2E8E76268921939000648B7
:101DB000094CA04764E7C046051C0000FF1F000057
:101DC0009D580000C9560000440300204D2E00001D
:101DD000C4020020995B0000A12E000010B505226E
:101DE000054B1A70054C80212000054B98470021B7
:101DF0002000044B984710BDB6010020440300208A
:101E0000A12D0000C72D000070B5084C0621200050
:101E1000074DA84704212000A84702212000054BB8
:101E200098470220044B984770BDC04644030020E9
:101E3000B528000095280000451B000070B5134B25
:101E40009B8C9B061CD41149D022CB681340D02B0D
:101E5000FBD10F4C022120000E4B9847042120009B
:101E60000D4DA8470D4A062120000D4B984706212D
:101E70002000A84703200B4B98470B4B984770BD99
:101E800002491022CB681A42FCD0E2E70008004069
:101E900044030020B528000095280000091E00001A
:101EA00071280000451B00007155000030B583B05B
:101EB00004001E4B984780232268937201AD2800CE
:101EC0001B4B984703236B7029002000194B984740
:101ED00019492000194B9847194B02220021200074
:101EE000184DA847184B002200212000A847174B87
:101EF000012200212000A847022200212000144DC9
:101F0000A847002200212000A8470122002120002C
:101F1000A84721680B890F4A1A408023DB0013432E
:101F20000B8100220C4B1A7003B030BDDD15000090
:101F3000C12A0000D12A0000C4040020F12E0000B4
:101F400095200000D1280000B1230000991F000057
:101F500021290000FFF3FFFFB601002010B5032286
:101F6000074B1A70074C08492000084B9847084B4C
:101F70009A68002300212000064CA04710BDC046EF
:101F8000B601002044030020C4040020F12E00000C
:101F9000AC0400204D2E000010B589794BB2002B07
:101FA00006DB0E4B1B78022B0FD0032B11D010BD7C
:101FB0000A4B1B78012B05D0042BF8D10848094B9C
:101FC0009847F4E7084B9847F1E70422034B1A704F
:101FD000EDE70348034B9847E9E7C046B601002008
:101FE00044030020A12D00005D1F000070B5204BB0
:101FF0001B88204A9489E41AA4B2002C18D11E4AE6
:1020000011885B189BB213801A4AD2889A4223D057
:102010001A4B1B78002B1FD1164B5B69002B23D06A
:102020009847002820D00022114B1A80114B9C8920
:102030003F2C19D90022114B1A7040240C4D2B88CB
:102040000C4A9268D218230000210D480D4EB0476B
:102050002B88E4182C8070BD04220B4B1A700B499E
:1020600007480B4B9847F6E70122044B1A70E5E747
:10207000B2010020AC040020B4010020B001002017
:10208000440300204D2E0000B6010020C4040020AF
:10209000F12E000010B50C002C4B1B78002B07D044
:1020A0002B4B1B69002B00D098470022274B1A703E
:1020B0002388082B02D0274B984710BD244A264B73
:1020C0001978117059785170D878000299780918E8
:1020D000518058790002197909189180D97909023B
:1020E0009B795B18D3801D4B9847002816D0184B5E
:1020F0001B787F2B15D8164BDB88002B22D00023B2
:10210000174A1380174A13800122104B1A7040237C
:10211000114A00211448154CA047CEE70D4B9847B3
:10212000CBE700230E4A13800E4A13800222074B8E
:102130001A704023084A00210B480C4CA0470C4B56
:102140009847BAE70B4B9847B7E7C046B60100205F
:10215000AC040020DD1D0000C40400206D1600004A
:10216000B4010020B201002044030020A12E000091
:10217000ED1F00005D1F000010B5024B9847024B99
:10218000984710BD291600007D55000010B5074C7A
:1021900004212000064B984702212000054B984758
:1021A0000120054B9847054B984710BD440300207C
:1021B000B528000095280000451B0000655500006B
:1021C00010B5040001000A480A4B984720000A4B4A
:1021D0009847837CDB070AD5837C01229343837471
:1021E0000368002B03D0C16822000120984710BD6E
:1021F00044030020412D0000051C0000024B1B6819
:10220000188A8004400D70474403002070B582B0E6
:10221000040001AD28000D4B984720000C4B984757
:102220002C700023EB700B4E290030000A4B9847AE
:102230000F21214000223000084B98470022210046
:102240003000074B984702B070BDC046C12A00005D
:10225000C121000044030020D12A0000F928000019
:10226000F1290000F0B583B005000F00140001AEA5
:102270003000364B98473570082C13D8002201AB3C
:102280005A702800324B98470482032139400129B3
:1022900038D0022943D0002303293DD1042201ABC9
:1022A000DA7032E0102C03D8012201AB5A70E8E753
:1022B000202C03D8022201AB5A70E2E7402C03D84D
:1022C000032201AB5A70DCE7802C03D8042201AB57
:1022D0005A70D6E780235B009C4203D8052201ABED
:1022E0005A70CEE780239B009C4203D8062201ABA4
:1022F0005A70C6E7174A002394420DD8072201AB53
:102300005A70BEE7022201ABDA7001A91248134BE2
:1023100098470023002806D0180003B0F0BD032220
:1023200001ABDA70F1E70F2129400B4C0C4B002276
:1023300020000C4EB0470022290020000A4EB04772
:10234000012229002000B0470123E5E7C12A00004F
:10235000051C0000FF03000044030020D12A0000F8
:10236000291C0000D12800002129000010B501001F
:102370000148024B984710BD44030020772D000010
:1023800010B504000F2303400020022B00D910BD1C
:1023900021000448044B98472000044B9847012033
:1023A000F5E7C04644030020A12D0000C121000034
:1023B00070B5344B1B78012B0AD0022B5FD0324B07
:1023C0001B69002B00D0984700222E4B1A7070BD5D
:1023D0000D882D4B9B892D4A14886219934201DA8E
:1023E0001D1BADB2284B986800192A002849294BBB
:1023F00098476419A4B2254B1C80402D0AD0224B6B
:102400009C815B69002B02D09847002814D0224B96
:102410009847DCE71C4BDA88204B1B881B199A4233
:10242000EDDD194B9B89A3420CD04023184A0021B3
:102430001B481C4CA047CAE70522124B1A701A4BC6
:102440009847C4E7104B5B69002B0BD098470028D6
:102450000FD012490D4A0B8810881B180B800023DF
:102460001380E2E70522074B1A7000200E4B9847B5
:10247000ADE70522034B1A700B4B9847A7E70B4BB0
:102480009847A4E7B6010020AC040020B201002068
:10249000C4040020995B00005D1F0000B40100200F
:1024A00044030020A12E000081230000ED1F000046
:1024B00070B504000F2303400020022B00D970BD2B
:1024C0002000094B9847050021000848084B984711
:1024D000AB7C0120DB07F2D5AB7C01229343AB74CC
:1024E0002B6898470120EAE7051C00004403002000
:1024F000C72D0000F8B504000D000F23034000268F
:10250000022B05D80D4B98470700837CDB0701D5CC
:102510003000F8BD21000A480A4B9847061E05D036
:10252000BB7C01221343BB743D60F1E721000448EA
:10253000054B9847061EEBD0A847E9E7051C0000AD
:1025400044030020772D0000152D0000F0B587B062
:1025500005000391029201930F2606400024022EEB
:1025600002D9200007B0F0BD644B9847041E00D08C
:10257000BDE02800624B98470700EFF310835A42F2
:102580005341059372B6BFF35F8F00225D4B1A7003
:10259000059A837CDB0708D5002AE2D00122594B3B
:1025A0001A70BFF35F8F62B6DBE7837C01210B43B8
:1025B0008374002A05D00122524B1A70BFF35F8F3B
:1025C00062B6029B7B60019BBB600023FB600C9B9F
:1025D0003B600123039A13405A00BB7C02218B43CA
:1025E000134304229343BB746BB2002B20DB019B8B
:1025F000002B6FD09CB2444B9C425AD9398A1C00A4
:102600001800424B9847631A9AB23B8A9A4257D2B3
:10261000BA7C04210A43BA74721E92013C495218D2
:1026200031003C483C4CA04744424441E4B298E766
:10263000019B002B27D09DB2334B9D4206D9398A8E
:102640001D001800314B98476B1A9DB2BB7C9B074D
:1026500007D5398A2800314B984789B24C424C4102
:10266000E4B2012020404000BC7C02239C43044390
:10267000BC742B00029A31002648294CA0474442E2
:102680004441E4B26DE7BB7C9B0705D5BB7C0222CD
:102690009343BB740025ECE7BB7C01229343BB74DE
:1026A0000C9B002B25D02A000021002098470124F4
:1026B00057E7398A2000194B9847631A9AB2A4E762
:1026C0001300029A31001348134CA047444244417E
:1026D000E4B246E7BB7C01229343BB740C9B002B06
:1026E00009D02A00002100209847012439E700245E
:1026F00037E7012435E7012433E7C0466D230000A6
:10270000051C0000D4000020FF1F00009D580000A1
:10271000C402002044030020A12E0000C95600007E
:102720004D2E0000024B1B688022104398727047A8
:1027300044030020024B1B68987A4006400E704705
:1027400044030020014B986099817047AC0400203D
:1027500070B50320164B9847164C22681389012147
:102760008B431381144A03312000144EB047144A9E
:1027700000212000B047134A01212000B047124A2F
:1027800002212000B04704212000104DA84700215D
:102790002000A84701212000A84702212000A847C7
:1027A0000B4A06212000B04706212000A84770BD33
:1027B000451B0000440300208D210000712800000B
:1027C00079210000AD1E00003D1E0000952800008C
:1027D000091E000070B582B0EFF310835A425341D6
:1027E000009372B6BFF35F8F0026184B1E70009CDB
:1027F00001AD2800164B9847AE70164E2A001649B8
:102800003000164B98473000154B9847154B9B8C62
:102810009B0614D41349D022CB681340D02BFBD194
:102820000120114B9847114B9847002C05D00122ED
:10283000064B1A70BFF35F8F62B602B070BD0949D4
:102840001022CB681A42FCD0EAE7C046D400002030
:10285000FD34000044030020005000410D3500000D
:10286000212F000000080040451B000051270000F8
:1028700010B50B002E339B001A50AA2252004900BB
:10288000835A034C095B0B438352002010BDC046A2
:10289000E85D00004900064BCB5A02689383AB21E8
:1028A0004900425A1A43425202681383002070477B
:1028B000E85D00004900054BCA5AAB214900435A64
:1028C0009343435203689A8200207047E85D0000FA
:1028D00010B58C00A4183434A400041963604018A7
:1028E0005930FF30037803498A5C1343037000209A
:1028F00010BDC046F85D000010B58B009B18343346
:102900009B00C31800245C6040185930FF30034B13
:102910009A5C037893430370002010BDF85D0000BB
:1029200070B50F230B40C4186134FF3425782F4E47
:10293000B65C35432570002A29D1002B12D103251E
:102940000A24FF3406683555032A09D149B2002903
:1029500044DB02685B01D3180A33FF3320221A706C
:10296000002070BD4CB2002C08DB5C010568AC4651
:1029700064440A34FF3401252570E5E75C010568ED
:10298000AC4664440A34FF3402252570DCE7012A92
:102990001AD1002B05D102680C210A23FF33D15430
:1029A000DEE749B2002907DB02685B01D3180A336E
:1029B000FF3304221A70D3E702685B01D3180A338D
:1029C000FF3308221A70CBE7022ABDD102685B01EF
:1029D000D3180A33FF3310221A70C1E702685B0173
:1029E000D3180A33FF3340221A70B9E7F85D0000AC
:1029F00070B50F230B40C4186134FF342F4DAE5C0B
:102A00002578B5432570002A29D1002B12D1032542
:102A10008424640006683555032A09D149B2002987
:102A200044DB02685B01D3180933FF3320221A709C
:102A3000002070BD4CB2002C08DB5C010568AC4680
:102A400064440934FF3401252570E5E75C0105681D
:102A5000AC4664440934FF3402252570DCE7012AC2
:102A60001AD1002B05D102680C210933FF33D15450
:102A7000DEE749B2002907DB02685B01D31809339E
:102A8000FF3304221A70D3E702685B01D3180933BD
:102A9000FF3308221A70CBE7022ABDD102685B011E
:102AA000D3180933FF3310221A70C1E702685B01A3
:102AB000D3180933FF3340221A70B9E7F85D0000DC
:102AC00000230370437083700133C37070470000AC
:102AD000F0B50C780F23234064B2CA78042A70D86A
:102AE0009200894DAA589746026808335B0100217D
:102AF0009954002282E05C0102689446644480227A
:102B00005200A55CE43A6D0778D1E432A65C7025EA
:102B1000E43A2E4272D15F3DE432A5541A000832E5
:102B200052010468A4182F3565710068821880204E
:102B300010718A78002A1FD05801744A12185468FC
:102B400080200006044354605469204350610725E7
:102B50004C785A016D4B9B1858682C4024076C4EDA
:102B600030402043586049785A692940090732406B
:102B70000A435A61002241E05801644A1218506821
:102B80004000400850605069400040085061DEE756
:102B9000002C35DB5D0102689446654480225200BA
:102BA000AE5CE43A760729D180267600AA5D02273A
:102BB0003A43AA5502681800083040011218402014
:102BC0005071E20F4F785D00AD182D014F4E751911
:102BD000686807243C4024074D4E3040204368601D
:102BE0008978002900D088E05B009B181B01474AC8
:102BF000D3185A68520052085A6000221000F0BDE3
:102C00005D0102689446654480225200AF5C7026E4
:102C1000E43A3742F2D19036AA5D20273A43AA55CA
:102C20000268180008304001121880201071C8E7AF
:102C3000002C17DB5D010268944665448022520037
:102C4000AE5CE43A7607D9D180267600AA5D0327E8
:102C50003A43AA5502681800083040011218402073
:102C60005071AEE75D0102689446654480225200CF
:102C7000AF5C7026E43A3742C0D19036AA5D302767
:102C80003A43AA5502681800083040011218802003
:102C9000107196E7002C17DB5D01026894466544CD
:102CA00080225200AE5CE43A7607A7D180267600F7
:102CB000AA5D04273A43AA5502681800083040016B
:102CC0001218402050717CE75D010268944665440B
:102CD00080225200AF5C7026E43A374200D08DE784
:102CE0009036AA5D40273A43AA550268180008307A
:102CF000400112188020107163E7696880231B0669
:102D00000B436B60002279E7D45D000004050020CE
:102D1000FFFFFF8F0F230B4049B2002909DB026838
:102D200008335B01985C4007400F431E9841C0B2D6
:102D30007047026808335B01985C4006400FF4E777
:102D40000F230B4049B200290ADB08335B010268FC
:102D5000D218402151710268D3180122DA717047EC
:102D600008335B010268D218802111710268D31800
:102D70000222DA71F3E70F230B4049B2002907DB87
:102D8000026808335B01D3189879C006C00F7047FA
:102D9000026808335B01D31898798006C00FF6E704
:102DA0000F230B4049B2002906DB026808335B01A0
:102DB000D31810225A717047026808335B01D31888
:102DC00020225A71F7E730B50F230B4049B2002992
:102DD0001DDB59010268521883246400145DE40667
:102DE00014D5102582246400155502685218082154
:102DF000FF31515C890609D5E43C0821FF31545468
:102E0000026808335B01D31801221A7130BD5901E1
:102E10000268521883246400145DA406F6D52025A8
:102E2000822464001555026852180821FF31515C54
:102E30004906EBD5C43C0821FF31545402680833DD
:102E40005B01D31802221A71E0E7000030B50C00D4
:102E5000083464010568645D6406640F1C25002C59
:102E600001D1280030BD4C010B4D2D192C002A61D9
:102E70006A690A4D2A40626162699B049B0C920B4D
:102E80009203134363610368083149015918802391
:102E90004B710025E5E7C04604050020FF3F00F028
:102EA00030B50C00083464010568645D64071C25B6
:102EB000002C01D1280030BD0B4C4D012A51621964
:102EC00054689B041B09094D2C40234353605368ED
:102ED0009B0B9B0353600368083149015918402339
:102EE0000B710025E6E7C04604050020FF3F00F017
:102EF000094B19605A6809491140802292020A431D
:102F00005A605A68920B92035A60026840218223E9
:102F10005B00D1540020704704050020FF3F00F003
:102F20000268137802210B43137002689378022B16
:102F3000FCD07047F0B5DE4657464E464546E0B5F4
:102F400083B0C24B1F683D682B78DB0914D12E8CEF
:102F5000B6B2002E00D0A9E1AE8BB6B2AB235B00B7
:102F6000FB5AAA225200BD5A1D4035400024B84FDA
:102F7000B64B9946984684E12B8C9BB2002B00D12E
:102F8000DEE0288C80B2B34B984704001F2800D99C
:102F9000D6E0030008335B01ED18ED79EDB2AB0725
:102FA00041D0AD4A01238340116899431160030069
:102FB00008335B013A68944663440322DA713B1894
:102FC000AE331B78DB072ED5A44B18703A6803008C
:102FD00008335B019B5C9B079B0F012B00D181E0B9
:102FE00042019F4B9B185A681201920C90B29B4968
:102FF0004A805A689204920C8A805A6899490A4019
:103000005A60002807D16201954B9B185B689B04AE
:103010009B0C924A53808D4B1868A31C1B01C3184C
:103020005B688E4998476B070ED58B4A0123A340F6
:10303000116899431160854B1B681B682200083298
:1030400052019B180422DA712B0714D5824A0123FE
:10305000A3401168994311607C4B18682300083322
:103060005B010268944663440822DA710319AE33A7
:103070001B789B0747D4EB0614D5774A0123A3405E
:10308000116899431160714B1868230008335B0184
:103090000268944663441022DA710319AE331B7838
:1030A0005B073ED4AB0600D4B0E06B4A0123A340DB
:1030B000116899431160654B1868230008335B0160
:1030C0000268944663442022DA710319AE331B78F8
:1030D0001B0700D49AE061490C7024010419236B8A
:1030E000984793E042015E4B9B185A689204920CF9
:1030F0005A494A805A681201920C8A805A68920B87
:1031000092035A6087E755490C706201544B9B1833
:10311000DB891F2213404B702301C3189B6A984719
:10312000A9E74E490C7062014D4B9B185B681B016F
:103130009B0C4B802301C318DB6A00219847B1E741
:10314000AC8BA4B2630705D50423AB83A133FB5C2E
:10315000DB0762D423070BD500223F4B1A603B4BA1
:1031600018680823026893839D33C35C9B0758D477
:10317000630608D5354B186840230268938365338E
:10318000C35CDB0650D4A30608D5304B1868202357
:10319000026893838533C35C1B0748D4E30608D5D4
:1031A0002A4B18681023026893839533C35C5B072E
:1031B00040D423060BD50022274B1A60234B1868F6
:1031C0008023026893832533C35C9B0635D4E305D3
:1031D0000CD50022204B1A601C4B186880235B0022
:1031E000026893835B3BC35C5B0629D4A3050DD5C2
:1031F0000022194B1A60154B186880239B00026847
:1032000093835C3BFF3BC35C7F2B1CD803B03CBC6F
:1032100090469946A246AB46F0BD7B683800984779
:1032200098E783689847A3E743699847ABE7036942
:103230009847B3E7C3689847BBE783699847C6E7F1
:10324000C3699847D2E7036A9847DFE70C0200207A
:10325000E85D0000E55800001C020020200200206C
:1032600004050020FF3F00F023002E339B00424660
:1032700012689B589E494246106898470134072CB3
:10328000C4D06300DB5B334203D04A461268126845
:1032900093832B42F2D0062CE6D1964B1B891B0957
:1032A000802252001340924A1360DDE73C005934FB
:1032B000FF340023012294465F329146503A9246F1
:1032C0000D3A9346B8462F00B9E02A003D00474624
:1032D00090465B01ED180823FF33EB5C5B0616D5C7
:1032E00040220823FF33EA54883BFF3B4246134306
:1032F000814A937160230B4200D187E7019B1B0138
:10330000FB18E0331B687C49380098477EE70823A8
:10331000FF33EB5C9B06EDD520220823FF33EA54F4
:10332000754B42469A71E5E73D004746019A130006
:1033300008335B01ED181023EB71BB186133FF33C9
:103340001B78DB0600D461E710005201694B9B1823
:103350005B689B049B0C68490B800301FB18DC3302
:103360001B684046984751E72A003D004746904673
:103370005B01ED180823FF33EB5C9B071ED502228F
:103380000823FF33EA545C48883BFF3B4246134323
:103390008371019B5A01574B9B1810335B689B0448
:1033A0009B0C43808B0700D130E7019B0D331B0141
:1033B000FB185B6850493800984727E70823FF331C
:1033C000EB5CDB07EED501220823FF33EA544A48C1
:1033D00043468371019B5B01464AD21853689B04A4
:1033E0009B0C038053681B019B0C8380DAE7082247
:1033F000FF329A5C52076ED504200822FF3298549F
:10340000019842013B4B9B189B7A9B0705D5394B92
:103410009B189A7A022082439A72374B42469A71DD
:10342000019B08335B013A6894466344DB79DB0710
:1034300051D5EBE601330134082B00D1E6E6DDB2CD
:10344000019332001A4161461142F3D01A0008324A
:103450005201BA18D279D2B2217A114020780140B3
:103460004846104200D030E75046104200D05BE79B
:103470005846104200D077E70C201042DAD02A00DC
:103480003D00474690465B01EB180822FF329A5CEC
:103490001207ACD504380822FF3298540198420133
:1034A000144B9B189B7E9B0705D5124B9B189A7E4D
:1034B000022082439A7680235B42424613430E4A9F
:1034C0009371019B08335B013A6894466344DB794E
:1034D0009B0700D59AE60C230B4200D196E6019B90
:1034E0001B01FB18D8331B680349380098478DE649
:1034F00010020020040500201402002000220270A7
:10350000012343708270C37070470000F0B5CE464F
:10351000474680B583B004000D00160000236E4AB4
:1035200013606E4A106021606D49CA692020024311
:10353000CA6101AF7B700122BA70FB7006339946F5
:103540003B7039000838674B984698474B463B70AC
:1035500039001920C047B3786A46137069460620BF
:10356000614B98470620614B98472B780122134303
:103570002B70AB78DB07FCD45D4AD37803218B43F7
:1035800002210B43D370D3780C218B4308210B43CA
:10359000D370584B1B689B03DB0E1F2B00D18FE0B1
:1035A0002A8D9B0154490A4013432B85514B1B68BC
:1035B0005B02DB0E1F2B00D184E02A8D1F218A4382
:1035C00013432B854B4B1B689B015B0F072B00D1D3
:1035D0007AE02A8D1B0349490A4013432B85327830
:1035E0002978D2017F230B4013432B7071782B78FD
:1035F00001220A40920004218B4313432B70404B5D
:103600006B62F378012B61D0002B06D122681389FD
:103610000C218B4304210B43138180225200002193
:103620003748384B9847231D21002431002204C31A
:103630008B42FCD12100A43100221A605A609A60AA
:10364000DA6010338B42F8D10023A422A354013254
:10365000A3542300A6332100AE3100221A701A723F
:1036600001339942FAD12300B8332100D43100222A
:1036700004C38B42FCD121005531FF3100221A6076
:103680005A609A60DA6010338B42F8D10023AA2284
:103690005200A3520232A35223005933FF33613444
:1036A000FF3400221A701A720133A342FAD1802229
:1036B000154B1A60002003B00CBC90469946F0BD33
:1036C0001A3B6DE7023B78E7043B82E722681389E7
:1036D00008318B431381A0E71C0200200C0200205C
:1036E00000040040755200007D510000F1500000C0
:1036F00000500041246080003FF8FFFFFF8FFFFF74
:1037000004050020AB5B000000E100E070B5002282
:10371000104B1A70002310491F25104E0D4C0AE063
:103720000D4908E023780133DBB223700F2B10D84A
:1037300000211F2BF4D9280018400122824008697B
:103740001042EFD00A619B009B59002BEAD09847AA
:10375000E8E770BD04060020001800408402002045
:1037600010B5490840230024814202D2180010BD40
:103770001C00091A631C9BB28842F9D94023FF2C14
:10378000F4D814800023F1E710B582B004000E4B8A
:103790001B78002B07D0002905D10B4B5B788342A7
:1037A00010D01D200CE001A90C701320074B984786
:1037B0001320074B9847044B5C7001221A700020BD
:1037C00002B010BD0020FBE7280200207D51000060
:1037D000F1500000404B984231D00AD93F4B9842FB
:1037E0004DD03F4B98425AD03E4B984237D00020A4
:1037F00070473D4B98420CD03C4B9842F7D1012981
:1038000017D000295DD0022915D0032915D000203A
:10381000EEE7012907D0002951D0022905D003295C
:1038200005D00020E4E73248E2E73248E0E73248DA
:10383000DEE73248DCE73248DAE73248D8E70129E8
:1038400007D000293FD0022905D0032905D0002048
:10385000CEE72D48CCE72D48CAE72D48C8E7012917
:1038600007D0002931D0022905D0032905D0002036
:10387000BEE72848BCE72848BAE72848B8E7012946
:1038800007D0002923D0022905D0032905D0002024
:10389000AEE72348ACE72348AAE72348A8E7012975
:1038A00007D0002915D0022905D0032905D0002012
:1038B0009EE71E489CE71E489AE71E4898E71E4868
:1038C00096E7032094E71D4892E71D4890E71D48BE
:1038D0008EE71D488CE7C0460010004200180042E9
:1038E000001C00420014004200080042000C00428C
:1038F00003000500030006000300070003000100A9
:1039000003001E0003001F000300090003000A005B
:1039100003000B000300110003001200030013005A
:1039200003000D0003000E0003000F00030017004A
:10393000030018000300190003000400030008003E
:103940000300100003000C000300160030B587B020
:103950000B4B6A4632CB32C232CB32C2009B83421F
:103960000BD001239A0069465258824206D0013397
:10397000062BF7D1002007B030BD0023D8B2FAE7FC
:10398000FC5D000070B582B006000D0000226B46A1
:10399000DA800468E369002BFCD18F33237523762A
:1039A00023680222934323603068C369002BFCD153
:1039B000124B98471430C0B2114B984701006B4628
:1039C0009A1D28000F4B9847002802D0172002B0FC
:1039D00070BD6B4606331B7823733368DA69002A9F
:1039E000FCD1DA69002AFCD11A6802210A431A6064
:1039F0003268D369002BFCD1E9E7C0464D3900009D
:103A00009951000061370000F0B5D6464F4680B5A9
:103A10008BB081460F001400030019600B689B07F0
:103A200009D40B680520DB0700D4B1E00BB00CBC57
:103A300091469A46F0BD936A0593D36A0693136B39
:103A40000793536B0893002605AB01930AE03800F7
:103A5000AF4B98470CE00F23184081422DD101361F
:103A6000042E2FD0F1B2B300019A98580028EED05E
:103A7000431CF4D00104090C000CC3B29C46002383
:103A8000020605D463465B09DB01A24A9246534411
:103A90001F226046024098184030007882468020FD
:103AA0005546ED07D9D552089B1830331878C0B267
:103AB0006346DB07CFD50009CFE700234A461360F2
:103AC0001C20B3E71320944B984722780025012A45
:103AD00016D02178002927D13B68E27F1204A07F0D
:103AE00002431C209A42A1D1A369A28B0430205C1E
:103AF000002801D040200243082003431D4314E066
:103B000004AA0100A069854B984703001720002BE9
:103B100000D08BE73B7BDBB204AA127805309A42D7
:103B200000D083E70C35D4E700226368A068034324
:103B3000E06803432B43207C0243607C002801D0D3
:103B400080200343A07C002802D080208002024312
:103B5000E07C002802D0802080000243207D0028E5
:103B600002D0802080010243386802252B43834223
:103B700004D000234A4613601C2057E77B68934219
:103B8000F7D14B465971237C4A46937100204DE78B
:103B90000800634B9847634A116A851C0123AB40B8
:103BA0000B43136209A92426A35D0B701430C5B220
:103BB00028005D4B984728005C4B9847A05D00218A
:103BC0005B4B98472378012B20D02378002B03D11F
:103BD0003B68082213433B604B461E6804AB8022BF
:103BE0001A7000225A7001219970DA702378002B24
:103BF00001D104AB9A70A36A0593E36A0693236B21
:103C00000793636B0893002705AD11E03B680C2216
:103C100013433B60D9E730003D4B98470DE004A9C2
:103C20000870000CC0B2434B98470137042F07D0EF
:103C3000F9B2BB0058590028EDD0431CEFD1F4E78E
:103C400023784A465371237C9371A37CD371237DDF
:103C50001372002202ABDA802378012B12D0237872
:103C6000002B27D1A069A28B736AE17F0904A57F8D
:103C70002943194371622023E35C002B1CD04023AD
:103C80001A4319E04B461868254B98471430C0B2C8
:103C9000214B9847010002AB9A1DA0691F4B984722
:103CA00003001720002B00D0C0E602AB06331B78C0
:103CB0003373D4E7002200206368A1680B43E168F6
:103CC0000B430343217C0A43617C002903D11A4939
:103CD0008978890701D580210B43A17C002902D076
:103CE000802189020A43E17C002902D080218900D9
:103CF0000A43217D002902D0802189010A433168CD
:103D00000B43336073681A43726000208EE6C0462E
:103D1000D537000000440041995100006137000090
:103D20004D390000000400407D510000F1500000BA
:103D3000893700007552000000200041F0B5D646DA
:103D40004F464646C0B582B088461727002A73D032
:103D5000C179053700296FD04179002903D1016865
:103D60000C7EA4070BD4013A94B200250422022150
:103D700089460126DB05DB0D9A46C44637E002245E
:103D80000C76F0E701680B7E3342FCD00B7E3342A9
:103D900009D053468B622DE03B7E49460B4238D119
:103DA0003B7E134245D001680B7E1342FCD00B7E54
:103DB000134240D04B8B00270197134202D04A8315
:103DC0001E2301938379012B27D08B6ADBB20199E3
:103DD000002938D16F1CBFB261464B55817901294A
:103DE0001FD03D00013CA4B218498C421FD043793A
:103DF000012BC7D04379002BD5D107683B7E1342F6
:103E0000CAD1134B397E1142C6D1013B002BF9D1E7
:103E1000C2E702233B7604270EE0896AC905CB0D71
:103E2000D5E70235ADB2190A6346D955DAE7019FE5
:103E300002E0122700E01027380002B01CBC9046B8
:103E40009946A246F0BD019FF6E7C046FFFF00007D
:103E50001027000010B544791523012C01D018005B
:103E600010BD047A0023002CF9D1002A58D04B78D9
:103E7000002B44D003681B7EDB0710D40A78D109DD
:103E80000023002904D15309DB012E498C466344E9
:103E90001F21114001228A409A610523DFE70A7839
:103EA000D4090023002C04D15309DB01254CA4467E
:103EB00063441F2414400122A2405A6103681A7E01
:103EC000D20701D58A789A62C2790023002AC6D126
:103ED00002680421137E0B42FCD0117E00234907A7
:103EE000BDD5538B5B0701D5042353838379012B05
:103EF00002D0936A0023B2E7936A0023AFE70A78FF
:103F0000D1090023002904D15309DB010D498C4656
:103F100063441F21114001228A405A6100239EE719
:103F20000A78D1090023002904D15309DB0105498E
:103F30008C4663441F21114001228A409A6100236C
:103F40008DE7C04600440041F0B5DE4657464E4678
:103F50004546E0B583B01723002A07D1180003B007
:103F60003CBC90469946A246AB46F0BD4379002B37
:103F700003D103681C7EA4070AD4934600240123BE
:103F80000225AC460235A846013A92B28A4623E0A1
:103F900002241C76F1E7357E61460D422ED1357E36
:103FA0001D4200D1C2E00668357E1D42FCD0671C70
:103FB000BFB251460D5D8179012923D0ADB23C00DD
:103FC000377E1F4202D0ED05ED0DB562551EADB234
:103FD000C679002E1DD12A00594DAA4270D04579CC
:103FE000002DE0D10668357E1D42D4D1554D377E77
:103FF0001F42D0D1013D002DF9D1CCE70223337609
:104000000233ABE70234A4B25146CF5D3F023D43D9
:10401000D6E751464579002D37D14B4D019112E03D
:104020000234A4B24946019F795C0902009F0F4304
:104030001BE0013A92B20668377E41460F421BD11F
:10404000013D002D18D0002AF5D00668377E1F42AA
:10405000F1D0671CB9B289460199095D0091817957
:104060000129DDD069460F884C46317E1942E0D0E7
:10407000FF05FF0DB762DCE70199357E67463D42DB
:1040800018D1357E4646354252D00668357E4746C1
:104090003D42FBD0357E3D4207D0758B3D4200D07E
:1040A00077838579012D09D0B56A5D46013DADB2B2
:1040B000AB4669E70223337602334FE7B56AF4E78C
:1040C0004379012B0BD0002B34D1C279002A00D1C7
:1040D00044E704245B465D46002B19D13EE70168A6
:1040E00002220B7E1342FCD0002337E70B7E2342D3
:1040F00022D00B7E234207D04B8B234200D04C832F
:104100008379012B10D08B6A013DADB2002D15D003
:1041100001680B7E2342E9D10A4B0A7E2242E5D197
:10412000013B002BF9D1E1E78B6AEDE7122315E79C
:10413000122313E7002311E712230FE700230DE7F3
:10414000FFFF0000102700001127000010B5040039
:104150000F4B9847012819D0002803D0022810D00F
:10416000012010BD0B4B1B5D0220002BF9D120005C
:10417000094B984703000320184043425841400030
:10418000EFE70022034B1A550220EAE70320E8E795
:104190004D0300002C020020FD07000010B5002098
:1041A000014B984710BDC0464D41000070B504005A
:1041B0000D00044B98474000013828602000024B56
:1041C000984770BD250800004D41000010B5010062
:1041D0000020014B984710BDAD41000010B50020F4
:1041E000014B984710BDC0464D08000001207047A4
:1041F000F8B51400244B9847002804D002384342F5
:1042000058410130F8BD0134A2B201271F4E08E029
:104210001F4810E000201F4B9847002826D1002798
:104220002200541EA4B2002A1CD0002C20D001254C
:104230002540EDD018480121B047002814D1002FA7
:10424000E8D11549002D00D01149002380229200A9
:104250000120124DA8470028DCD101200D4B9847C2
:104260000120CFE70020CDE70120CBE70120C9E7FF
:10427000002FD4D100238022920007490120074D4E
:10428000A8470028CBD1E8E751080000D908000072
:10429000080800200509000008060020A1130000FE
:1042A00010B50A0001000020014B984710BDC04620
:1042B000F1410000F8B51400204B984700280DD0BC
:1042C0000238434258410130F8BD1D481BE001301F
:1042D000002DF9D11B4B98470120F5E70125194F17
:1042E000194E08E00020EFE70120EDE7002C11D186
:1042F000013CA4B20025154B9C42F3D0002DF5D112
:10430000E307E2D512480121124B98470028EBD170
:10431000002C0CD00E49E30700D509490023802268
:1043200092000020B0470028D1D0002DE0D100201D
:10433000B8470028DCD00120C6E7C0467509000058
:1043400008080020110A0000A1130000FFFF000070
:1043500008060020E509000010B50A000100002051
:10436000014B984710BDC046B542000000B583B070
:104370006B46D91DFF230B7001220B480B4B98474E
:104380000B4B1B88012B0AD0FC226B469A71012231
:104390006B46991D0448054B984703B000BDFE22AB
:1043A0006B469A71F3E7C04630020020493F000097
:1043B00044020020F0B583B06B46DC1DFF23237060
:1043C000124E012221003000114DA847FF23012287
:1043D00021003000A847FF23012221003000A84718
:1043E0000C4C6B46DD1D094E094F2B78FF2B09D075
:1043F000FF23012229003000B847013C002CF4D1F2
:10440000002000E0012003B0F0BDC04630020020D3
:104410003D3D0000400D030070B582B0144B1C8878
:10442000012C23D0134B1988134B1868134B984752
:104430000123844202D9180002B070BD6B46DC1D16
:10444000FF2323700E4E0122210030000D4DA8479E
:10445000FD232370012221003000A8470A4B984712
:10446000031EE8D10521094A1170E4E70123E2E7C0
:10447000440200203C0200204C020020BD550000F8
:1044800030020020493F0000B543000043020020F5
:10449000F0B583B000226B46DA71144C6B46DD1D1B
:1044A000134E144FFF23012229003000B8472B7808
:1044B0000F22190091430A1E09D0FE2B13D0013C94
:1044C000002CEFD104220C4B1A7000200CE05B078B
:1044D00004D00732084B1A70002005E00B22064B6F
:1044E0001A70002000E0012003B0F0BD20A10700F9
:1044F000300200203D3D00004302002030B583B073
:1045000001A901235B420B80144D02222800144BA9
:1045100098476B46DC1DFF23012221002800114D26
:10452000A847227811231340012B05D001220E4BFE
:104530001A70002003B030BD1E231A40042A0BD08D
:104540000A2A04D1023A084B1A700020F2E70A2224
:10455000054B1A700020EDE70120EBE73002002048
:10456000493F00003D3D00004302002070B590B07F
:104570000025294B1D700FA90D7001264E708D70FE
:104580000020264B984701AC2670029503952574B0
:104590006574A674E67425752423E5540C22002165
:1045A00007A81F4B9847A562E56225636563E56030
:1045B0001C4BA3611C4D2200002128001B4B984777
:1045C0002A68D369002BFCD1136802210B431360C6
:1045D000174A002353709370164908781070164CD0
:1045E00020706370A370012269464A708B700A7054
:1045F0000A4B98472278D1090023002904D1530996
:10460000DB010E498C4663441F21114001228A4080
:104610009A6110B070BDC04643020020454B0000B7
:10462000AB5B0000801A060030020020093A00004F
:1046300050020020540200204002002000440041AB
:10464000F8B5070000220D4B1A700C000C4B994274
:1046500000D91C000B4D0C4E01E0E308E41A2100C8
:104660002800B0471728F8D07900CF190749C91991
:1046700001220448064B9847F8BDC046430200207B
:1046800000093D0030020020853900004002002072
:10469000553E000010B50022044B1A704100081866
:1046A000034909180348044B984710BD43020020F2
:1046B0004002002030020020553E000070B582B05C
:1046C000FF226B46DA710022074B1A700A24074E4C
:1046D000074D01226B46D91D3000A847013CE4B2CA
:1046E000002CF6D102B070BD430200203002002041
:1046F000493F0000F0B5C64600B586B0804600923E
:104700000193FF220F2302A8844663441A700022FB
:10471000534B1A7004AB3F324046024040200243E4
:104720001A700A0E5A700A0C9A700A0ADA70197115
:104730000027002304A90822092411E07600F6B21C
:104740000138C0B2002808D05B00DBB21D00754004
:104750002D06F3D56340DBB2F0E70137052F02D019
:104760007E5C1000F0E75B000122134304AC637130
:104770003C4E01220F2102AB9C46614430003A4F6F
:10478000B847062221003000B84702ABD91DFF23ED
:104790000B7001223000354EB047072402ABDE1DFE
:1047A000304F324DFF23012231003800A8473378C3
:1047B0005AB2002A0BDA013CE4B2002CF2D10222F8
:1047C000274B1A70002006B004BC9046F0BD284A62
:1047D00013601A071AD45A071DD4012293431FD11C
:1047E00043469B0420D443469B0525D443465B05A2
:1047F0002BD4204B6A4612881A801F4B6A46928837
:104800001A8000221D4B1A600120DCE70622144B9F
:104810001A700020D7E70922114B1A700020D2E746
:104820000F4B1A700020CEE7154B98470028DAD1BD
:1048300003220B4B1A70C6E70D4900230B60FF33B0
:1048400001220848094EB047D0E7094EFF23042251
:1048500031000448054FB84733681BBA3360C8E7D6
:104860004302002030020020493F00003D3D00008F
:10487000480200203C020020440200204C0200209C
:10488000B543000010B582B0002300930022024C13
:10489000A04702B010BDC046F5460000014B1868A5
:1048A0007047C0464802002010B584B00190002235
:1048B000144B1A70144B1988144B1868144B9847F2
:1048C000002903D1134B9847002810D0FF2304225E
:1048D00001A91148114CA0470C4B1A68101D186013
:1048E000094B19880A4B98470120002901D004B0D0
:1048F00010BDFF23022203A90748084CA04701204E
:10490000F5E7C046430200203C0200204C02002094
:10491000C956000091440000300200203D3D0000D7
:10492000F0B5DE4657464646C0B582B08346002203
:10493000174B1A704C1EA4B2002926D00026154B26
:104940009A46154FD0478046002817D03A885B46D4
:104950009919FF231148124DA8473B88F618114AB0
:1049600011688C4663441360FF23022201A90B489F
:10497000A847013CA4B20C4B9C42E3D1404602B094
:104980001CBC90469A46A346F0BD01239846F5E725
:1049900043020020914400003C020020300200202D
:1049A0003D3D00004C020020FFFF00000120704749
:1049B000F0B5C64600B580460022154B1A7000259A
:1049C000144F154E00E021004C1EA4B200291BD04C
:1049D000B8473288434659191048114B98473388D5
:1049E000ED18104A11688C46634413600E4B9847CB
:1049F00000280AD0002CE6D00C4B98470028E2D1C2
:104A00000522034B1A7000E0012004BC9046F0BD63
:104A1000430200206D4300003C02002030020020D1
:104A2000493F00004C020020FD440000B543000057
:104A300010B5054B9847002803D10522034B1A7087
:104A400010BD034B9847FBE7B5430000430200202D
:104A5000194400000120704710B50123002801D03F
:104A6000180010BD014B98470300F9E79D41000075
:104A700010B50123002801D0180010BD0800024B1A
:104A800098470300F8E7C046CD410000030000202E
:104A9000002B01D1013048407047000010B50123C0
:104AA000002801D0180010BD014B98470300F9E71A
:104AB000DD41000010B50123002801D0180010BD11
:104AC000014B98470300F9E7ED410000002801D1B0
:104AD000014870470020FCE7145E0000F8B50500AF
:104AE0000E001700074B98470124002D03D0064BFA
:104AF00098472000F8BD39003000044B9847040067
:104B0000F5E7C046190B00001B0B0000A142000096
:104B1000F8B505000E001700074B98470124002D3B
:104B200003D0064B98472000F8BD39003000044BF5
:104B300098470400F5E7C0461D0B00001F0B00005E
:104B40005943000000B583B001AB80221A700A7887
:104B50005A704A789A708A78DA701900014B98472F
:104B600003B000BD75520000F0B5C64600B582B076
:104B700001AC012767700026A670277021000C2069
:104B8000124DA847124B984680235B014246936121
:104B900021000D20A84780239B01424693612100FC
:104BA0000F20A84780231B0242469361267067703E
:104BB000A67021001C20A84721000220A847210040
:104BC0000320A84702B004BC9046F0BD454B00004E
:104BD000004400410C4B1B68002B06D1EFF31083FF
:104BE000002B07D00022094B1A70074A13680133C3
:104BF0001360704772B6BFF35F8F0022044B1A70C8
:104C00000132024B1A70F0E7580200205C020020CB
:104C1000D4000020084B1A68013A1A601B68002B68
:104C200009D1064B1B78002B05D00122044B1A70CA
:104C3000BFF35F8F62B67047580200205C0200200D
:104C4000D400002010B5082803D880001E4B1B5844
:104C50009F46002036E01D4B186933E01C4B1B6A51
:104C60009B059B0F1B48D8402CE0184B586929E046
:104C7000164B1B6800209B0724D515491022CB68D2
:104C80001A42FCD0114B1B685B0701D4124819E093
:104C90000E4B1B689B0601D50F4813E000200F4BFD
:104CA00098470A4B9B681B041B0C58430AE050238F
:104CB000074AD35C00205B0704D5044BD86801E0A9
:104CC0008020000210BDC0462C5E00006002002063
:104CD0000008004000127A00006CDC0299510000CC
:104CE00070B50C490B6A0478857840780122104031
:104CF00080014026B34303432A40D20180208343EE
:104D000013430322224012020348034013430B6261
:104D100070BDC04600080040FFFCFFFF10B5037ADD
:104D20009B061B0C42899205920D134318494B6058
:104D30008379C2791343428884882243134342789B
:104D4000D20113430B600378042B11D0202B0ED11A
:104D5000037B9B06028A1343C28912040D490A4051
:104D600013430B4A936011680B4B0B43136010BD48
:104D7000037B9B06028A1343C289120405490A4039
:104D80001343034A9360136804210B431360EEE757
:104D9000600200200000FF0324040000082803D85C
:104DA0008000254B1B589F46172044E0234A136A76
:104DB00002210B43136200203DE0204A9369022147
:104DC0000B439361002036E01C4A138A02210B43F7
:104DD000138200202FE0194A938A02210B43938209
:104DE000002028E016490B68022213430B60134B86
:104DF0009A8419000E32CB681A42FCD0104A91688E
:104E00000E4BD96252689A6200229A8419001032BD
:104E1000CB681A42FCD00A4B1B689BB2074A9384AA
:104E2000002008E0054944228B5C022003438B5498
:104E3000002000E000207047505E000000080040A5
:104E40006002002030B58BB0C222D200304B9A6095
:104E5000304A53681E218B431A390B435360012299
:104E600001AB1A7000242C4DE0B201A9A84701340F
:104E7000252CF9D105AB0022002159809A71DA71F5
:104E8000203119705A70254B1B689B0E3F2B3CD06C
:104E900005A80372072303730333C381204B4381A7
:104EA000FF3B83801F4B03821F4B984704A80023BE
:104EB00043700122827003701C4B984706201C4CE3
:104EC000A0471C4B98470720A04711491022CB68E8
:104ED0001A42FCD00E4A938C80210B439384164ACD
:104EE0000023137253729372D37201A901224A6094
:104EF0004B704B7207330B700A7200200F4B9847B0
:104F000000200F4B98470BB030BD203BC0E7C04698
:104F100000080040004000417D51000024608000F6
:104F2000FF01000080BBFFFF1D4D0000E14C0000B1
:104F30009D4D0000454F000000040040694F0000F7
:104F400021500000064A936908210B439361012216
:104F5000044B1A7019000B781342FCD17047C046FD
:104F600000040040000C004070B5060004000D78FD
:104F70002D0205434B78002B02D08023DB021D431A
:104F80004B7A002B02D080231B031D434868012865
:104F900010D9431E184234D1022830D902230022EE
:104FA00001325B009842FBD8120232431400802386
:104FB0005B031D430B7A002B02D080239B031D4310
:104FC000134A53785BB2002BFBDB124B9847124B12
:104FD0001E700F4A53785BB2002BFBDB0C4B9C60BE
:104FE0001A0053785BB2002BFBDB094A536880211F
:104FF00049020B401D435560084B984770BD002285
:10500000D2E70402344380239B021D43D2E7C0460B
:10501000000C0040D54B0000080C0040154C00006F
:1050200010B504000B4A53785BB2002BFBDB0A4B34
:1050300098470A4B1C70074A53785BB2002BFBDB86
:10504000044A516880235B020B435360044B98472A
:1050500010BDC046000C0040D54B0000040C0040C1
:10506000154C000070B504001A4A53785BB2002B4F
:10507000FBDB194B9847194B1C70164A53785BB2EF
:10508000002BFBDB134E7068C004C00E144B984716
:105090000500124B1C707668F602F60F114B1C705F
:1050A0000C4A53785BB2002BFBDB0A4B9C68240252
:1050B000240C0D4B9847002E07D1012C07D9210055
:1050C00028000A4B9847050001E00134E54028001C
:1050D00070BDC046000C0040D54B0000040C0040E1
:1050E000454C0000080C0040154C0000BD55000068
:1050F00010B50400064B9847064B1C70064A5388AF
:105100008021C9010B435380044B984710BDC04612
:10511000D54B0000020C0040000C0040154C000074
:1051200010B504000F4B98470F4B1C700F4A538863
:105130001B05180F53880E490B40538053880D49A7
:105140000B40538011008022D2014B881342FCD1C6
:1051500006494A8803020648024013434B80064B27
:10516000984710BDD54B0000020C0040000C0040D9
:10517000FFF0FFFFFFBFFFFF154C000010B50C78DC
:1051800024020443024B9847A4B2024B5C8010BD3A
:1051900021510000000C004010B50400064B984758
:1051A000064B1C70064B5C882405240F054B984762
:1051B0002000054B984710BDD54B0000020C004065
:1051C000000C0040154C00006550000030B5D3784D
:1051D000002B35D11378802B29D01B068024640244
:1051E000234354780225AC4306D19478002C20D177
:1051F0008024A402234341605478013C012C1CD933
:105200000D042D0CA024E4052C431C4384620D0CDA
:10521000D02424062C431C438462D478002C22D151
:105220005B031CD59378012B1ED0416117E000234E
:10523000D7E7C024E4022343DDE70D4C2340DFE73A
:1052400041600C04240CA023DB05234383620C0C77
:10525000D0231B0623438362D378002B03D15378DA
:10526000013B012B02D930BD8161F8E78160FAE78B
:10527000FFFFFBFF10B50A00C1090023002904D17C
:105280004309DB0105498C4663441F24204001216A
:1052900081401800024B984710BDC04600440041B1
:1052A000CD5100007047000010B5054B9847054BE5
:1052B0009847054B9847054B9847054B984710BDB5
:1052C000454E0000694B0000A5520000D91A0000AD
:1052D000A5520000FEE70000F8B52A4A2A4B9A4280
:1052E00011D01A00294B9A420DD2294A03339B1A36
:1052F0009B0801339B000022234822498C5884508C
:1053000004329A42FAD1234A234B9A420AD2D34317
:1053100021495B1803218B4304339B18002102C2EF
:105320009342FCD11D4AFF211D4B8B439360FD39F5
:1053300090235B001B4AD1501B4AD3780325AB4313
:1053400002242343D370D3780C27BB43082633436E
:10535000D370164B987B30229043202210439873D1
:10536000997BB943314399739A7BAA4322439A7339
:105370000F4A536880210B4353600E4B98470E4BE6
:105380009847FEE79C5E000000000020D800002047
:1053900004000020D8000020080A002000ED00E0F2
:1053A0000000000000700041005000410048004132
:1053B00000400041515B0000BD53000070B5012169
:1053C0005A4B1970BFF35F8F62B6594B00221A70A7
:1053D0005A709A70DA701971564B9847564B984725
:1053E000564B9847564B9847564B9847564B9847BD
:1053F000564C4E4E4E4D57E0190001324B1CDBB25D
:1054000010780028F8D0002B06D10122474B1A70E3
:10541000BFF35F8F62B647E072B6BFF35F8F0022C3
:10542000424B1A704A4B9B691B051B0F022B05D878
:10543000484A5068C0239B000343536002290BD99C
:10544000032911D00122394B1A70BFF35F8F62B666
:10545000BFF34F8F30BF27E03F4A136904208343D7
:1054600013613E4B5970EDE73B4A136904210B432E
:105470001361E7E772B6BFF35F8F002333702B78B9
:10548000002B0BD100212A4A00E0190001324B1CED
:10549000DBB210780028F8D0002B19D10122234B61
:1054A0001A70BFF35F8F62B62378002BE2D02C4BCB
:1054B00098470028F8D172B6BFF35F8F00221B4BCC
:1054C0001A701B4B1B78002B9FD10021184A94E7C0
:1054D00072B6BFF35F8F0022144B1A701C4B9B698E
:1054E0001B051B0F022B05D81A4A5068C0239B00CE
:1054F0000343536002290BD9032911D001220B4B1E
:105500001A70BFF35F8F62B6BFF34F8F30BFCBE728
:10551000114A1369042083431361104B5970EDE75E
:105520000D4A136904210B431361E7E7D4000020FF
:105530007C020020A9520000C50A0000E10A000018
:105540002D030000C10A0000D115000078020020E0
:10555000002000410040004100ED00E00004004058
:10556000F112000010B5014B984710BDE10A000090
:1055700010B5014B984710BDFD0A000010B5054B52
:105580001B78002B00D110BD034B9847034B984765
:10559000F9E7C04678020020FD210000210B000041
:1055A0000122024B1A7001207047C0467802002089
:1055B0000022014B1A707047780200200022430835
:1055C0008B4274D303098B425FD3030A8B4244D3CB
:1055D000030B8B4228D3030C8B420DD3FF2209020D
:1055E00012BA030C8B4202D31212090265D0030BCC
:1055F0008B4219D300E0090AC30B8B4201D3CB03C2
:10560000C01A5241830B8B4201D38B03C01A524103
:10561000430B8B4201D34B03C01A5241030B8B4205
:1056200001D30B03C01A5241C30A8B4201D3CB02F0
:10563000C01A5241830A8B4201D38B02C01A5241D5
:10564000430A8B4201D34B02C01A5241030A8B42D8
:1056500001D30B02C01A5241CDD2C3098B4201D3F0
:10566000CB01C01A524183098B4201D38B01C01A6E
:10567000524143098B4201D34B01C01A52410309E5
:105680008B4201D30B01C01A5241C3088B4201D394
:10569000CB00C01A524183088B4201D38B00C01A41
:1056A000524143088B4201D34B00C01A5241411A68
:1056B00000D20146524110467047FFE701B5002075
:1056C00000F0F0F802BDC0460029F7D076E7704739
:1056D00003460B437FD4002243088B4274D3030953
:1056E0008B425FD3030A8B4244D3030B8B4228D3F4
:1056F000030C8B420DD3FF22090212BA030C8B421A
:1057000002D31212090265D0030B8B4219D300E0B9
:10571000090AC30B8B4201D3CB03C01A5241830B3E
:105720008B4201D38B03C01A5241430B8B4201D3EE
:105730004B03C01A5241030B8B4201D30B03C01A17
:105740005241C30A8B4201D3CB02C01A5241830A91
:105750008B4201D38B02C01A5241430A8B4201D3C0
:105760004B02C01A5241030A8B4201D30B02C01AEA
:105770005241CDD2C3098B4201D3CB01C01A524151
:1057800083098B4201D38B01C01A524143098B42DA
:1057900001D34B01C01A524103098B4201D30B01C3
:1057A000C01A5241C3088B4201D3CB00C01A5241E8
:1057B00083088B4201D38B00C01A524143088B42AD
:1057C00001D34B00C01A5241411A00D20146524146
:1057D000104670475DE0CA0F00D04942031000D365
:1057E0004042534000229C4603098B422DD3030ABA
:1057F0008B4212D3FC22890112BA030A8B420CD3CA
:10580000890192118B4208D3890192118B4204D3F2
:1058100089013AD0921100E08909C3098B4201D372
:10582000CB01C01A524183098B4201D38B01C01AAC
:10583000524143098B4201D34B01C01A5241030923
:105840008B4201D30B01C01A5241C3088B4201D3D2
:10585000CB00C01A524183088B4201D38B00C01A7F
:105860005241D9D243088B4201D34B00C01A524156
:10587000411A00D20146634652415B10104601D3E3
:105880004042002B00D54942704763465B1000D36D
:10589000404201B5002000F005F802BD0029F8D013
:1058A00016E770477047C0461C2101231B0498422D
:1058B00001D3000C10391B0A984201D3000A0839A1
:1058C0001B09984201D30009043902A2105C401858
:1058D0007047C046040302020101010100000000FC
:1058E00000000000414208401C2101231B04984293
:1058F00001D3000C10391B0A984201D3000A083961
:105900001B09984201D30009043902A2105C401A15
:105910007047C0461B1C1D1D1E1E1E1E1F1F1F1F65
:105920001F1F1F1F002B11D1002A0FD1002900D1EA
:10593000002802D00021C943081C07B4024802A174
:105940004018029003BDC0465DFFFFFF03B46846E8
:1059500001B5029800F030F8019B9E4602B00CBCE5
:105960007047C046F0B5CE46474615042D0C2E00B4
:1059700080B50704140C3F0C9946030C7E435D432D
:10598000674363437F19340CE4199C46A54203D94D
:1059900080235B029846C4444B465143434336043C
:1059A000360C250C24046544A41959184919200003
:1059B0000CBC90469946F0BDF0B557464E4645465C
:1059C000DE46E0B5040083B00D00924699468B4256
:1059D0002FD82CD04946504600F0AEF829000600DA
:1059E000200000F0A9F8331A9846203B9B4600D5CA
:1059F00074E053465A4693401F0053464246934034
:105A00001E00AF4229D826D05B46A41BBD41002B07
:105A100000DA79E0002200230092019301235A4624
:105A200093400193012342469340009319E0824240
:105A3000D0D900220023009201930C9B002B01D0AF
:105A40001C605D600098019903B03CBC904699468B
:105A5000A246AB46F0BDA342D6D900220023009255
:105A600001934346002BE8D0FB0772081A434646D1
:105A70007B080EE0AB4201D1A2420CD8A41A9D4192
:105A8000012024196D410021013E24184D41002EB2
:105A900006D0AB42EED9013E24196D41002EF8D15B
:105AA0005B460098019900196941002B22DB2B000D
:105AB0005A46D3402A004446E2401C005B4615008B
:105AC000002B2CDB26009E40330026004746BE40BC
:105AD0003200801A994100900191AEE7424620239E
