:10000000102B0020896200008562000085620000DC
:1000100000000000000000000000000000000000E0
:1000200000000000000000000000000085620000E9
:1000300000000000000000008562000085620000F2
:100040008562000085620000856200008562000014
:100050008149000085620000150100006D43000029
:1000600085620000F9120000091300001913000056
:10007000291300003913000049130000C9040000CF
:10008000D9040000E90400008562000085620000D8
:1000900085620000856200008562000085620000C4
:1000A00085620000856200008562000085620000B4
:1000B0000000000010B5064C2378002B07D1054B3B
:1000C000002B02D0044800E000BF0123237010BDC4
:1000D000D000002000000000A8810000084B10B5EF
:1000E000002B03D00749084800E000BF0748036819
:1000F000002B00D110BD064B002BFBD09847F9E731
:1001000000000000D4000020A8810000A8810000A9
:100110000000000010B5264B984726490B8C0F2293
:1001200013409B002448185803781A403F23CA54B0
:100130000F33CA5CD2B203781B012049C918498821
:100140001F4CE3185B88CB1A4361D3070FD50121FD
:100150004E23184AD1543E3B4374037CDB0703D53E
:100160004368002B00D09847164B984710BD930763
:100170000DD502214E230F4AD15400234374037C32
:100180009B07F1D58368002BEED09847ECE7530727
:10019000EAD504214E23074AD154483B4374037CDB
:1001A0005B07E1D5C368002BDED09847DCE7C0468B
:1001B000295E000000480041EC00002020020020E1
:1001C00000010020695E00000023037043700322D9
:1001D0008270C37003717047F8B5CE46474680B54C
:1001E00005000E00454B9847454B1B78002B18D156
:1001F000444B5A6920210A435A61DA6910390A438B
:10020000DA61414B1A880E398A431A8001221A801A
:100210003E4A5A633E4A9A633E4A1A80384B01224C
:100220001A70364B9847364B5B68DA070FD55B0878
:10023000012401221A420BD05B080134E4B2052CE0
:10024000F8D1354B9847344B9847142051E000249F
:100250002B4A51680123A3400B435360137A013B9F
:1002600013722D4B9847FF2CEDD02C700F2398461E
:100270001C40254F30339946FC540133FA5C02216F
:100280008A43FA540124FC541C4B98472B7842466D
:1002900013404A46BB543B692A789440A3433B61D0
:1002A000327852016023134072781202FC218901D6
:1002B0000A401343B2789205C02109040A4013434F
:1002C000F178002904D007220A4008210A43134389
:1002D0003279002A01D0102213430B4A53640E4C8A
:1002E000A0470023AB612B789B000C4A9D50A04790
:1002F00000200CBC90469946F8BDC046295E00001F
:100300000C000020000400400048004120020020B2
:1003100000010020020F0000695E0000EC000020D8
:1003200070B50400194B9847637C052B08D0A3696E
:100330005B889BB2002B07D1154B9847172070BDE7
:10034000134B98470520FAE74026124B1E6022788F
:100350000F231340104D3F22AB5423780F4AD25C39
:10036000072313404D22AB5405236374207800010A
:100370000B4BC018A1693D3A0A4B9847AB5D02226E
:100380001343AB55024B98470020D8E7295E000085
:10039000695E000000E100E00048004150010020DB
:1003A0002002002085690000F0B50A780388012644
:1003B00032400124A343134303804B78048803276E
:1003C0003B405B00062294431C4304808D780488E4
:1003D0003D40ED0018239C432C430480CA780388D9
:1003E0003A401202164C2340134303800B790488D1
:1003F00033409B02134A14401C4304804D79048807
:100400003540ED02104B1C402C4304808A79038850
:10041000324012030D4C234013430380CB79072253
:100420001A4003885203DB04DB0C134303800B895F
:100430004380CB6843600B6983604B69C360F0BD48
:10044000FFFCFFFFFFFBFFFFFFF7FFFFFFEFFFFFDB
:10045000427C0523052A0BD08369002B0AD0DA6879
:10046000002A03D0DB68DA68002AFBD1D9600023B8
:100470001800704781610023FAE70000F0B5C64616
:1004800000B580000E4BC7583B68DE6ABB6B7A6BC9
:1004900013401E4000240B4B984602E00434302CDD
:1004A0000AD04346E5583542F8D03B195B6838001E
:1004B00098473B68DD62F1E704BC9046F0BDC0465A
:1004C000700200208C79000010B50020014B984785
:1004D00010BDC0467D04000010B50120014B9847B7
:1004E00010BDC0467D04000010B50220014B9847A6
:1004F00010BDC0467D04000010B5074B19682223CB
:10050000CB5C5A1E9341DBB24A7C096803480078F1
:10051000034CA04710BDC0465801002061010020D7
:100520005959000010B50423002801D0180010BD4F
:10053000404B197ACA090023002A04D14B09DB0178
:100540003D4A94466344186A1F220A40012393409F
:10055000184210D0374B9B7B012B04D00422354B23
:100560009A730223E2E7354B1B78002BF6D000226A
:10057000334B1A60F2E72F4B9A7B042A05D0012AED
:1005800033D00323032AD1D045E0033A9A732C4B8E
:100590001B68002B17D00022284B1A700020294B13
:1005A0009847FA22920000230021274CA047274AAF
:1005B000002380185941264A0023264CA047264B89
:1005C00098470223B2E701241C4B1C7000201D4BEE
:1005D0009847FA214901214B9847FA239B00584339
:1005E000174B58601C600223A0E7144B1B78002BAC
:1005F00007D0134B1A680223D20397D50022104B61
:100600001A600C4B02229A73154A1A6001225A741E
:100610000021213299540022124B1A70054C124BC2
:100620001C60124B9847A37B023B5A425341DBB2FA
:100630007CE7C04618000020004400416001002013
:1006400010E000E01560000051670000571B00003B
:10065000581B00001167000001000020A963000082
:10066000801A06006101002058010020F9040000F2
:10067000F8B5094D094F0A4E00210A48B847041E33
:1006800007D0B047FF23034203D0013D002DF3D133
:1006900000242000F8BDC046410D03009D5B000012
:1006A000B55B00000D1B000010B582B00C4B1B6841
:1006B000998909040123009310220A480A4CA04793
:1006C000002801D102B010BD054B1868123001217D
:1006D000064B98470028F5D0054B9847F2E7C046EF
:1006E00058010020091108000D5A0000395C000073
:1006F000C55C000010B5044B1B78002B00D010BD6A
:100700000020024B9847FAE761010020AD59000034
:1007100010B50422034B9A73FB32034B1A70034B40
:10072000984710BD180000206101002065580000A6
:10073000F0B5C64600B588B0CB4B984704000128F9
:1007400006D0CA4B9847200008B004BC9046F0BDC4
:10075000C74B1B680122DA7300221A749A81C54BB9
:100760009847002188204001C34B9847002807D1B3
:10077000BF4B1B6803229A73BC4B98470324E2E7E4
:10078000D5214900BD48BC4B98470026002825D1FB
:10079000B74B1B68DB7BDB0700D5EBE1B44B1B6879
:1007A000DA7B09231340012B0FD180218900B44843
:1007B000B14B98470028DBD0AD4B1B68DB7BDB07D8
:1007C00003D5B04B98470028D2D0AF4B9847A84BE1
:1007D0001B6800229A73A54B9847B4E7AB4B984728
:1007E000431C00D1C4E10005000DD5235B00013698
:1007F0009842BDD1CCE70021A5489F4B98470028DF
:1008000019D19B4B1B680222DA730021882040011A
:10081000994B98470028ABD09E4D974F9B4E002197
:100820009D48B8470028A3D0B047C3077DD5013DF8
:10083000002DF4D19CE7954B9847430005D58C4B90
:100840001A68D37B08210B43D373002193488A4B4A
:10085000984700288CD0864B1B68DB7BDA0700D4D6
:10086000A4E18F4B9847002882D0814B1A68537DB2
:100870000721194089008B480858FA218900414313
:100880005B061B0F9B0088481B584B431360937CEF
:100890009B0900D03CE1917E8911537E9B00107E24
:1008A000800203430B43107FC011D17E49000843EF
:1008B0001B051B0D01330721014002318B40D07D08
:1008C0000F2101408B409B0A5360918909047748AE
:1008D000694B9847002800D14AE70123009308227A
:1008E00000217348734DA847002800D140E701213B
:1008F00006A8714B9847002800D139E76F4B9847FD
:10090000002800D134E706AB1B780F221340012BDF
:1009100000D119E1002B00D109E1022B00D118E12F
:10092000534B1B6810221A7405E100215848524BA2
:100930009847002800D11BE7544B9847C023DB059C
:1009400018408023DB05984205D1494B1A68D17BBA
:1009500008230B43D37300215048474B9847002886
:1009600000D105E74E4B9847002800D100E7404BE7
:100970001A68937C9B061B0F022B00D1A8E007D9B5
:10098000032B00D1A7E0042B04D14023137403E010
:10099000012B66D012231374537D5906090F890069
:1009A000072003409B003F481858FA239B0043430D
:1009B000434809584B431360917E8911537E9B0035
:1009C000107E800203430B431B051B0D3D498B42E8
:1009D0000FD0107FC011D17E4900014301330720A1
:1009E000014002318B40D17D083001408B409B0A91
:1009F0005360137C3F2B7BD900210091012380227F
:100A0000920031482B4DA847002800D1B0E60025C0
:100A10002E4E05A8B047002800D1A9E60135ADB299
:100A2000322DF6D1124B19688A7E92114B7E9B00B3
:100A3000097E89020B4313431B051B0D214A934278
:100A400054D1224E06A8B047002800D190E60135C7
:100A5000ADB2352DF6D9064B1A68069B5B0853607C
:100A600044E01423137497E725050000F506000001
:100A700058010020D55900009D5B0000085500007A
:100A80001011000071060000F9040000B55B0000C1
:100A90003A050000EF1B0000011100003B110000AF
:100AA000A9060000FC790000187A00003711000048
:100AB000331108000D5A0000395C0000C55C0000CD
:100AC000BC790000FF0F000008110800C15B0000A6
:100AD0002223137460E7302313745DE706A8364BB6
:100AE0009847002800D143E60135ADB27F2DF5D9F6
:100AF000802189003148324B9847002800D137E6E1
:100B0000304B9847002800D132E62F4B98475EE6DD
:100B1000D07E937E1B02517E09040B4303439B024C
:100B20005B08802189008C4663445360CDE6274BE7
:100B30001B6810221A74254B1B68DB7B09221340AB
:100B4000012B00D038E630E6204B1B681A221A74BD
:100B5000F1E706AB9B78DB09012B04D11B4B1B682B
:100B600030221A74E7E7194B1B6820221A74E2E757
:100B700000260DE6731E9E41B3070393144D104FDC
:100B8000B846144E00211448B847002800D138E672
:100B900003991248C047002800D132E6B047C30786
:100BA00000D428E6013D002DECD12AE609221340AD
:100BB000012B00D009E6F8E5C15B00001011000030
:100BC0009D5B000071060000F90400005801002040
:100BD000EF1B0000B55B0000371100002911000079
:100BE00010B5064B98470023002801D0180010BD0F
:100BF000034B9847034B1B68DB7BF7E72505000099
:100C0000F50600005801002010B5064B9847002358
:100C1000002801D0180010BD034B9847034B1B68F8
:100C20005B68F7E725050000F50600005801002085
:100C30000020704770B582B00E001500164B984723
:100C4000041E02D0200002B070BD144B984700284B
:100C500017D0012D19D91248124B1B68DB7B1B07DB
:100C600000D47602012300932B00802292003100F1
:100C70000D4EB04700280AD00C4B1D800C4B1D8038
:100C8000E0E70C4B98470534DCE70B48E4E7094BF9
:100C900098470524D6E7C0462505000071060000E8
:100CA00012111000580100200D5A00005C010020B4
:100CB0005E010020F50600001111080010B50C00BF
:100CC000074B9847002804D10022064B1A800530B4
:100CD00010BD044A13881C1B14800020F8E7C0468E
:100CE000395C00005C01002010B50400144B9847EB
:100CF0000523002801D1180010BD002C10D00022BF
:100D0000104B1A80104B1B88012B0FD000210F486D
:100D10000F4B984700280DD00E4B98470023EAE769
:100D2000084B1A880023002AECD0E4E7094B9847C7
:100D30000023E0E700210548054B9847ECE7C04653
:100D4000C55C00005C0100205E0100200C31000049
:100D50009D5B0000F506000070B582B00E00150026
:100D6000114B9847041E16D1012D17D90F48104B6F
:100D70001B68DB7B1B0700D47602012300932B004A
:100D80008022920031000B4EB047002808D00A4B59
:100D90001D800A4B1D80200002B070BD0848E6E7A8
:100DA000084B98470524F6E7250500001991100027
:100DB000580100200D5A00005C0100205E01002057
:100DC00018910800F506000010B50C00074B984775
:100DD000002804D10022064B1A80053010BD044AB9
:100DE00013881C1B14800020F8E7C046C95C000073
:100DF0005C01002010B504000E4B98470523002825
:100E000001D1180010BD002C0AD000220A4B1A8014
:100E10000A4B1B88012B09D0094B98470023F0E7A8
:100E2000054B1A880023002AF2D0EAE7044B9847C2
:100E30000023E6E7495D00005C0100205E01002020
:100E4000F5060000044A137802210B43137053780F
:100E50005BB2002BFBDB70470018004000B583B08D
:100E6000124A936940210B43936101A900230B703F
:100E700005200F4B984705200E4B98470E4A1378D4
:100E800001210B43137053785BB2002BFBDB0B4B40
:100E900019004031002204C39942FCD11022084BB2
:100EA0001A60084B984703B000BDC04600040040DC
:100EB0002D610000A1600000001800407C020020AD
:100EC00000E100E0450E00000023036043600122C2
:100ED0000272427283720233C3727047F0B583B0FC
:100EE00005000C0001A900234B70CB7023790B7017
:100EF000237A8B702078154B984700201F2D00D83F
:100F0000134807222A409200E77AA37A002B01D0E7
:100F100008231F43EB089B00C31899690F269640CE
:100F2000B14397403A000A439A61637A002B06D195
:100F300043690122AA409343436103B0F0BD426973
:100F40000123AB4013434361F7E7C046256200002D
:100F5000001800400268937A5BB2002BFBDB138819
:100F600002210B43138070470268937A5BB2002B17
:100F7000FBDBC12393711372138802218B4313800F
:100F80007047000070B504000568064B984722685A
:100F9000937A5BB2002BFBDB2B88012213432B805F
:100FA00070BDC046690F000010B5CB88C2889A1A80
:100FB00092064B799B050C79640423438C782403B7
:100FC000234313430279002A05D1CA78002A02D0AC
:100FD000802252021343487880010A781043184354
:100FE00010BD10B58B0EC4881B19D3808B011B0F4D
:100FF00053718B02DB0E13710379002B0CD10B04A0
:101000001B0F9370CB03DB0FD37088093F2318406D
:1010100050701940117010BDCB03DB0E9370F4E7D4
:1010200010B50468034B9847A37A5BB2002BFBDB37
:10103000206110BDA90F000010B50A0003684179B6
:10104000002906D0598849040BD519690A4B9847DD
:1010500010BD0A4959800468A17A49B20029FBDB16
:10106000F3E75988C0242402214359800468A17AF7
:1010700049B20029FBDBE8E7E30F00000080FFFF37
:1010800070B50D0014001723012A01D9180070BD96
:101090000668064B9847B37A5BB2002BFBDBE40093
:1010A0003419A0612B7A23770023EFE7A90F000002
:1010B00030B583B00500140001601C4A93692021FB
:1010C0000B43936101A902230B700420184B98472E
:1010D0000420184B98472800174B984723792B7109
:1010E000E3786B71E388EB80144B1D602A682388DA
:1010F0002179002917D008210B43A178002901D0BC
:1011000080210B431380E378002B04D05388802187
:10111000C9010B4353802100083100222800084BED
:10112000984703B030BD48210B43E6E70004004078
:101130002D610000A1600000850F0000BC020020AE
:101140008110000070B50C001723012A01D9180086
:1011500070BDD20003689D18A9692200024B984710
:101160002B7F23720023F2E7E30F000070B586B0F7
:101170000400066804A93D4B98472379002B42D010
:1011800004AA90780B2383429B415B42D3700C21CD
:10119000374B9847C9B2002916D004AB997001ADFE
:1011A000002229002000334B9847A8780B23834264
:1011B0009B415B42EB700C212D4B9847C9B2002933
:1011C00006D001AB997006E00C2204AB9A70E6E7FA
:1011D0000C2201AB9A7000252571002201A9200084
:1011E000254B984725712000244B9847338840228F
:1011F000534033802000224B984704A92000214B04
:10120000984706B070BD04ABDB78002B15D004AB5B
:101210009A780C329A700022DA7001AD002229000F
:101220002000144B9847EB78002B0ED101AB9B7834
:101230000C2B17D001232371D5E704AB9B780C2B23
:10124000EBD1002204AB9A70E7E701A98B780C334D
:101250008B700023CB700133237100222000064BDA
:101260009847E7E7002201AB9A70E3E739100000E6
:10127000B56400004511000081100000690F0000F6
:10128000550F00002110000070470000F0B50A4B18
:101290001B78002B0CD1094F094E0A4D0024DE515A
:1012A0005A1914600433182BF9D10122024B1A7019
:1012B0008000024BC150F0BD62010020640100209B
:1012C00089120000C002002000B583B009236A46DD
:1012D000137001335370013393700133D3700133B2
:1012E000137101335371034B98476B46185603B083
:1012F00000BDC046114D000010B5024B1B68002018
:10130000984710BD6401002010B5024B5B680120B6
:10131000984710BD6401002010B5024B9B68022065
:10132000984710BD6401002010B5024BDB68032014
:10133000984710BD6401002010B5024B1B690420C2
:10134000984710BD6401002010B5024B5B69052071
:10135000984710BD64010020F0B5DE4657464E4662
:101360004546E0B591B005000C0016002960080064
:10137000BC4B9847020023680520DB0706D511B057
:101380003CBC90469946A246AB46F0BD2368173058
:101390009B07F4D4B449086A971C0123BB4003435C
:1013A0000B620FA92D27F35D0B701432D3B2029399
:1013B0001800AE4B98470298AD4B9847F05D00215E
:1013C000AC4B9847F37A6B712423F35CAB71252304
:1013D000F35CEB71F37E2B72337F6B722B68984654
:1013E0001800A04B9847143000220E2306A98C4603
:1013F00063441A80328A02928023DB019A4200D130
:101400009EE00FD9C023DB01029A9A4200D192E0FC
:1014100080231B029A4200D01FE10323069300237E
:10142000079308E080239B019A4200D015E1102326
:1014300006930F3B079333680593F368039373692F
:101440000493337E9B462623F35C9A467368994641
:10145000002B00D1A0E080235B05994500D184E0FA
:10146000737E002B02D0B37E424693732A68029F9C
:10147000D369002BFCD10E3306AA944663441B8823
:1014800042469381059B039A1343049A13434A46A9
:1014900013431F435B461B021F4353465B071F4317
:1014A0002723F35C002B01D104331F43737E9B027F
:1014B000327F52021343727F120213432422B25C22
:1014C000520413432522B25C12041343B17AF27A18
:1014D000114319433389FF2B00D181E0802252044C
:1014E000174319432C23F35C002B03D1624B9B78E9
:1014F0009B0701D580231F432A68D369002BFCD1A9
:10150000434659602A68D369002BFCD143461F60CB
:101510000EAB80221A7000225A70DA709A70336B08
:101520000A93736B0B93B36B0C93F36B02930D9352
:1015300000270AAE63E008230693073B07937AE788
:1015400033680593F368039373690493337E9B4672
:101550002623F35C9A4673689946002B18D08023A3
:101560005B05994501D0002025E02723F35C002B83
:1015700000D075E7336A1F00C0B2404B98470100A6
:101580000E2206AB9C46624438003D4B984712E061
:1015900008230693002307932723F35C002B0ED028
:1015A000069B0093079B0E2206A98C466244B16AF3
:1015B000306A344FB847002800D0E0E650E7336A7D
:1015C0001F00C0B22D4B98470100069B0093079B5C
:1015D0000E2206A88446624438002A4FB847EAE73C
:1015E000F37E002B00D17DE78023DB041F4379E7E6
:1015F0002000254B984707E00137042F0DD0F9B2A2
:10160000BB0098590028F3D0431CF5D00EA90870F0
:10161000000CC0B21D4B9847EEE70023EB602B6136
:101620006B61AB61EB612B62AB626B620022EB859D
:10163000AB853033EA540133EA540133EA540133C1
:10164000EA542868074B984704001149114B984702
:10165000A400114BE550002091E6102306930023CF
:101660000793E8E6114D0000000400402D610000E2
:10167000A16000004D4B00000020004149610000C6
:101680008F4A0000B94A0000994B00002562000013
:10169000391700008D120000C0020020C2791C23FF
:1016A000002A01D118007047C28D92B2173B002A60
:1016B000F8D10368DA69002AFCD1198502211A7E63
:1016C0000A42FCD00023EDE782791C23002A01D1D5
:1016D00018007047828D92B2173B002AF8D1026839
:1016E000107E4007F4D5D369002BFCD1538BDBB2BD
:1016F00098061DD0980703D5022353831833E7E7D4
:10170000580703D5042353831A33E1E7D80703D5D9
:10171000012353831233DBE7D80603D51023538309
:101720003233D5E79B0603D5202353832133CFE7FC
:10173000138D0B800023CBE7F8B58000624BC558B2
:101740002C68E369002BFCD1237EA67D1E4030234C
:10175000EB5C3122AF5C1F40F30722D5EB8D9BB2CF
:10176000002B1CD0AA6A1378DBB2511CA9626979DC
:1017700001290ED09BB2DB05DB0D2385EB8D013BF0
:101780009BB2EB85002B0CD1013323750133A3757C
:1017900007E0517809020B430232AA62EBE701230A
:1017A0002375B30706D50223237500223133EA548B
:1017B000FB071AD4730765D5AB8D9BB2002B5FD0A6
:1017C000638BDBB21A0714D43F221340002B34D0B2
:1017D0009A0711D51A223223EA54303B63837B07E0
:1017E00050D528006B6998474CE02800EB68984773
:1017F000E0E737221340E9E75A0705D51E223223D6
:10180000EA542E3B6383EAE7DA0705D51322322335
:10181000EA54313B6383E2E7DA0605D542223223FC
:10182000EA54223B6383DAE720221A42D7D02132DE
:101830003223EA54123B6383D1E7238DDB05DB0DB2
:10184000DAB2696A0A706A6A511C696269790129A7
:1018500010D0AB8D013B9BB2AB85002B12D1043372
:10186000237500222E33EA54BB070BD528002B69C1
:10187000984707E01B0A53706B6A01336B62E8E715
:1018800004232375F30604D5102323752376FB0662
:101890000ED4B30604D52023237523763B070BD43F
:1018A000330704D5082323752376BB0608D4F8BD77
:1018B0002800EB699847ECE72800AB699847EFE709
:1018C0002B6A28009847F2E7C002002010B50828CC
:1018D00003D880001E4B1B589F46002036E01D4B4E
:1018E000186933E01C4B1B6A9B059B0F1B48D840B3
:1018F0002CE0184B586929E0164B1B6800209B0709
:1019000024D515491022CB681A42FCD0114B1B6814
:101910005B0701D4124819E00E4B1B689B0601D5EA
:101920000F4813E000200F4B98470A4B9B681B049D
:101930001B0C58430AE05023074AD35C00205B0786
:1019400004D5044BD86801E08020000210BDC046D9
:10195000587A00007C0100200008004000127A0044
:10196000006CDC024961000070B50C490B6A047818
:10197000857840780122104080014026B34303431C
:101980002A40D201802083431343032222401202C3
:101990000348034013430B6270BDC046000800407B
:1019A000FFFCFFFFF0B5CE46474680B5194B994680
:1019B0009B6941788C4605780679C77844798078A8
:1019C00001210840800004229343034360460840FD
:1019D000C00004329343034338000840800140278D
:1019E000BB43034330000840C0018026B343034398
:1019F000072005402D02084803402B4321400903DE
:101A0000064803400B434A4693610CBC90469946F6
:101A1000F0BDC04600080040FFF8FFFFFFEFFFFFEA
:101A2000F0B5DE4657464E464546E0B50100264B2A
:101A30009B469B8A4578007842424241914688788D
:101A4000CA7894460A7990464E7B0F7B8C7B8A68D5
:101A50001E494A6101214A4692009146042293435D
:101A60004A46134342460A40D20090460822934316
:101A70004246134362460A401201944610229343A1
:101A800062461343084040012022934303430F4022
:101A9000BF01402083433B430E40F6014030834367
:101AA0003343793805402D02094803402B43214038
:101AB0000903084803400B435A4693823CBC9046B6
:101AC0009946A246AB46F0BD000800407C010020CC
:101AD000FFF8FFFFFFEFFFFF10B5037A9B061B0C1B
:101AE00042899205920D134318494B608379C2795C
:101AF000134342888488224313434278D20113431C
:101B00000B600378042B11D0202B0ED1037B9B0696
:101B1000028A1343C28912040D490A4013430B4A37
:101B2000936011680B4B0B43136010BD037B9B0646
:101B3000028A1343C289120405490A401343034A27
:101B40009360136804210B431360EEE77C010020CF
:101B50000000FF0324040000082803D88000254B60
:101B60001B589F46172044E0234A136A02210B4367
:101B7000136200203DE0204A936902210B439361E8
:101B8000002036E01C4A138A02210B4313820020F6
:101B90002FE0194A938A02210B439382002028E008
:101BA00016490B68022213430B60134B9A841900E9
:101BB0000E32CB681A42FCD0104A91680E4BD962A3
:101BC00052689A6200229A8419001032CB681A4235
:101BD000FCD00A4B1B689BB2074A9384002008E0A4
:101BE000054944228B5C022003438B54002000E013
:101BF000002070477C7A0000000800407C01002033
:101C0000F0B5CE46474680B591B0C222D2005A4BBD
:101C10009A605A4A53681E218B431A390B4353600A
:101C2000022201AB1A700024554DE0B201A9A84769
:101C30000134252CF9D10CA8002303708370802275
:101C400012028260C3700122027103738373053232
:101C5000427043734B4B984705204B4B984746497E
:101C60000222CB681A42FCD043498B8A802213435C
:101C70008B82464C2368DB048A695B0E1B04444854
:101C8000024013438B610AA80123437083700371E0
:101C90000722027000254571C3703E4B984704200F
:101CA000394B984705AB00225D809A71DA7120218B
:101CB00019705A7023689B0E3F2B5AD005A80372E7
:101CC000072303730333C381334B4381FF3B83807B
:101CD000324B0382324B984704A8002545700126F9
:101CE000867005702F4B98470620274FB8472E4B1C
:101CF000984701AC029665702572657205232370C2
:101D000021000120294B994698470120284B9846ED
:101D100098476660657065720423237026722100FF
:101D20000720C8470720C0470720B847124910229C
:101D3000CB681A42FCD0104A938C80210B439384C9
:101D40001C4A0023137253729372D37201A90122A9
:101D50004A604B704B7207330B700A720020134BB2
:101D600098470020124B984711B00CBC90469946FA
:101D7000F0BD203BA2E7C046000800400040004103
:101D80002D610000211A0000591B00002460800012
:101D9000FFFF80FFA5190000FF01000080BBFFFFCF
:101DA000D91A000069190000F55E0000195F0000F3
:101DB000D15F000000040040F0B5C64600B50C003D
:101DC000904600280FD1002A11DD8F18094E0A4DC8
:101DD000306821002B6898470134BC42F8D1404656
:101DE00004BC9046F0BD01235B429846F7E780466D
:101DF000F5E7C046E0020020D8020020F0B5C64654
:101E000000B50E0015000138022810D8002A11D0A4
:101E100000240C4B98460C4F43461868315D3B68D4
:101E20009847002808DB0134A542F5D106E00124DB
:101E3000644203E0140001E001246442200004BC79
:101E40009046F0BDE0020020DC02002030B587B0F3
:101E5000040001AAA0231B01138000239370D370F8
:101E6000FA21C900D180012111710420107253722E
:101E70009372D37211735173144BD381062313746D
:101E8000134D14492800144B98472800134B9847CA
:101E90000120012C01D907B030BD2000104B98471C
:101EA0000300032806D120000D4B984703000120B2
:101EB000032BF0D0002B06D120000A4B9847431E7D
:101EC00098418000E7E70120E5E7C046DE07000013
:101ED000E402002000140040B1100000550F000083
:101EE0006D5D0000A95D000010B5054B9847031E0D
:101EF00004D00320022B00D0023810BD0020FCE7E4
:101F00006D5D0000F0B5DE464F464646C0B584B074
:101F100001900D0014001F00184B98470600012087
:101F2000002E05D104B01CBC90469946A346F0BDD6
:101F300003A90198124B9847B14632007A4312190F
:101F4000039B0133734304209A42EBD8002F11D036
:101F5000730298467B1C9B4601270A4E2A002100EB
:101F60000198B047002807D101374C4445445F45EC
:101F7000F4D1D7E70020D5E70120D3E7A15D000029
:101F8000855D0000C15D0000F0B5DE464F46464667
:101F9000C0B584B001900D0014001F00184B984785
:101FA00006000120002E05D104B01CBC90469946C5
:101FB000A346F0BD03A90198124B9847B1463200E1
:101FC0007A431219039B0133734304209A42EBD8DE
:101FD000002F11D0730298467B1C9B4601270A4EA6
:101FE0002A0021000198B047002807D101374C444E
:101FF00045445F45F4D1D7E70020D5E70120D3E77A
:10200000A15D0000855D0000F55D000010B582B0A7
:10201000140001290BD0002920D002290FD0042060
:10202000032902D101231360002002B010BD01A9D1
:102030000E4B9847019B013323600020F5E70C4BC2
:102040009847431EDBB2012B04D9031FFB2201205A
:102050001342EAD1002323700020E6E7054B98479E
:10206000002801D00320E0E70020DEE7855D0000C6
:10207000A15D00006D5D000000B583B069460F48AA
:102080000F4B98476B46587940051B791B04184342
:102090006B469B78DB0218436B465B785B01184309
:1020A0006B461B785B0818436B46DB88054A9446F1
:1020B00063445B06184303B000BDC046E402002041
:1020C0003910000044F8FFFF10B5002A05D00023A6
:1020D000CC5CC45401339342FAD110BD002A05D020
:1020E00003008218197001339342FBD1704702003C
:1020F00002398369023B0020994203D29078414320
:10210000906A08187047020001000B310020430854
:10211000C001034310781818C0B201328A42F6D1C8
:102120007047000010B5002810D002780923002A5B
:1021300001D1180010BDC2888A42FAD14078044B00
:1021400098470323C007C0170340F2E70923F0E7CD
:10215000E91E000070B504000A000100303140782B
:1021600001231F4DA8470323002801D0180070BD8C
:102170001C4BE35C1B021C4AA25C1A431B4912B2B3
:1021800002238A42F2D16733E35C1B066822A25C19
:10219000120413436622A25C13436722A25C12025C
:1021A00013431B021B0A124A934216D08523E35C99
:1021B0001B068422A25C120413438222A25C1343F6
:1021C0008322A25C120213431B021B0A094A944693
:1021D0006344581E8341DBB2C8E70023C6E7C0460C
:1021E000051F00002F0200002E02000055AAFFFF6D
:1021F00046415400BABEABFFF0B5D6464F46464600
:10220000C0B5150003681C78303C092C0ED85A78EC
:102210003A2A01D000240AE0023303600B20032C89
:1022200005D91CBC90469946A246F0BD0024A300E7
:10223000C54A9E580E60002E00D1E8E03378002B8E
:102240000DD07078C14B98470300C20707D4002017
:10225000002DE6D05B0700D4DBE00A30E1E7002385
:102260003370E0B27070BA4B984703000320DA076E
:10227000D7D4002D02D007305B07D2D40021300024
:10228000B44B984703000024012800D19AE0032BA7
:1022900000D1C0E00D20002BC3D13C33F25C120210
:1022A000013BF35C1343802292001BB29342B8D1EE
:1022B0004723F35C1B02BB3AFF3AB55C1D430DD1CB
:1022C0005723F55C2D06013BF35C1B041D4354238F
:1022D000F35C1D435523F35C1B021D43F561402352
:1022E000F25CF270531E0D20012B9AD83D23F15C55
:1022F000B170002995D04B1E194292D14223F35C54
:102300001B023430305C1843804630810D20434638
:102310001B0700D085E74423F35C1B023630305C9A
:1023200003430DD15333F35C1B065220305C000491
:1023300003435020305C03435120305C00020343D0
:102340003F20305C00023E27F75D0743BA460D2070
:10235000002F00D165E76A4391464246170957446A
:102360004F44BB4200D25CE7D81B7B4B984703002D
:102370000D20002B00D154E7784A9A4292415242F4
:10238000013277498B4248D80233B361E719B7620B
:10239000544434620D204146002900D141E74C44A9
:1023A0007462022A2CD15B006E498C4663445B0A3E
:1023B0000D209D4200D234E701235B4233610023AC
:1023C000F360B6E0F233FF33F35C0D20002B00D155
:1023D00027E7FA23FF33F45C2406013BF35C1B047C
:1023E0001C43FB235B00F35C1C43F823FF33F25CCC
:1023F0001202144321003000564B9847030046E771
:1024000003215943490801200340CB18CCE70C2095
:1024100007E7002005E7012003E70233B361E7196E
:10242000B7625246A21832620D204246002A00D0FE
:10243000F7E65F22B25C12065E21715C09040A4372
:102440005C21715C0A435D21715C09020A4372627E
:102450009B00444A944663445B0A0D209D4200D28F
:10246000DFE601235B4233610023F3607371613364
:10247000F35C1B026022B25C1A43121972613100D4
:10248000303170780123384CA0470322002850D106
:10249000364BF25C1202364BF35C134335491BB2E8
:1024A00003228B4245D13323F35C1B062F32B25CEF
:1024B000120413433022B25C13433122B25C120285
:1024C00013432D4903228B4233D12C4BF35C1B0663
:1024D0002B4AB25C1204134385229200B25C134370
:1024E000284AB25C12021343274903228B4220D1AF
:1024F000264BF35C1B06264AB25C12041343872268
:102500009200B25C1343234AB25C12021343F3609D
:10251000214BF35C1B06214AB25C12041343862252
:102520009200B25C13431E4AB25C12021343336141
:10253000032232701B4A138801339BB21380F3804D
:102540000020F06230716CE694010020E91E00006A
:102550004D1E000055210000A9630000F50F00008A
:10256000F5FF0000FF010000051F00002F02000022
:102570002E02000055AAFFFF5252614117020000CF
:102580001602000015020000727241611F02000075
:102590001E0200001D0200001B0200001A020000C3
:1025A00019020000A4010020F0B5CE4600B582B0AB
:1025B00004000F00C56A8D423FD00379002B07D17C
:1025C0000023002F2CD1180002B004BC9146F0BDAE
:1025D00030239C468444634661460193407801233E
:1025E0002A00174EB04701230028ECD100232371A5
:1025F000236AE269944663449D42E1D2E678012E63
:10260000DED90F4B9946E3699C4665446078012307
:102610002A000199C847013EF6B2012EF3D1CFE757
:1026200021003031607801333A00064DA84701237C
:102630000028C8D1E7620023C5E70023C3E7C046EE
:10264000891F0000051F0000F8B505000C000129D6
:1026500074D90120AB69994271D22B78022B34D006
:10266000032B49D0012B02D00120404267E04E08E5
:102670007618710A2B6A9C4661442800304B9847B3
:10268000002802D00120404259E0F305DB0DEB1891
:1026900030331F780136710A2B6A9C46614428004A
:1026A000274B9847002802D00120404247E0F6051A
:1026B000F60DAD193035287800023843E30701D50F
:1026C00000093CE00005000D39E0090A2B6A9C4630
:1026D000614428001A4B9847002802D0012040424C
:1026E0002DE06400FF235B001C402D1930356B7812
:1026F0001B022878184322E0C9092B6A9C466144D2
:1027000028000F4B9847002802D00120404216E0D5
:10271000A400FE235B001C4023003033EB18D87864
:1027200000069A78120410432C1930342278104392
:102730005B781B0218430001000900E00120F8BD8E
:10274000A9250000F8B504000D00E1808168022091
:10275000012903D023689A69914200D3F8BD00296A
:1027600019D11A78032A13D00022E2601A890220B4
:10277000AA42F3D92A0992B25B6A9B1823612368A3
:1027800030330F2215406D015D1965610020E5E7CA
:10279000596A0029E8D09E783601B54213D3AD1BA3
:1027A000ADB2104F00E01D002068B8470100431C87
:1027B00012D0012812D923689B69984210D2AB1B12
:1027C0009BB2B542EFD2E1602068074B98472B09D6
:1027D0009BB218182061D2E70120BFE70220BDE7B5
:1027E0000220BBE749260000EF200000F0B5C646F6
:1027F00000B507000C0016000225012902D98369E3
:10280000994203D3280004BC9046F0BD0378022B04
:1028100053D0032B63D00225012B02D001233B713F
:10282000F0E74B08984688444346590A036A9C4699
:1028300061443B4B9847051EF0D14346DB05DB0D59
:10284000E2071FD5FB18303319780F220A403101F7
:10285000FF20000101400A431A704446013401235D
:102860003B71610A3B6A9C46614438002C4B984797
:10287000002851D1E405E40D3609F6B23C19303494
:102880002670CBE7FB1830331E7044460134012319
:102890003B71610A3B6A9C4661443800204B984773
:1028A00000283BD1E405E40D3B1930331B780F229F
:1028B00093433605360F1E43E0E7090A036A9C4638
:1028C0006144174B9847051EA8D16300FF2464009C
:1028D0002340FB1830331E70360A5E709EE7C9092C
:1028E000036A9C4661440E4B9847051E96D1A4008E
:1028F000FE235B001C4022003032BA18D3783C190A
:1029000030341B091B071E432670330A5370330CE7
:102910009370360ED67081E705007FE705007DE7EE
:10292000A9250000F0B5C64600B505008846002977
:1029300007D1C668002E0DD083699E420BD30126B5
:1029400009E0264B984701283DD9AB694646984295
:1029500001D23DE001263400204F0AE0210028008A
:10296000B84700280DD0431C32D0012830D0B442E3
:102970002DD00134AB699C42F0D3012E25D902241D
:10298000ECE7174A21002800164B9847002813D17E
:102990004346002B09D1EC602B695A1C1BD0013B2C
:1029A0002B6101236B71200012E0220041462800B8
:1029B0000C4B98470028EED0013842424241504229
:1029C0000123184304E0012002E0002000E0002081
:1029D00004BC9046F0BD2000FAE7C046492600003E
:1029E000FFFFFF0FED270000F8B5CE46474680B544
:1029F00004000D000220012902D9A369994203D3E2
:102A00000CBC90469946F8BD134F144B98460123D1
:102A1000994603E03500A369B342F1D929002000AB
:102A2000B847061E11D0012811D0431C11D0002236
:102A300029002000C0470028E2D123695A1CE9D0B0
:102A4000013323614B466371E4E70020D8E702209D
:102A5000D6E70120D4E7C04649260000ED27000054
:102A6000F8B5D646474680B506000D00C488013447
:102A7000A4B20420002C03D10CBC90469A46F8BDA9
:102A80003369002BF8D00F2727400FD10133336172
:102A9000F168002904D133681B89A342ECD905E011
:102AA00030688378013B22091A4207D0F4803368EA
:102AB00030337F01DF1977610020DDE72C4B984729
:102AC000804602204346012BD6D901334BD03368D0
:102AD0009A6990453FD30230002DCDD0F16818009F
:102AE000244B9847804607204346002BC4D0053826
:102AF000012BC1D001380133BED0002130681E4BFC
:102B0000984703000120002BB6D130683030802276
:102B100092000021194B9847356841462800184B10
:102B20009847E862002501239A4633689A78AA42BA
:102B30000ED952461A71002130680F4B9847002871
:102B400013D13268D36A0133D3620135EDB2ECE7B9
:102B5000DA6A521BDA624346F36041463068084B3A
:102B600098473061A2E7012086E7012084E7C0464C
:102B70004926000025290000A9250000DD200000CD
:102B8000EF200000F0B5DE4657464E464546E0B51C
:102B900083B0050000215A4B9847071E00D09EE0E5
:102BA000FF2399469A46574B9B461BE00F2B30D08C
:102BB0005346002B05D12000534B9847814500D147
:102BC0008DE001235B422B84A869C37ADB0700D424
:102BD0007DE0FF239A46002128004C4B9847071EB2
:102BE00000D07CE029692868D847071E77D16C6936
:102BF0002678002E00D180E0E27A3F231340E52EB4
:102C000000D177E01207D1D50F2B02D0FF239A46CF
:102C1000E1E7EF69002FDED0730618D5637B994694
:102C200040239E43EB882B84637B0093FF229246D4
:102C30004B45D0D12378BF3A9343013B5A00D21879
:102C4000920092469A440122002399461DE0B24523
:102C5000EAD0FF239A46BEE72D4B98470190534692
:102C6000FE2B1FD801235344984653465B00D85B84
:102C7000274B98470200019B834213D1C246012390
:102C80009C46E1444B460D2B11D0224B4946C95C72
:102C900063185B781B02605C1843002ADCD11E4B72
:102CA0009842ECD0009B9946FF239A4693E72378FD
:102CB0005B0606D5002A04D053465B00DB5B002B85
:102CC000F0D1013EF3B29A46009B994683E7002378
:102CD000E15CC25C91420AD101330B2BF8D1380080
:102CE00003B03CBC90469946A246AB46F0BDFF23DC
:102CF0009A4670E7FF239A466DE70427EFE7C04640
:102D000045270000A925000007210000612A0000D6
:102D10009D3A0000A07A0000FFFF0000F0B5DE46FB
:102D200057464E464546E0B589B004008769C369F9
:102D30009A4605AD0C2239002800A74B9847EB7A3C
:102D4000DB0700D470E00023FB72E3610B2205A9CE
:102D50003800A14B9847012303AD1E00A04649E06F
:102D6000013829184A701B099BB2002B07D021009B
:102D700019400A003032392AF2D90732F0E77E339F
:102D80002B5400280AD03B78202B09D00023013394
:102D9000984207D0FA5C202AF9D109E0030007E045
:102DA000002305E0030003E0FA540133072B05D8A4
:102DB00020220728F8D82A5C0130F5E74046874BE7
:102DC000984700281CD10136B6B2642E15D00B22CC
:102DD00005A93800804B98473300052E0AD9514683
:102DE0005A08DB0313430A889B189BB202310A88F6
:102DF000002AF5D107200F24B9E70723984606E0FB
:102E000044468046642E00D1A5E0042807D0404601
:102E100009B03CBC90469946A246AB46F0BD05AB16
:102E2000DB7AFB725346E36105ABDB7A0122934602
:102E30009B0711D553461B88002B1BD00020524600
:102E4000013080B243009B5A002BF9D119300D217B
:102E5000634B984783B29B4600212000614B984703
:102E600080460028D3D1824600255F4F00265F4B65
:102E700099460BE00020E9E76B1C9BB29B456DD0A7
:102E80001D0001212000C847002812D121692068B7
:102E9000B847002800D098E063691B78E52B01D083
:102EA000002B04D1002DE7D1E3889A46E4E73500F2
:102EB000E7E78046ABE7514620004A4B98478046FB
:102EC0000028A4D1A0694A4B98470190A8461FE06A
:102ED000220067E05E46644646498B4203D05200BA
:102EE000935B002B03D140234A461A4391464B463D
:102EF0000370012322681371002120003B4B984787
:102F0000002866D14546013DABB29846002B27D03C
:102F100021692068344B9847002858D1E6696069D8
:102F200043466A46D370D3789946137943730F2387
:102F3000C372002303738376C3764B46013B5A006A
:102F4000D2189200D2182C490D000D350023294FBC
:102F5000B346A44629E00723984658E7012BAAD890
:102F600021692068204B98478046002800D04EE712
:102F70006569202200212800204B98470B22A16977
:102F80002800154B9847A369DA7A182313402B734E
:102F9000236801221A713AE70C78FF2606550419B6
:102FA000FF2666700131A94294D0BB42F4D0541C74
:102FB00052005B46D35A0A78835482181E0A567010
:102FC000002B85D122003B00ECE780461FE78046BE
:102FD0001DE780461BE7C046C9200000852B000086
:102FE000BD64000045270000A9250000612A0000FB
:102FF00007210000FFFF0000A07A0000DD20000094
:1030000070B5040000212C4B984700280AD1237882
:10301000032B08D0607800220021284B9847431EDC
:103020009841C0B270BD6379002BF3D00026E662F0
:10303000250030358022920000212800204B98473F
:103040005522204BE25455321F4BE254DE3BFF3BEE
:103050007A3AA3540132A3540F330132A3540F32EE
:10306000332162543F318520800021541748215478
:1030700017496254174AA35423690132A354190A09
:10308000154AA154190C154AA1541B0E144AA354F5
:10309000E3680132A354190A124AA154190C124AC6
:1030A000A1541B0E114AA3546078012362692900C0
:1030B0000F4DA8476671ADE7A92500000D2000005F
:1030C000DD2000002E0200002F020000150200008B
:1030D0001602000017020000190200001A02000088
:1030E0001B0200001D0200001E0200001F02000063
:1030F000891F0000F0B5DE4657464E464546E0B50E
:1031000083B082460D000B782F2B0FD05C2B0DD097
:103110000023524693602B7857461F2B09D8002175
:103120005046B24B984700237B613AE10135EFE707
:10313000013528782F28FBD05C28F9D0FB699A4606
:1031400080B21F2800D83BE12F2800D13BE15C284A
:1031500000D13BE16E1C012480235B009846BB46F6
:103160002B00250034005646994611E0002B35D13E
:1031700030806B1C20781F281ED92F2800D128E111
:103180005C2800D142E102360134434526D01D00BF
:103190000121974B9847011E20D07F28E8D822288C
:1031A00000D1FDE02A23934A9FB28F42DED0013244
:1031B0001378002BF8D1DBE72C005F464D46ED1865
:1031C00004260BE1013C023B002C00D1E8E01A8808
:1031D000202AF7D02E2AF5D0002C01D10620E0E0DD
:1031E0006300984600235246414653520B22202149
:1031F000B869814B98475246002301E001330232FF
:1032000011882029FAD02E29F8D0002B01D00322D2
:10321000164352464244023A12882E2A09D04246A8
:10322000043A5244013C002C03D0023A51882E2922
:10323000F8D108220192002293469146A04606E06A
:10324000444500D1E6E003231E43F6B223005C1C94
:103250005B005246985A00282CD02028F3D02E2804
:10326000EED0019B9B4519D2444500D1D2E07F2886
:103270005ED82B286ED02C23604A99B2814267D049
:1032800001321378002BF8D10300413B9BB2192B7C
:103290006CD802234A461A4391465FE0019B0B2BF0
:1032A0003BD0444500D1B9E003231E43F6B2444568
:1032B00000D8B3E0BB691A78E52A36D0019B082B09
:1032C00060D00C234A4613400C2B60D0D2439207A7
:1032D0005DD0B20706D4032249460A40012A59D0DC
:1032E000042B5AD0BB69DE723800454B9847BB6946
:1032F000DB7A00285CD15B0753D47A69D37ADB068A
:103300005CD5517D0902137D0B431B04D17E09025C
:10331000927E0A431343BB600BE703231E43BB6942
:103320001A78E52ACDD10B22019205221A70C5E741
:1033300000212F4B9847002800D179E0314B9C4663
:1033400060448038007802231E43002802D090E7B2
:10335000002B99D003231E43F6B25F20BB695A4667
:103360009854230001229446E34470E70300613B34
:103370009BB2192BF2D801234A461A4391462038B2
:1033800080B2EBE74B469B00DBB2994699E70222FD
:1033900016439EE70F321643A2E704331E43A1E70C
:1033A000062003B03CBC90469946A246AB46F0BD11
:1033B0000428F6D15B07F4D40130F2E70520F0E7EA
:1033C00001230024FBE60123002405E0012300245F
:1033D00002E02C005F464D46ED180026002CDFD0A1
:1033E000094BE3185B005344F1E6C0464527000053
:1033F000553A0000317B0000DD2000003D7B0000DD
:10340000852B0000B07A0000FFFFFF7F2C005F4695
:103410004D46E1E7019B0B2B00D17EE74B469B001D
:10342000DBB2994643460B220192033A93460EE7DC
:1034300002231E438EE7C0460B23032801D9180040
:1034400070478300074A9B58002B01D000221A7056
:10345000002901D000230B708000024BC1500023D3
:10346000EDE7C04694010020F0B5C64600B5594CC2
:10347000A544050001911700002303601F26164094
:103480001E223A4085A901A8534B984782AB8B93E3
:1034900002AB8C93002806D08A9C1C233B4245D16A
:1034A00000283DD10CE0019985A84C4B98478A9C97
:1034B0000028F2D1002C00D186E01C233B4246D1EB
:1034C000E37A0420DA062BD4BA0702D50330DB07EF
:1034D00026D43B0701D520231E43859BDB6AEB6185
:1034E0002C62AE71627D1202237D13431B04E17EC8
:1034F0000902A27E0A4313432B61E37F1B06A27FCE
:1035000012041343227F1343627F12021343EB60C2
:103510000023AB60AB61859B2B60DB88AB80002018
:103520008E239B009D4404BC9046F0BD042805D02A
:1035300008231E438A9C0028D3D0F1E785A8284B96
:10354000984708231E438A9C002808D0E8E7E37ABE
:10355000112207201A42E3D101307B07E0D4330760
:10356000BBD5204B9847A073030AE373030C237465
:10357000000E60740023E37223776377A377E37709
:10358000627D1202277D17433F04E17E0902A27E7D
:103590000A431743A376E376237563758598013351
:1035A0000371002F97D0C36A984639000E4B984795
:1035B0000028B5D18598013FC76041460B4B98471D
:1035C000002800D187E7ABE71C2306203B42B2D09E
:1035D0000620ADE7C8FDFFFFF9210000F53000002F
:1035E0001D2D000079200000E9290000A925000018
:1035F000F0B5DE4657464E464546E0B583B004007A
:103600000D001600994600234A4613608188006821
:103610007F4B98470090002800D0F1E0A3795AB280
:10362000002A00DAEAE09B0702D407230093E7E0D0
:10363000E3689A19934210D8002E0ED02F007BE039
:103640000021744B98470300206103E06169714BCE
:1036500098470300002B00D080E0A368E268934203
:1036600000D9E360A37920221343A371C8E0A279B3
:10367000813B1343A37102230093C1E0A2797F3BF6
:103680001343A37101230093BAE00021624B9847D2
:1036900000286DD0A27980235B421343A3710123DC
:1036A0000093ADE0A27980235B421343A371022310
:1036B0000093A5E0A27980235B421343A371012309
:1036C00000939DE0400239183033180080229200A8
:1036D000524B984700232268137172E0A368E26896
:1036E000934271D24346A361A368DD05ED0D8023AB
:1036F0009B005D1BB54200D93500A1692068464B8F
:103700009847002872D1A368D805C00D30302368CF
:103710009C4660442A003900404B984701232268A8
:1037200013717F19A3685B19A3604B461B685B1973
:103730004A461360761B90D0A368DA05D4D120687E
:103740008278013A5D0A1540EDB2002D0BD1002BB5
:1037500000D07BE72369002B00D171E7012B86D0D5
:103760005A1C8BD063612068C36AA26993428CD0D3
:1037700023689A4661691800294B9847002891D020
:103780008046A844730A9B46A8D053469B785A4665
:10379000AA189A4201D95B1B9B465B466A46D371C5
:1037A000D37952465078424639001E4DA84700282A
:1037B00000D07FE72368DA6A4146501A834500D972
:1037C00080E75B465D02ACE700215046124B98470C
:1037D000002803D123684246DA6283E7A279802376
:1037E0005B421343A3710123009309E0A279802374
:1037F0005B421343A3710123009301E00223009372
:10380000009803B03CBC90469946A246AB46F0BD3A
:103810002521000025290000A9250000C92000005D
:10382000EF200000891F000070B504008188006847
:103830001C4B9847002802D1A3799B0600D470BD89
:10384000E1692068184B98470028F8D1256AEB7A7F
:1038500020221343EB72237B2B77A3891B0A6B7700
:10386000E389AB77E37BEB77237CAB76238A1B0A78
:10387000EB76638A2B75638A1B0A6B750B4B984733
:10388000A875030AEB75030C2B76000E6876A379F6
:1038900020229343A3710123226813712068044BF3
:1038A0009847CCE725210000A925000079200000D9
:1038B0000130000010B50400034B9847002801D1E7
:1038C0000023236010BDC04629380000F8B5DE464D
:1038D00057464E464546E0B504000E008188006814
:1038E000574B9847051E00D0A2E0A3795AB2002A90
:1038F00000DA9CE0E268B24202D29B0700D41600D4
:10390000A0680023A360002E00D191E023689946AF
:103910009F787F02002813D0431E9846701E494BA3
:103920009A4639009847834639004046D047834538
:1039300006D3784243460340A360F61A606903E069
:10394000206900280BD06061002860D0BE423AD9BF
:10395000022398463C4B9A463C4B994629E000216D
:103960004846394B9847012803D0431C08D02061B2
:10397000E9E7A27980235B421343A371022557E054
:10398000A27980235B421343A371012550E001001B
:103990002068C847431C28D001282DD923689B697B
:1039A000984229D26061A368DB19A360F61BB74275
:1039B00009D2A37942461A42E9D001002068D047D3
:1039C0000028E7D13E00A3689B19A360F3051DD032
:1039D000010020681E4B9847002814D1A27980234B
:1039E0005B421343A371022522E0A27980235B424C
:1039F0001343A37101251BE0A27980235B4213438B
:103A0000A371022514E0760A301800E00020A368B4
:103A1000DA0503D0A269904200D0A061E268934227
:103A200006D9E360A37920221343A37100E00225A5
:103A300028003CBC90469946A246AB46F8BDC0461D
:103A400025210000A9630000252900004926000067
:103A5000EF20000003007F2811D9002911D1C728C9
:103A600017D00D4A023201231188814204D001335C
:103A70009BB20232802BF7D18033FF200340180025
:103A800070470023FF28FAD880384000024BC35A01
:103A9000F5E70023F0E7C046447B0000612814D01E
:103AA0000B4B043301216222904207D001310233D3
:103AB0009A1E1288002AF7D1030004E0031E02D0E8
:103AC0004900044BCB5A180070470021F8E7C04664
:103AD000447C0000247E00000122014B1A707047D4
:103AE000B5010020F0B591B00FA901254D70002659
:103AF0008E700D701420284FB84780225203274B38
:103B00009A61274C2F2323706670A6706B465D70F8
:103B10009E701D7069462F20B8472278D109002376
:103B2000002904D15309DB011C498C4663441F2141
:103B30001140012210008840986101AC22700023DE
:103B40000293039323746374A274E2742375233283
:103B5000A354183A002107A8124B984780239B03CF
:103B6000E360114BA362114BE362114B236301230A
:103B70005B4263630F4BA3610F4D22000F49280086
:103B80000F4B98472A68D369002BFCD11368022198
:103B90000B43136011B0F0BDD15E00000044004142
:103BA0007403002097690000020010000200110059
:103BB0000200120020A10700F0020020000C0042C9
:103BC000CD4D000010B586B001AA1B4B13CB13C21C
:103BD00011001A680A609B888B80184C8C22920016
:103BE00000212000164B984721000020154B9847D4
:103BF00000230B281DD00A2201A91348134B984714
:103C0000002811D16B462C2211490F48114CA047B6
:103C1000012300280DD001000F48104B98470A4897
:103C20000F4B9847002304E001000E480B4B9847C8
:103C30000023180006B010BD4C8000009007002043
:103C40009769000039340000FC020020693400004C
:103C50003C000020F135000024800000A96900002C
:103C6000B53800000480000070B582B0154C022306
:103C7000E3820E3363840C3B2384134BA361134B09
:103C8000E361134E33681B01DB08A36224336360D6
:103C9000104D00212800104B984701AB2C22210029
:103CA00028000E4CA047040028000D4B9847002325
:103CB0003360802252010B4B9A6160426041C0B276
:103CC00002B070BD3C00002044AC000010B1020006
:103CD000AC010020FC020020CD380000F1350000CE
:103CE000B538000000440041F0B5CE46474680B5E7
:103CF00089B06B4B00251D705D709D70DD700126D5
:103D00001E71684B9847684B984702ACA0231B0173
:103D10002380A570E570FA23DB00E38025726572CD
:103D2000A572E57226736673E381062323742671F8
:103D30005E4F22005E4938005E4B984738005E4B6C
:103D400098475E4B6A46D3800223984699466B4655
:103D500042465A711A710B236A4693701C33537092
:103D60000333137069463800554B98473800554B5C
:103D70009847554B9847554B9847554B9847554B47
:103D80009847554B9847554B9847554B98472000B7
:103D9000544B9847032363704346A370524F21004E
:103DA0003800524B984726706570A570E5706671B3
:103DB000A571E57165612571434623814C4B1B68F4
:103DC0002833E3604B4B023323614B4D2100280025
:103DD0004A4B984729003800494B9847494BBB60EC
:103DE0003B7C4A4613433B743A7847498B5C4846D0
:103DF00003438B54454B1E70BFF35F8F62B6444E36
:103E0000444B98460024444D48E0B047002817D062
:103E1000C047002802D00122404B1A70404B1C7052
:103E20000EE0404B984700280ED13F483F4B984743
:103E30000AE03F4B1B78002B17D13B78002BE4D1D5
:103E40003C4B1B78002BECD1344B1B78002BF0D073
:103E500080235B01384AD3616B61384B1C602F4B68
:103E60001C700122324B1A70E3E780235B036B6105
:103E7000012233491E48334B98471B48324B984721
:103E8000324A1378002BFCD022002D4918482D4BC4
:103E9000984780235B03AB61254B1C70204FCCE718
:103EA000040B00205962000011550000E4020020BC
:103EB00000140040B1100000550F0000E2070000A0
:103EC000211000006D1100008142000055430000E8
:103ED0008D4100002143000011070000513F000008
:103EE000E53A0000C901000058030020D901000094
:103EF000F00200202003002080030020A90300001E
:103F000051040000D93A000050010020690000204F
:103F1000553F0000C53B000000440041B1010020B6
:103F2000B3010020693C000060800000A969000026
:103F3000B2010020B401002080440041A80100200B
:103F4000740300201952000021030000B501002075
:103F500070470000F8B52C4C2C4D28E02C482D4E15
:103F6000B0472D48B0472D4E0020B0470228FBD166
:103F70002B4B80225201DA6180221202DA6100208A
:103F8000224B98479622520000230021254EB0472D
:103F9000254A002380185941244A0023244EB04763
:103FA000244B9847244B1878C0B2002824D0002016
:103FB000A04706000128D1D0194B80225201DA61B6
:103FC00080221202DA610020A847962252000023C4
:103FD0000021144FB847144A002380185941134A4E
:103FE0000023134FB847134B9847134B1878C0B2B0
:103FF000002801D0002EDAD1094B802252019A61AB
:10400000802212029A61F8BD15550000156000006B
:1040100080800000A969000098800000310700003E
:104020000044004151670000571B0000581B00006E
:104030001167000001000020B301002070B582B0BC
:1040400005000E0000226B46DA80064C6B46991D77
:104050002800A0470028F9D16B4606331B8833702F
:1040600002B070BDC916000070B505008CB2034ED9
:1040700021002800B0470028FAD170BD9D1600002D
:1040800010B5184B1B6ADB0000D510BD0020164B85
:104090009847642200230021144CA047144A0023AF
:1040A00080185941134A0023134CA047134B9847DB
:1040B0000C4B1B6ADB00E8D4114B1B78002B07D19B
:1040C000104B1B78002B03D101220E4B1A70DCE73A
:1040D00000230C4A13700A4A137001220A4B1A700B
:1040E000D3E7C0460044004115600000516700005E
:1040F000571B0000581B0000116700000100002042
:10410000B2010020B3010020B401002010B5174B0C
:104110001B6A1B0700D510BD0020154B9847642271
:1041200000230021134CA047134A00238018594153
:10413000124A0023124CA047124B98470B4B1B6AA4
:104140001B07E8D4104B1B78002B07D180221202EA
:10415000064B5A6101220C4B1A70DCE780221202D6
:10416000024B9A610022084B1A70D4E700440041C8
:104170001560000051670000571B0000581B00002D
:104180001167000001000020B0010020F0B591B0DF
:104190008023DB05009300230193FF2269460A81F7
:1041A00000228B72CB7201242421684644540131D1
:1041B000445401314354013143540A93053143546B
:1041C0000131435405930382C37602760277427627
:1041D00013238376427780235B0303931A4B0C935C
:1041E0001A4B0D9301235B420E930F93E1235B0265
:1041F0000893174D174B1D60174A184B1A60184A41
:10420000184B1A606A4618492800184B9847184FEF
:104210003B6898680021174EB0473B6858680021FA
:10422000B0472E683000144B98471F231840844035
:10423000124B1C602A68D369002BFCD13368022220
:104240001343336011B0F0BD0200160002001700E6
:1042500024030020E002002069400000DC0200206E
:104260003D400000D8020020001400425913000015
:104270006C000020DD690000C912000000E100E0D0
:10428000F0B5C64600B584B003AC012565700026C4
:10429000A670257021000C201D4FB8471D4B984675
:1042A00080235B014246936121000D20B8478023A3
:1042B0009B014246936121000F20B84780231B02D7
:1042C0004246936121002C20B8476846124B98471C
:1042D0001C23009301966B461D720324DC72694611
:1042E00008200E4FB8470223009301966B461D72BB
:1042F000DC7269460220B847009401966B461D7235
:10430000DC7269460320B84704B004BC9046F0BD97
:10431000D15E000000440041C90E0000DD0E000027
:1043200010B5002208210748074CA04700220321AE
:104330000648A04700210820054CA0470021032083
:10434000A04710BD81400000354900000D4100002C
:10435000614900008022D205014B9A617047C04636
:10436000804400417047704770477047F0B5DE46A3
:1043700057464E464546E0B583B0C24B1F683D6880
:104380002B78DB0914D12E8CB6B2002E00D0A9E117
:10439000AE8BB6B2AB235B00FB5AAA225200BD5AC9
:1043A0001D4035400024B84FB64B9946984684E1ED
:1043B0002B8C9BB2002B00D1DEE0288C80B2B34B5B
:1043C000984704001F2800D9D6E0030008335B019A
:1043D000ED18ED79EDB2AB0741D0AD4A0123834032
:1043E000116899431160030008335B013A689446F1
:1043F00063440322DA713B18AE331B78DB072ED5FA
:10440000A44B18703A68030008335B019B5C9B0760
:104410009B0F012B00D181E042019F4B9B185A68F2
:104420001201920C90B29B494A805A689204920CF5
:104430008A805A6899490A405A60002807D1620167
:10444000954B9B185B689B049B0C924A53808D4B49
:104450001868A31C1B01C3185B688E4998476B073B
:104460000ED58B4A0123A340116899431160854BF7
:104470001B681B682200083252019B180422DA7163
:104480002B0714D5824A0123A34011689943116078
:104490007C4B1868230008335B0102689446634430
:1044A0000822DA710319AE331B789B0747D4EB0659
:1044B00014D5774A0123A340116899431160714BC9
:1044C0001868230008335B01026894466344102295
:1044D000DA710319AE331B785B073ED4AB0600D408
:1044E000B0E06B4A0123A340116899431160654B0A
:1044F0001868230008335B01026894466344202255
:10450000DA710319AE331B781B0700D49AE06149B6
:104510000C7024010419236B984793E042015E4B11
:104520009B185A689204920C5A494A805A681201A0
:10453000920C8A805A68920B92035A6087E7554919
:104540000C706201544B9B18DB891F2213404B7087
:104550002301C3189B6A9847A9E74E490C70620172
:104560004D4B9B185B681B019B0C4B802301C318B0
:10457000DB6A00219847B1E7AC8BA4B2630705D58D
:104580000423AB83A133FB5CDB0762D423070BD589
:1045900000223F4B1A603B4B186808230268938344
:1045A0009D33C35C9B0758D4630608D5354B186808
:1045B0004023026893836533C35CDB0650D4A306B3
:1045C00008D5304B18682023026893838533C35C79
:1045D0001B0748D4E30608D52A4B18681023026845
:1045E00093839533C35C5B0740D423060BD500222D
:1045F000274B1A60234B1868802302689383253366
:10460000C35C9B0635D4E3050CD50022204B1A6011
:104610001C4B186880235B00026893835B3BC35C80
:104620005B0629D4A3050DD50022194B1A60154B42
:10463000186880239B00026893835C3BFF3BC35C4C
:104640007F2B1CD803B03CBC90469946A246AB4693
:10465000F0BD7B683800984798E783689847A3E7E0
:1046600043699847ABE703699847B3E7C36898473E
:10467000BBE783699847C6E7C3699847D2E7036AEF
:104680009847DFE7B8010020C0800000D166000035
:10469000C8010020CC010020000A0020FF3F00F0EC
:1046A00023002E339B00424612689B589E49424687
:1046B000106898470134072CC4D06300DB5B334299
:1046C00003D04A461268126893832B42F2D0062C1C
:1046D000E6D1964B1B891B09802252001340924A57
:1046E0001360DDE73C005934FF3400230122944677
:1046F0005F329146503A92460D3A9346B8462F00A3
:10470000B9E02A003D00474690465B01ED180823BA
:10471000FF33EB5C5B0616D540220823FF33EA54D7
:10472000883BFF3B42461343814A937160230B420F
:1047300000D187E7019B1B01FB18E0331B687C4914
:10474000380098477EE70823FF33EB5C9B06EDD5E6
:1047500020220823FF33EA54754B42469A71E5E75D
:104760003D004746019A130008335B01ED18102302
:10477000EB71BB186133FF331B78DB0600D461E7B4
:1047800010005201694B9B185B689B049B0C6849A5
:104790000B800301FB18DC331B684046984751E748
:1047A0002A003D00474690465B01ED180823FF3381
:1047B000EB5C9B071ED502220823FF33EA545C48BA
:1047C000883BFF3B424613438371019B5A01574B81
:1047D0009B1810335B689B049B0C43808B0700D1B4
:1047E00030E7019B0D331B01FB185B685049380013
:1047F000984727E70823FF33EB5CDB07EED5012260
:104800000823FF33EA544A4843468371019B5B0106
:10481000464AD21853689B049B0C038053681B01C3
:104820009B0C8380DAE70822FF329A5C52076ED530
:1048300004200822FF329854019842013B4B9B18F8
:104840009B7A9B0705D5394B9B189A7A02208243A5
:104850009A72374B42469A71019B08335B013A6862
:1048600094466344DB79DB0751D5EBE60133013431
:10487000082B00D1E6E6DDB2019332001A41614611
:104880001142F3D01A0008325201BA18D279D2B2CA
:10489000217A1140207801404846104200D030E78C
:1048A0005046104200D05BE75846104200D077E7F0
:1048B0000C201042DAD02A003D00474690465B01AA
:1048C000EB180822FF329A5C1207ACD50438082294
:1048D000FF32985401984201144B9B189B7E9B0712
:1048E00005D5124B9B189A7E022082439A7680232C
:1048F0005B42424613430E4A9371019B08335B01AE
:104900003A6894466344DB799B0700D59AE60C230A
:104910000B4200D196E6019B1B01FB18D8331B68A4
:104920000349380098478DE6BC010020000A0020AA
:10493000C00100201723002A01D0180070478B0007
:10494000064A9B58002B03D0834205D01D23F4E771
:10495000890088500023F0E70023EEE77C02002066
:104960001723002901D01800704700221F2800D803
:10497000024A01238340D3600023F4E7001800407B
:1049800070B50022104B1A70002310491F25104EDD
:104990000D4C0AE00D4908E023780133DBB22370A7
:1049A0000F2B10D800211F2BF4D92800184001220A
:1049B000824008691042EFD00A619B009B59002B8E
:1049C000EAD09847E8E770BD000B002000180040CF
:1049D0007C020020F0B5DE4657464E464546E0B51F
:1049E00087B08046049116001F000022002300219A
:1049F0008B463F2401202100009601975C460394DA
:104A00004446059413E02024641A0500E540A846B6
:104A100014E0009C019D121BAB415C464D462C43AB
:104A2000A346039C45462C430394013925D32024F7
:104A300064420C19E7D40500A540A84604008C4048
:104A4000A14692185B4114001D00059E4F463E4052
:104A5000B446049E47463E40B246664657463E43ED
:104A600003D00600264332002B00009C019D9D428E
:104A7000DBD8CED19442D8D8CBE7039B5846190057
:104A800007B03CBC90469946A246AB46F0BD10B577
:104A9000490840230024814202D2180010BD1C00A6
:104AA000091A631C9BB28842F9D94023FF2CF4D821
:104AB00014800023F1E70000F0B583B00F0016006A
:104AC00008AA117804004C434022BC4202D91000CD
:104AD00003B0F0BD002B14D1020008000021194CD6
:104AE000A04701003A0000230020174CA0470022F5
:104AF0000123121A8B41120C1B041A43328000222C
:104B0000E5E70022012BF9D10A00002300210D4C1A
:104B1000A04702000B0000920193380000210A4CCC
:104B2000A047050080239B0140229842CFD8790FEF
:104B3000F800009A019BA047EA00821AD2B2520301
:104B40002A43DBE751670000D549000010B582B069
:104B500004000E4B1B78002B07D0002905D10B4B0E
:104B60005B78834210D01D200CE001A90C7013204B
:104B7000074B98471320074B9847044B5C70012262
:104B80001A70002002B010BD0020FBE7D401002005
:104B90002D610000A1600000404B984231D00AD93D
:104BA0003F4B98424DD03F4B98425AD03E4B984293
:104BB00037D0002070473D4B98420CD03C4B984278
:104BC000F7D1012917D000295DD0022915D003297A
:104BD00015D00020EEE7012907D0002951D0022985
:104BE00005D0032905D00020E4E73248E2E7324847
:104BF000E0E73248DEE73248DCE73248DAE73248BD
:104C0000D8E7012907D000293FD0022905D0032980
:104C100005D00020CEE72D48CCE72D48CAE72D4827
:104C2000C8E7012907D0002931D0022905D003297E
:104C300005D00020BEE72848BCE72848BAE7284846
:104C4000B8E7012907D0002923D0022905D003297C
:104C500005D00020AEE72348ACE72348AAE7234865
:104C6000A8E7012907D0002915D0022905D003297A
:104C700005D000209EE71E489CE71E489AE71E4884
:104C800098E71E4896E7032094E71D4892E71D48E1
:104C900090E71D488EE71D488CE7C0460010004293
:104CA00000180042001C00420014004200080042AC
:104CB000000C00420300050003000600030007008B
:104CC0000300010003001E0003001F000300090091
:104CD00003000A0003000B00030011000300120090
:104CE0000300130003000D0003000E0003000F007B
:104CF000030017000300180003001900030004005C
:104D0000030008000300100003000C00030016005D
:104D100030B587B00B4B6A4632CB32C232CB32C28F
:104D2000009B83420BD001239A006946525882426D
:104D300006D00133062BF7D1002007B030BD002389
:104D4000D8B2FAE7D080000070B582B006000D003E
:104D500000226B46DA800468E369002BFCD18F33B4
:104D60002375237623680222934323603068C36946
:104D7000002BFCD1124B98471430C0B2114B98470E
:104D800001006B469A1D28000F4B9847002802D05F
:104D9000172002B070BD6B4606331B78237333684F
:104DA000DA69002AFCD1DA69002AFCD11A680221EA
:104DB0000A431A603268D369002BFCD1E9E7C04688
:104DC000114D0000496100008F4A0000F0B5D64641
:104DD0004F4680B58BB081460F0014000300196068
:104DE0000B689B0709D40B680520DB0700D4B1E0F2
:104DF0000BB00CBC91469A46F0BD936A0593D36AFA
:104E00000693136B0793536B0893002605AB01932E
:104E10000AE03800AF4B98470CE00F23184081425E
:104E20002DD10136042E2FD0F1B2B300019A98583B
:104E30000028EED0431CF4D00104090C000CC3B2CE
:104E40009C460023020605D463465B09DB01A24AA7
:104E5000924653441F226046024098184030007822
:104E6000824680205546ED07D9D552089B1830332D
:104E70001878C0B26346DB07CFD50009CFE700231F
:104E80004A4613601C20B3E71320944B98472278BE
:104E90000025012A16D02178002927D13B68E27F1E
:104EA0001204A07F02431C209A42A1D1A369A28BC5
:104EB0000430205C002801D0402002430820034336
:104EC0001D4314E004AA0100A069854B9847030024
:104ED0001720002B00D08BE73B7BDBB204AA1278B3
:104EE00005309A4200D083E70C35D4E7002263688E
:104EF000A0680343E06803432B43207C0243607CAB
:104F0000002801D080200343A07C002802D080200C
:104F100080020243E07C002802D08020800002430F
:104F2000207D002802D080208001024338680225BD
:104F30002B43834204D000234A4613601C2057E7CA
:104F40007B689342F7D14B465971237C4A46937153
:104F500000204DE70800634B9847634A116A851C9F
:104F60000123AB400B43136209A92426A35D0B70F8
:104F70001430C5B228005D4B984728005C4B984719
:104F8000A05D00215B4B98472378012B20D023782C
:104F9000002B03D13B68082213433B604B461E683D
:104FA00004AB80221A7000225A7001219970DA70C5
:104FB0002378002B01D104AB9A70A36A0593E36AAE
:104FC0000693236B0793636B0893002705AD11E0ED
:104FD0003B680C2213433B60D9E730003D4B9847B8
:104FE0000DE004A90870000CC0B2434B984701378C
:104FF000042F07D0F9B2BB0058590028EDD0431C4C
:10500000EFD1F4E723784A465371237C9371A37C54
:10501000D371237D1372002202ABDA802378012B37
:1050200012D02378002B27D1A069A28B736AE17F6D
:105030000904A57F2943194371622023E35C002BF7
:105040001CD040231A4319E04B461868254B98475B
:105050001430C0B2214B9847010002AB9A1DA069E1
:105060001F4B984703001720002B00D0C0E602AB6F
:1050700006331B783373D4E7002200206368A168ED
:105080000B43E1680B430343217C0A43617C002905
:1050900003D11A498978890701D580210B43A17C66
:1050A000002902D0802189020A43E17C002902D034
:1050B000802189000A43217D002902D080218901B5
:1050C0000A4331680B43336073681A4372600020EF
:1050D0008EE6C046994B0000004400414961000043
:1050E0008F4A0000114D0000000400402D610000B7
:1050F000A16000004D4B000025620000002000412F
:10510000F0B5D6464F464646C0B582B0884617270A
:10511000002A73D0C179053700296FD04179002961
:1051200003D101680C7EA4070BD4013A94B2002588
:105130000422022189460126DB05DB0D9A46C4467E
:1051400037E002240C76F0E701680B7E3342FCD096
:105150000B7E334209D053468B622DE03B7E49469D
:105160000B4238D13B7E134245D001680B7E13427F
:10517000FCD00B7E134240D04B8B0027019713428B
:1051800002D04A831E2301938379012B27D08B6A97
:10519000DBB20199002938D16F1CBFB261464B5573
:1051A000817901291FD03D00013CA4B218498C42ED
:1051B0001FD04379012BC7D04379002BD5D1076885
:1051C0003B7E1342CAD1134B397E1142C6D1013BFB
:1051D000002BF9D1C2E702233B7604270EE0896A4F
:1051E000C905CB0DD5E70235ADB2190A6346D955CD
:1051F000DAE7019F02E0122700E01027380002B032
:105200001CBC90469946A246F0BD019FF6E7C046F9
:10521000FFFF00001027000010B544791523012C72
:1052200001D0180010BD047A0023002CF9D1002A07
:1052300058D04B78002B44D003681B7EDB0710D47A
:105240000A78D1090023002904D15309DB012E4932
:105250008C4663441F21114001228A409A61052334
:10526000DFE70A78D4090023002C04D15309DB01BD
:10527000254CA44663441F2414400122A2405A61D5
:1052800003681A7ED20701D58A789A62C279002310
:10529000002AC6D102680421137E0B42FCD0117E85
:1052A00000234907BDD5538B5B0701D504235383E6
:1052B0008379012B02D0936A0023B2E7936A00231B
:1052C000AFE70A78D1090023002904D15309DB0193
:1052D0000D498C4663441F21114001228A405A61C6
:1052E00000239EE70A78D1090023002904D153093D
:1052F000DB0105498C4663441F21114001228A408D
:105300009A6100238DE7C04600440041F0B5DE46B7
:1053100057464E464546E0B583B01723002A07D1CD
:10532000180003B03CBC90469946A246AB46F0BD7F
:105330004379002B03D103681C7EA4070AD493464B
:10534000002401230225AC460235A846013A92B258
:105350008A4623E002241C76F1E7357E61460D4241
:105360002ED1357E1D4200D1C2E00668357E1D4239
:10537000FCD0671CBFB251460D5D8179012923D055
:10538000ADB23C00377E1F4202D0ED05ED0DB56297
:10539000551EADB2C679002E1DD12A00594DAA4224
:1053A00070D04579002DE0D10668357E1D42D4D1FC
:1053B000554D377E1F42D0D1013D002DF9D1CCE7AC
:1053C000022333760233ABE70234A4B25146CF5DF9
:1053D0003F023D43D6E751464579002D37D14B4D2D
:1053E000019112E00234A4B24946019F795C09029E
:1053F000009F0F431BE0013A92B20668377E414698
:105400000F421BD1013D002D18D0002AF5D00668AF
:10541000377E1F42F1D0671CB9B289460199095DF8
:10542000009181790129DDD069460F884C46317E93
:105430001942E0D0FF05FF0DB762DCE70199357E28
:1054400067463D4218D1357E4646354252D0066801
:10545000357E47463D42FBD0357E3D4207D0758BB9
:105460003D4200D077838579012D09D0B56A5D462C
:10547000013DADB2AB4669E70223337602334FE715
:10548000B56AF4E74379012B0BD0002B34D1C279F4
:10549000002A00D144E704245B465D46002B19D165
:1054A0003EE7016802220B7E1342FCD0002337E75F
:1054B0000B7E234222D00B7E234207D04B8B23420C
:1054C00000D04C838379012B10D08B6A013DADB2A3
:1054D000002D15D001680B7E2342E9D10A4B0A7ECC
:1054E0002242E5D1013B002BF9D1E1E78B6AEDE7E0
:1054F000122315E7122313E7002311E712230FE706
:1055000000230DE7FFFF0000102700001127000017
:105510007047000010B504000F4B9847012819D0C0
:10552000002803D0022810D0012010BD0B4B1B5DBA
:105530000220002BF9D12000094B984703000320DB
:105540001840434258414000EFE70022034B1A55F0
:105550000220EAE70320E8E731070000D801002035
:10556000E10B000010B50020014B984710BDC0466C
:105570001555000070B504000D00044B984740001D
:10558000013828602000024B984770BD090C0000CC
:105590001555000010B501000020014B984710BDC3
:1055A0007555000010B50020014B984710BDC0464E
:1055B000310C000010B5140001220C4B9847002854
:1055C00004D0023843425841013010BD012120006F
:1055D000074B984703000120002BF6D10020054B14
:1055E0009847431E9841C0B2EFE7C046350C000013
:1055F000BD0C0000E90C000010B50A0001000020FD
:10560000014B984710BDC046B555000010B51400B9
:1056100001220C4B9847002804D0023843425841DD
:10562000013010BD01212000074B984703000120E5
:10563000002BF6D10020054B9847431E9841C0B27D
:10564000EFE7C046590D0000C90D0000F50D000040
:1056500010B50A0001000020014B984710BDC0465C
:105660000D56000000B583B06B46D91DFF230B70AB
:1056700001220B480B4B98470B4B1B88012B0AD080
:10568000FC226B469A7101226B46991D0448054B1A
:10569000984703B000BDFE226B469A71F3E7C046FF
:1056A000DC0100200D530000F0010020F0B583B0B4
:1056B0006B46DC1DFF232370124E012221003000B7
:1056C000114DA847FF23012221003000A847FF23E6
:1056D000012221003000A8470C4C6B46DD1D094E0D
:1056E000094F2B78FF2B09D0FF230122290030001E
:1056F000B847013C002CF4D1002000E0012003B0A9
:10570000F0BDC046DC01002001510000400D030047
:1057100070B582B0144B1C88012C23D0134B198810
:10572000134B1868134B98470123844202D9180081
:1057300002B070BD6B46DC1DFF2323700E4E0122AC
:10574000210030000D4DA847FD23237001222100C8
:105750003000A8470A4B9847031EE8D10521094AA3
:105760001170E4E70123E2E7F0010020E8010020E6
:10577000F8010020A9630000DC0100200D530000A7
:10578000AD560000EF010020F0B583B000226B465B
:10579000DA71144C6B46DD1D134E144FFF230122AA
:1057A00029003000B8472B780F22190091430A1EB8
:1057B00009D0FE2B13D0013C002CEFD104220C4B5E
:1057C0001A7000200CE05B0704D00732084B1A70F7
:1057D000002005E00B22064B1A70002000E001209B
:1057E00003B0F0BD20A10700DC0100200151000042
:1057F000EF01002030B583B001A901235B420B808B
:10580000144D02222800144B98476B46DC1DFF23E1
:10581000012221002800114DA847227811231340AE
:10582000012B05D001220E4B1A70002003B030BDB1
:105830001E231A40042A0BD00A2A04D1023A084B2C
:105840001A700020F2E70A22054B1A700020EDE7DB
:105850000120EBE7DC0100200D53000001510000A6
:10586000EF01002070B590B000252C4B1D700FA9E2
:105870000D7001264E708D702520294B984701AC84
:1058800026700295039525746574A674E6742575D3
:105890002423E5540C22002107A8224B984780239B
:1058A0005B02E360204BA362204BE362204B236347
:1058B000204B6363204BA361204D22002049280028
:1058C000204B98472A68D369002BFCD1136802212A
:1058D0000B4313601C4A0023537093701B490878D4
:1058E00010701B4C20706370A370012269464A70CF
:1058F0008B700A700A4B98472278D109002300293F
:1059000004D15309DB0113498C4663441F21114024
:1059100001228A409A6110B070BDC046EF0100209C
:10592000D15E000097690000030004000300050039
:105930000300060003000700801A0600DC010020B7
:1059400000080042CD4D0000FC010020680000204E
:10595000EC01002000440041F8B5070000220D4B87
:105960001A700C000C4B994200D91C000B4D0C4EC8
:1059700001E0E308E41A21002800B0471728F8D016
:105980007900CF190749C91901220448064B9847E5
:10599000F8BDC046EF010020001BB700DC0100206D
:1059A000494D0000EC0100201952000010B5002202
:1059B000044B1A7041000818034909180348044BA6
:1059C000984710BDEF010020EC010020DC01002011
:1059D0001952000070B582B0FF226B46DA710022C6
:1059E000074B1A700A24074E074D01226B46D91D3A
:1059F0003000A847013CE4B2002CF6D102B070BDE3
:105A0000EF010020DC0100200D530000F0B5C64678
:105A100000B586B0804600920193FF220F2302A8B2
:105A2000844663441A700022534B1A7004AB3F3211
:105A300040460240402002431A700A0E5A700A0C77
:105A40009A700A0ADA7019710027002304A9082243
:105A5000092411E07600F6B20138C0B2002808D05F
:105A60005B00DBB21D0075402D06F3D56340DBB251
:105A7000F0E70137052F02D07E5C1000F0E75B00F5
:105A80000122134304AC63713C4E01220F2102AB8F
:105A90009C46614430003A4FB8470622210030004E
:105AA000B84702ABD91DFF230B7001223000354EE1
:105AB000B047072402ABDE1D304F324DFF230122D9
:105AC00031003800A84733785AB2002A0BDA013C7B
:105AD000E4B2002CF2D10222274B1A70002006B04B
