S0160000536F756E64696E67536F696C5F312E73726563A0
S1130000002C0020AD690000A9690000A969000066
S113001000000000000000000000000000000000DC
S1130020000000000000000000000000A9690000BA
S11300300000000000000000A9690000A969000098
S1130040A9690000A9690000A9690000A969000064
S1130050A14F0000A9690000A96900005D470000E4
S1130060A9690000A5230000B5230000C5230000F2
S1130070D5230000E5230000F52300004507000018
S11300805507000065070000A9690000A969000080
S1130090A9690000A9690000A9690000A969000014
S11300A0A9690000A9690000A9690000A969000004
S11300B00000000010B5064C2378002B07D1054B37
S11300C0002B02D0044800E000BF0123237010BDC0
S11300D060010020000000001C7C0000084B10B5EB
S11300E0002B03D00749084800E000BF0748036815
S11300F0002B00D110BD064B002BFBD09847F9E72D
S113010000000000640100201C7C00001C7C000036
S113011000000000094B98420CD0094B984207D0CC
S1130120084A0023904201D018007047023302E0CD
S1130130012300E00023DBB2F6E7C04600200042C2
S1130140002400420028004210B5040008004F4B70
S113015098470023236080004D4A82586260A3724E
S1130160E372237363722372E36123626362A362A3
S113017023756375A375E3752376637623746374BB
S1130180A374E3742C22A3540132A3540132A35464
S11301900132A3540132A3540132A3540132A354B3
S11301A00132A3540132A3540132A3540132A354A3
S11301B00132A3540132A3540132A3540132A35493
S11301C00132A3540132A3540132A3540132A35483
S11301D00132A3540132A3540132A3540132A35473
S11301E00132A3540132A3540132A3540132A35463
S11301F00132A3540132A3540132A3540132A35453
S11302000132A3540132A3540132A3540132A35442
S11302100132A3540132A3540132A3540132A35432
S11302200132A3540132A3540132A3540132A35422
S11302300132A3544132A354A365A3670132A354EA
S1130240E365E3670132A35423661A3AA3501B32D1
S1130250A3546366173AA3501832A354A366143AFE
S1130260A3501532A354E366113AA3501232A35497
S113027023670E3AA3500F32A35463670B3AA3507B
S113028001210C32A1540132A35410BD1501000008
S113029094780000F0B5DE4657464E464546E0B534
S11302A091B001900C0015000800C34B984703005F
S11302B00100C248026A9E00C14FF7593A430262E4
S11302C022681C20920706D511B03CBC9046994682
S11302D0A246AB46F0BD226801271740F4D1B948C5
S11302E0325817202E68B242EED36E68B242EBD376
S11302F0E869824200D2B9E1286A824200D2B7E1B9
S1130300686A824200D2B5E1A86A824200D2B3E1AF
S113031098229446AC4462460892002003E00130DF
S11303200132082808D01678002EF8D0A64E765C44
S11303308642F4DC1720C7E70022029280204004A2
S1130340844602E00132042A0ED0A818007C012859
S1130350F8D19E48405C904200DA8FE160469040BC
S1130360029E06430296EDE79D32AA5C002A04D061
S1130370802212010299114302912A7A511E8A4164
S1130380920006926A7A012A22D0904AD25C110025
S113039005923522AA5C8A4200D379E12C21695C5A
S11303A00F2900D974E1287B0A90E87A0B902D205C
S11303B08246AA44002004970EAE0796C026360152
S11303C0B1468446A046280055460993824635E046
S11303D0069911430691D8E792024F463A400A43E0
S11303E019798B4603215F4639400A4316435A79EB
S11303F0520160210A40324399790902C026B600AD
S11304000E401643DA791203E021C9010A4016436B
S11304103443039A14432043624607995050042AF4
S11304202AD09A7C0599914200D831E1597A0A354B
S113043004239B46DC440F2900D929E10906F02353
S11304401B0519402B002E783604FF2000040640BB
S113045068788024002800D1049C987808270397A2
S1130460002801D104980390D878834610205F4671
S1130470002FB1D10498AFE744465546099B524A30
S1130480D25C9146514650315046413000270022FB
S11304900126B2460226FF36B34680267602B046CF
S11304A0A4461C004B460FE00678002E07D093426A
S11304B000D8E7E0022E14D0564696403743013266
S11304C001310230082A10D00E78002EECD093426D
S11304D000D8D5E04646964037430678002EE9D149
S11304E0EDE75E4696403743E9E7994623006446C4
S11304F06A7E120130211140287E072202401143F6
S11305000022802040020E0002E00132042A0BD0B7
S1130510A918097D0029F8D00599914200DCB3E0BF
S1130520010091400E43F0E7B24601980200043204
S11305303430002102C28242FCD10022019842637D
S113054082639900224A88500460A022A95C643A1C
S113055081540DA9AA7A0A701E4AD65C30001E4B3B
S1130560984730001D4B98474B46002B3CDD2E002E
S1130570583698339846A84401239946AB464546D5
S1130580A046089C03E001340436AC422AD0237808
S1130590002BF8D00CAB4A469A7000230CAAD370F7
S11305A013002022B21812781A704A465A70307812
S11305B019000B4B9847E6E71501000000040040C2
S11305C08078000094780000A07800008C78000007
S11305D0B80300209078000051680000C56700004F
S11305E04969000044465D460A9B1B030B9A1202AC
S11305F01343029A134323600422A3681A42FCD1D2
S1130600FF2323710422A3681A42FCD16B461B7E8C
S113061063710E9BE3600F9B2361A7611D4AA3686E
S11306201342FCD15346E3631022A3681A42FCD15F
S11306302B686363184AA3681342FCD16B68236474
S11306400598002822DD1C350021144E32008A4012
S1130650A3681A42FCD104CD0B0010339B00E318AD
S11306605A6001318842F1DC00202DE617202BE688
S1130670172029E6172027E6172025E6172023E66A
S1130680172021E617201FE617201DE600201BE691
S1130690172019E640000200800004000001080051
S11306A0920083185960034BD358426B134343633E
S11306B000207047A478000070B504000D000068A5
S11306C0094B9847094B1B5C1F221A400123934096
S11306D0074A1360AD00074BEA58A36B1343A363A7
S11306E023689A6270BDC04615010000D4780000EA
S11306F000E100E0A4780000F0B5C64600B5800033
S11307000E4BC7583B68DE6ABB6B7A6B13401E40C6
S113071000240B4B984602E00434302C0AD04346A4
S1130720E5583542F8D03B195B68380098473B6878
S1130730DD62F1E704BC9046F0BDC046B80300207A
S1130740A478000010B50020014B984710BDC046A6
S1130750F906000010B50120014B984710BDC046B2
S1130760F906000010B50220014B984710BDC046A1
S1130770F9060000F0B591B00FA901254D700026CF
S11307808E700D701420284FB84780225203274BD7
S11307909A61274C2F2323706670A6706B465D7098
S11307A09E701D7069462F20B8472278D109002316
S11307B0002904D15309DB011C498C4663441F21E1
S11307C01140012210008840986101AC227000237E
S11307D00293039323746374A274E2742375233223
S11307E0A354183A002107A8124B984780239B036F
S11307F0E360114BA362114BE362114B23630123AA
S11308005B4263630F4BA3610F4D22000F49280025
S11308100F4B98472A68D369002BFCD11368022137
S11308200B43136011B0F0BDF565000000440041B6
S1130830AC060020B7700000020010000200110096
S11308400200120080841E006C060020000C00428E
S1130850ED530000F0B583B03223013B002BFCD1F3
S11308600C4D802676036E6101ACFF330222210019
S113087009480A4FB847AE6122780123002A04D1FF
S113088001AB5B785A1E9341DBB2054A138003B077
S1130890F0BDC046004400416C0600202157000012
S11308A09002002010B5074B9847074B1A68013295
S11308B01A601A68054B9A4202D90022024B1A6048
S11308C010BDC046550800007C0100200F27000021
S11308D070B5AAB01F4D290001A81F4B98471F4BA4
S11308E00293322308931E4C01AA290020001D4BB9
S11308F098472268022193681942FCD113680221A7
S11309000B431360164B1A6802311F20E0249368CE
S11309101942FCD15379834305D0402B05D0202BB9
S1130920F5D11471F3E7402353710F4E0C4C0022A0
S1130930310020000D4DA847082231002000A847AF
S1130940002120000A4DA84708212000A8472AB00A
S113095070BDC0460020004249010000240400008C
S1130960B006002095020000A5080000A1060000C2
S1130970B906000010B5074B19682223CB5C5A1E38
S11309809341DBB24A7C096803480078034CA047D2
S113099010BDC0468001002089010020496000008C
S11309A010B50423002801D0180010BD404B197A5B
S11309B0CA090023002A04D14B09DB013D4A9446AD
S11309C06344186A1F220A4001239340184210D03E
S11309D0374B9B7B012B04D00422354B9A730223A3
S11309E0E2E7354B1B78002BF6D00022334B1A601C
S11309F0F2E72F4B9A7B042A05D0012A33D0032334
S1130A00032AD1D045E0033A9A732C4B1B68002B80
S1130A1017D00022284B1A700020294B9847FA223D
S1130A20920000230021274CA047274A0023801866
S1130A305941264A0023264CA047264B98470223B7
S1130A40B2E701241C4B1C7000201D4B9847FA216F
S1130A504901214B9847FA239B005843174B586090
S1130A601C600223A0E7144B1B78002B07D0134B08
S1130A701A680223D20397D50022104B1A600C4B3C
S1130A8002229A73154A1A6001225A7400212132F3
S1130A9099540022124B1A70054C124B1C60124BD5
S1130AA09847A37B023B5A425341DBB27CE7C046E2
S1130AB00C000020004400418801002010E000E008
S1130AC039670000716E0000571B0000581B0000BE
S1130AD0316E000001000020C96A0000801A06007F
S1130AE0890100208001002075090000F8B5094D36
S1130AF0094F0A4E00210A48B847041E07D0B047E0
S1130B00FF23034203D0013D002DF3D10024200034
S1130B10F8BDC046410D03008D620000A5620000CF
S1130B200D1B000010B582B00C4B1B689989090499
S1130B300123009310220A480A4CA047002801D13F
S1130B4002B010BD054B186812300121064B9847BE
S1130B500028F5D0054B9847F2E7C04680010020F5
S1130B6009110800FD60000029630000B56300005E
S1130B7010B5044B1B78002B00D010BD0020024B95
S1130B809847FAE7890100209D60000010B504220F
S1130B90034B9A73FB32034B1A70034B984710BDF7
S1130BA00C00002089010020555F0000F0B5C64606
S1130BB000B588B0CB4B98470400012806D0CA4B37
S1130BC09847200008B004BC9046F0BDC74B1B6892
S1130BD00122DA7300221A749A81C54B98470021C6
S1130BE088204001C34B9847002807D1BF4B1B689E
S1130BF003229A73BC4B98470324E2E7D5214900AA
S1130C00BD48BC4B98470026002825D1B74B1B682C
S1130C10DB7BDB0700D5EBE1B44B1B68DA7B0923F4
S1130C201340012B0FD180218900B448B14B984760
S1130C300028DBD0AD4B1B68DB7BDB0703D5B04B57
S1130C4098470028D2D0AF4B9847A84B1B68002286
S1130C509A73A54B9847B4E7AB4B9847431C00D114
S1130C60C4E10005000DD5235B0001369842BDD1D7
S1130C70CCE70021A5489F4B9847002819D19B4BEE
S1130C801B680222DA73002188204001994B98479F
S1130C900028ABD09E4D974F9B4E00219D48B847EE
S1130CA00028A3D0B047C3077DD5013D002DF4D162
S1130CB09CE7954B9847430005D58C4B1A68D37B2A
S1130CC008210B43D373002193488A4B984700288B
S1130CD08CD0864B1B68DB7BDA0700D4A4E18F4BF6
S1130CE09847002882D0814B1A68537D0721194008
S1130CF089008B480858FA21890041435B061B0F81
S1130D009B0088481B584B431360937C9B0900D07D
S1130D103CE1917E8911537E9B00107E8002034347
S1130D200B43107FC011D17E490008431B051B0DE6
S1130D3001330721014002318B40D07D0F21014056
S1130D408B409B0A5360918909047748694B984703
S1130D50002800D14AE701230093082200217348A8
S1130D60734DA847002800D140E7012106A8714B24
S1130D709847002800D139E76F4B9847002800D1E5
S1130D8034E706AB1B780F221340012B00D119E185
S1130D90002B00D109E1022B00D118E1534B1B6851
S1130DA010221A7405E100215848524B9847002834
S1130DB000D11BE7544B9847C023DB051840802320
S1130DC0DB05984205D1494B1A68D17B08230B43B4
S1130DD0D37300215048474B9847002800D105E7BA
S1130DE04E4B9847002800D100E7404B1A68937C8B
S1130DF09B061B0F022B00D1A8E007D9032B00D1BF
S1130E00A7E0042B04D14023137403E0012B66D024
S1130E1012231374537D5906090F890007200340D8
S1130E209B003F481858FA239B0043434348095802
S1130E304B431360917E8911537E9B00107E800288
S1130E4003430B431B051B0D3D498B420FD0107F01
S1130E50C011D17E49000143013307200140023112
S1130E608B40D17D083001408B409B0A5360137C3A
S1130E703F2B7BD90021009101238022920031482D
S1130E802B4DA847002800D1B0E600252E4E05A81A
S1130E90B047002800D1A9E60135ADB2322DF6D114
S1130EA0124B19688A7E92114B7E9B00097E89023F
S1130EB00B4313431B051B0D214A934254D1224E6D
S1130EC006A8B047002800D190E60135ADB2352D13
S1130ED0F6D9064B1A68069B5B08536044E014235A
S1130EE0137497E7A1090000710B00008001002032
S1130EF0C56000008D62000008550000101100005C
S1130F00ED0A000075090000A56200003A05000022
S1130F10EF1B0000011100003B110000250B000035
S1130F2018790000347900003711000033110800EB
S1130F30FD60000029630000B5630000D87800005C
S1130F40FF0F000008110800B1620000222313748F
S1130F5060E7302313745DE706A8364B98470028F2
S1130F6000D143E60135ADB27F2DF5D9802189004A
S1130F703148324B9847002800D137E6304B984728
S1130F80002800D132E62F4B98475EE6D07E937E50
S1130F901B02517E09040B4303439B025B0880211F
S1130FA089008C4663445360CDE6274B1B681022AE
S1130FB01A74254B1B68DB7B09221340012B00D0DC
S1130FC038E630E6204B1B681A221A74F1E706ABA8
S1130FD09B78DB09012B04D11B4B1B6830221A744C
S1130FE0E7E7194B1B6820221A74E2E700260DE696
S1130FF0731E9E41B3070393144D104FB846144E0D
S113100000211448B847002800D138E60399124853
S1131010C047002800D132E6B047C30700D428E611
S1131020013D002DECD12AE609221340012B00D00A
S113103009E6F8E5B1620000101100008D620000BD
S1131040ED0A00007509000080010020EF1B00007C
S1131050A5620000371100002911000010B5064BED
S113106098470023002801D0180010BD034B98476F
S1131070034B1B68DB7BF7E7A1090000710B000041
S11310808001002010B5064B98470023002801D0AA
S1131090180010BD034B9847034B1B685B68F7E7C8
S11310A0A1090000710B000080010020002070479E
S11310B070B582B00E001500164B9847041E02D07E
S11310C0200002B070BD144B9847002817D0012DA2
S11310D019D91248124B1B68DB7B1B0700D476021C
S11310E0012300932B008022920031000D4EB04763
S11310F000280AD00C4B1D800C4B1D80E0E70C4BE4
S113110098470534DCE70B48E4E7094B9847052486
S1131110D6E7C046A1090000ED0A00001211100034
S113112080010020FD600000840100208601002071
S1131130710B00001111080010B50C00074B984703
S1131140002804D10022064B1A80053010BD044A41
S113115013881C1B14800020F8E7C0462963000094
S11311608401002010B50400144B9847052300287F
S113117001D1180010BD002C10D00022104B1A8091
S1131180104B1B88012B0FD000210F480F4B9847A1
S113119000280DD00E4B98470023EAE7084B1A8825
S11311A00023002AECD0E4E7094B98470023E0E74A
S11311B000210548054B9847ECE7C046B56300009D
S11311C084010020860100200C3100008D620000A3
S11311D0710B000070B582B00E001500114B9847DA
S11311E0041E16D1012D17D90F48104B1B68DB7B49
S11311F01B0700D47602012300932B008022920067
S113120031000B4EB047002808D00A4B1D800A4B12
S11312101D80200002B070BD0848E6E7084B9847DF
S11312200524F6E7A10900001991100080010020AF
S1131230FD60000084010020860100201891080050
S1131240710B000010B50C00074B9847002804D11F
S11312500022064B1A80053010BD044A13881C1B5B
S113126014800020F8E7C046B96300008401002020
S113127010B504000E4B98470523002801D118002F
S113128010BD002C0AD000220A4B1A800A4B1B887E
S1131290012B09D0094B98470023F0E7054B1A8826
S11312A00023002AF2D0EAE7044B98470023E6E73C
S11312B0396400008401002086010020710B0000C5
S11312C000207047431E9841C0B2034B187001229E
S11312D0024B1A707047C046C4030020440000202B
S11312E010B582B0084B00931F23084A0121022045
S11312F0074CA047002801D002B010BD05490230B8
S1131300054B9847F8E7C04605170000B0010020D8
S11313104D370000E1120000F5360000F8B5002357
S1131320134A1370134A13700133134A1370134A88
S11313301370134B9847002805D10022114B1A70E3
S113134000252800F8BD01380E4B18700E4B984745
S1131350051EF6D000240D4F0A4E00212000B84788
S11313600134E4B23378A342F7D2094B9847E8E753
S1131370A6010020A4010020440000204500002014
S11313805D640000D4010020993C000095640000D5
S1131390E112000010B5014B984710BDE1120000A6
S11313A010B582B0084B00930D23084A0021812018
S11313B0074CA047002801D002B010BD0549813078
S11313C0054B9847F8E7C0469513000048000020F5
S11313D04D370000A1130000F536000010B5064B90
S11313E01B78002B00D110BD0220044B9847044900
S11313F00220044B9847F6E7A40100208135000041
S1131400DD130000F536000010B5064B1B78002BE9
S113141000D110BD8120044B984704498120044B1E
S11314209847F6E7A4010020813500000914000064
S1131430F536000010B50B4B9B68002B06D00A4B09
S11314401B7B7F2B09D80220084B9847064B5A6810
S1131450044B5A60064B984710BD8120034B9847B4
S1131460F4E7C04648000020B001002081350000A8
S1131470A113000010B5054C122200212000044BDA
S11314809847F0232370E63BE37110BDD801002098
S1131490B770000070B506000D001400084B9847A3
S11314A00122084B1A73084B9E70220EDA70220C2C
S11314B01A71220A5A719C712A0A1A735D7370BDDB
S11314C07514000048000020D801002010B5002247
S11314D0902189010520014B984710BD9514000007
S11314E010B5094B1B7B594049B2002904DB074B5B
S11314F09A680123824204D2054B9847054B9847CA
S11315000023180010BDC046B00100204800002090
S1131510CD1400003514000010B500220021042071
S1131520014B984710BDC0469514000010B582B019
S113153002000B000749009101218120064CA047BD
S1131540002801D002B010BD044B9847044B9847C3
S1131550F8E7C046A51500004D3700001915000036
S11315603514000010B50022A02189010620014B8A
S1131570984710BD9514000010B50022E821890198
S11315800220014B984710BD9514000010B5034B81
S113159098470022024B1A7310BDC0467514000010
S11315A04800002010B50C00002800D010BD044BEA
S11315B09847044B9A68141B9C60034B9847F5E7C3
S11315C08D150000480000203514000070B505009A
S11315D0142200212348244B9847002D18D0234B74
S11315E0D97D204A08320824204B587C3F230340ED
S11315F01C2B13D03F2B11D0201C8C4200D9081C6B
S1131600C6B2802130001A4B984700280FD170BD14
S1131610164BD97C134A04320424E5E71C231370C7
S1131620123B5370053BD3700C34E4B2E4E70F4B28
S1131630587B104B9847431E9841C001002D0CD095
S1131640023CA4B2074A230A24021C431480D0702B
S113165031000448084B9847D9E7024B013C1C7001
S11316609870F5E78C010020B7700000B0010020ED
S1131670E1140000A56400002D15000010B5041E3F
S11316801ED0174A174B597CD170997C9170D97C24
S11316905170197D1170144A997D5170DB7D13705E
S11316A01088400221004B1E9941C9010F4B9847F5
S11316B0002804D00E4B1C7001220E4B1A7010BD72
S11316C0084B587B0C4B98470028DAD000229C2109
S11316D089010720094B9847094B9847EFE7C04613
S11316E0A0010020B0010020D0010020E11400007E
S11316F0A5010020A6010020A564000095140000A7
S11317003514000070B500280DD11F2904D1844B75
S1131710844A12689A4207D00122834B1A70834B81
S11317209847834B984770BD7E4B587B0F221040DF
S11317305873804B1B7883420BD37A4B7E4A99684B
S11317409160DA7B5A2A00D9D2E093007B4AD358BD
S11317509F467B4B98477B4B9847E4E7714BDA7C79
S1131760131C122A00D91223DCB280212000764BEC
S113177098470028D7D021007448754B9847D2E782
S1131780684BDB7C1A1C242B00D92422D4B2802180
S113179020006D4B98470028C5D0624B1B7C9B07EB
S11317A003D1604B5D7C002D04D0654B9847654B9D
S11317B09847B8E75B4B587B664B984780230028D3
S11317C000D12B00644E7370564B587B634B984783
S11317D001003000103001311022614B9847337CF6
S11317E0002B00D18EE0222B00D18AE05A4901233C
S11317F04A7C002A00D185E0222A00D182E001330C
S1131800DBB20131102BF3D184E00020554B984713
S113181089E70120534B984785E7534B98470228A3
S113182009D0032804D0002808D0504B984707E07B
S11318304F4B984704E04F4B984701E04E4B984775
S1131840404B98476FE7802108203F4B984700287A
S113185000D168E7334B587B4849494B98470228E5
S11318600DD0032806D000280ED0404B9847354BA6
S1131870984758E73E4B9847324B984753E73D4BC0
S11318809847304B98474EE73C4880239B0243607F
S113189003681BBA036008212D4B984743E7214B8B
S11318A0DB7C9A0704D4344B9847264B98473AE795
S11318B001214B4001211940324B9847F3E7194B62
S11318C0DB7C002B04D01E4B98471E4B98472AE71D
S11318D0294B9847F9E7284B98471A4B984722E732
S11318E00120294B98471EE70020274B98471AE709
S11318F00022802189010520244B9847114B9847E9
S113190011E72B0014482021C21811740133DBB2F3
S1131910102BF9D1210010480D4B984703E7C0461E
S113192055534243B0010020A4010020DD13000000
S113193009140000D401002048000020747900003C
S1131940CD14000035140000E1140000D80100207B
S11319502D150000BD64000058000020D56400006F
S1131960A5700000CD150000616400001915000089
S113197065150000791500008D150000A8010020F0
S113198079640000956400007D1600009514000041
S113199010B50022044B1A700123044A1370044A40
S11319A01370044B984710BDA6010020440000208A
S11319B045000020A93C000010B5204B1A7853B212
S11319C0002B05DB602313400020202B18D010BD12
S11319D0602313400020202BF9D1184B5B78FE2B99
S11319E027D1164BDB88012BF1D1144B5B88002BDC
S11319F0EDD1124B124A9A6001229A810130E6E736
S1131A000E4B5B78FF2B16D10C4BDB88002BDED101
S1131A100A4B5B88002BDAD10A4A13700A4A137006
S1131A2002300A4CA0478120A047094B9847012067
S1131A30CDE70020CBE70020C9E7C0460806002018
S1131A40D4010020A4010020A6010020C13300001D
S1131A50E112000010B51E4B1C78002C30D000237E
S1131A601B4A13701B4A13701B4B1B78002B15D099
S1131A701A4B1A881A4B19681A4B587B1A4B9847F9
S1131A80144B1B78DBB2002B11D102281DD0032884
S1131A9018D0002810D0154B98470FE00F4B1A8828
S1131AA00F4B19680F4B587B114B9847E8E70021FF
S1131AB0084A11701C0003E00E4B98470E4B9847E0
S1131AC0200010BD0D4B9847F8E70D4B9847F5E7FC
S1131AD0A601002045000020A5010020D00100201F
S1131AE0A0010020B0010020E564000019150000E9
S1131AF0196500008D1500003514000065150000FF
S1131B007915000030B583B0050014001D4A107823
S1131B10C0B2002813D0002010708130002D00D1F5
S1131B207F38002B0DD0009323000A000021164DAE
S1131B30A847002820D0154B9A68141B9C6003B05A
S1131B4030BD134B009323000A0000210E4DA8471B
S1131B50002811D00B4A1378002BFCD00D4B1B78B6
S1131B600020002BEBD1094B9A68141B9C60094B95
S1131B70187801235840E2E70122024B1A70002032
S1131B80DDE7C046440000204D3700004800002037
S1131B90C5120000C403002010B5114B1B681A685D
S1131BA09478D3781B022343D2180378C018904248
S1131BB010D24378042B0FD08B420AD00378C0187C
S1131BC0904205D24378042B08D08B42F6D100E032
S1131BD0002010BD0020FCE70020FAE70020F8E711
S1131BE0F801002010B5034B5B887F201840024B9E
S1131BF0984710BD080600202539000070B5194B20
S1131C001B780022002B29D0174B1B681B681C79FA
S1131C10844223D9154A13609A78DC782402144349
S1131C201C19A3421CD20025012607E00F4A1360A9
S1131C300FE01A789B183500A3420CD25A78042A74
S1131C40F7D19A788242F4D1DA788A42F1D1002D20
S1131C50ECD1012202E0054A13600022100070BD9D
S1131C600022FBE7F4010020F8010020FC01002021
S1131C70F0B5C64600B504000021134B9847051E75
S1131C8003D1280004BC9046F0BD104B1B685B6870
S1131C90A200D3589846DB689847010020000A4BFD
S1131CA09847051EEDD00A4B1C680A4E0A4F0521C1
S1131CB02000B047041E02D08078B847F7E74346B7
S1131CC05B689847DDE7C046FD1B0000F801002073
S1131CD0FC010020991B00000D340000F8B505003C
S1131CE00F4B9847002819D00E4B1C680E4E0F4F0F
S1131CF005212000B047041E09D00379427912025D
S1131D001A43C1788078B8470028F1D106E0084B1F
S1131D101B685B68AD00EB581B689847F8BDC0466C
S1131D20FD1B0000FC010020991B0000653400002D
S1131D30F801002010B5014B984710BD313A00005E
S1131D4070B50E4B1B78002B11D00D4B1B681B6814
S1131D501B79002B0BD000240A4E094D2000B047FC
S1131D600134E4B22B681B681B79A342F6D8002225
S1131D70024B1A700132044B1A8070BDF40100202A
S1131D80F8010020711C0000EA01002070B50E4B20
S1131D901B78002B17D00D4B1B681A681279002A88
S1131DA011D00024094D06E00134E4B22B681A680E
S1131DB01279A24207D95B68A200D3581B69002B91
S1131DC0F2D09847F0E770BDF4010020F80100203C
S1131DD0F8B5AC4B00229A811A615A611B785AB249
S1131DE0002A13DB60221A4200D1DAE0A54B1A78EC
S1131DF01F231340012B00D176E1A24B1A781F2335
S1131E0013400020022B00D1CCE1F8BD9D4AD288BA
S1131E100020002AF9D060211942E7D11F210B408C
S1131E2008D198494978062923D0082900D187E0A8
S1131E30002917D0012B00D18AE0022BD6D1914B77
S1131E405B780020002B00D0A8E1022AD5D18D4B6D
S1131E5018798D4B98478D4B1880022118008C4BB4
S1131E609847FFE0022AC8D102318A48884B984734
S1131E70F8E0844B5A88130A022B23D0D9B20229E2
S1131E800FD9032B34D00F2B00D084E1824B9868F8
S1131E900028B2D08378C178090219437C4B984753
S1131EA007E0012B00D076E17B4B18680178784B72
S1131EB09847744BDA889B89934200D8D2E0714BDF
S1131EC09A81CFE0D2B2744B1B685B7C934200D8FA
S1131ED093E7714B5B68D200D0588378C1780902CC
S1131EE019436B4B9847674B9B6802225A70E0E793
S1131EF0FF231A40012A20D0002A19D0022A00D137
S1131F0078E1032A00D071E70C21644C644A023260
S1131F100023E05C108001330232D8B28142F8D849
S1131F20490002315E48017089B2594B9847C0E7B5
S1131F3004215C48564B9847BBE75B4C0921E5E715
S1131F40012A00D059E701215848514B984789E0AC
S1131F504C4949780A2900D06FE7012A00D0C3E030
S1131F60524B1B78002B00D1BEE0464B1C79504BE2
S1131F701D682B681B79A34200D8B5E0002120001E
S1131F804C4B9847002800D130E76B68A400E35815
S1131F90DB689847484B1870012118003C4B984760
S1131FA060E01F2213405FD1364A5278032A00D1E1
S1131FB0F3E0D1B203293BD9052A4BD0092A53D1E6
S1131FC0304BDB88002B00D017E73C4B98470028A8
S1131FD000D10BE72B4B9A782F4B1B685B7C9A4202
S1131FE000DD03E7364B9847264B9B782F4A137046
S1131FF0002B37D0334A94466344DB00264A5268A8
S1132000D3182B4A13601B681B79002B2AD0002499
S11320102D4D160000212000A847002800D1E5E638
S11320200134E4B233681B681B79A342F2D819E087
S1132030012A19D1134BDB88002B00D0DDE6114BAC
S11320405B88012B00D0D8E6124A138802218B4307
S1132050138007E00B4BDB88002B00D0CDE61B4A36
S1132060084B1A610120D0E6012B31D0022B00D09D
S1132070BCE6044B5B78012B6CD0032B00D178E0D9
S113208000208BE0080600206D350000EC010020E4
S113209045390000EA010020AC000020E07A00008D
S11320A07C000020980000209C000020F401002007
S11320B0F8010020FD1B0000F0010020353900006C
S11320C0411D0000FFFFFF1FDD1C0000E51B000099
S11320D04A4A52780B2AC9D1484BDB88002B03D1DA
S11320E0474B1B78002B27D1454B1B780020002B36
S11320F000D18AE6414B1C79424B1D682B681B7941
S1132100A34200D881E6002120003F4B98470028D5
S113211000D172E66B68A200D558EB6898470100BD
S11321202000394B9847002800D166E6AB689847F1
S1132130002800D069E660E6304B1D795C882800F1
S1132140324B9847002800D150E6E1B22800304BCA
S1132150984723E0294BDB88002B00D04DE6274B22
S11321605B88002B00D048E6244B1879294B98470C
S113217014E0224BDB88002B00D03EE61F4B5B882B
S1132180002B00D039E61D4C2079234B9847207949
S1132190224B984702E0002000E00020002800D0F5
S11321A033E623E6164B1B78002B00D12DE6154BA6
S11321B01B681A681279002A1AD00025124E114F92
S11321C05B68AA00D458E368984701002800B04728
S11321D0002800D119E6A3689847002800D014E627
S11321E00135EDB23B681A681279AA42E8D80CE6C8
S11321F000200AE603210A4C88E6C04608060020AF
S1132200F4010020F8010020FD1B0000711C0000F7
S1132210DD1C0000B1360000C13300008135000030
S1132220A8000020044A137802210B43137053784A
S11322305BB2002BFBDB70470018004000B583B095
S1132240124A936940210B43936101A900230B7047
S113225005200F4B984705200E4B98470E4A1378DC
S113226001210B43137053785BB2002BFBDB0B4B48
S113227019004031002204C39942FCD11022084BBA
S11322801A60084B984703B000BDC04600040040E4
S113229051680000C567000000180040C803002012
S11322A000E100E0252200000023036043600122D6
S11322B00272427283720233C3727047F0B583B004
S11322C005000C0001A900234B70CB7023790B701F
S11322D0237A8B702078154B984700201F2D00D847
S11322E0134807222A409200E77AA37A002B01D0F0
S11322F008231F43EB089B00C31899690F269640D7
S1132300B14397403A000A439A61637A002B06D19D
S113231043690122AA409343436103B0F0BD42697B
S11323200123AB4013434361F7E7C046496900000A
S11323300018004070470000F0B50A4B1B78002BD2
S11323400CD1094F094E0A4D0024DE515A1914606C
S11323500433182BF9D10122024B1A708000024B6E
S1132360C150F0BD0002002004020020352300000B
S11323700804002000B583B009236A4613700133B2
S11323805370013393700133D370013313710133EC
S11323905371034B98476B46185603B000BDC046B3
S11323A03153000010B5024B1B680020984710BD44
S11323B00402002010B5024B5B680120984710BD51
S11323C00402002010B5024B9B680220984710BD00
S11323D00402002010B5024BDB680320984710BDAF
S11323E00402002010B5024B1B690420984710BD5D
S11323F00402002010B5024B5B690520984710BD0C
S113240004020020F0B5DE4657464E464546E0B588
S113241091B005000C00160029600800BC4B9847D9
S1132420020023680520DB0706D511B03CBC9046AA
S11324309946A246AB46F0BD236817309B07F4D4F7
S1132440B449086A971C0123BB4003430B620FA9DC
S11324502D27F35D0B701432D3B202931800AE4BE8
S113246098470298AD4B9847F05D0021AC4B9847D4
S1132470F37A6B712423F35CAB712523F35CEB716A
S1132480F37E2B72337F6B722B6898461800A04B37
S11324909847143000220E2306A98C4663441A8000
S11324A0328A02928023DB019A4200D19EE00FD946
S11324B0C023DB01029A9A4200D192E080231B02DE
S11324C09A4200D01FE1032306930023079308E0F8
S11324D080239B019A4200D015E1102306930F3B01
S11324E0079333680593F368039373690493337E06
S11324F09B462623F35C9A4673689946002B00D1C9
S1132500A0E080235B05994500D184E0737E002B15
S113251002D0B37E424693732A68029FD369002B8C
S1132520FCD10E3306AA944663441B884246938129
S1132530059B039A1343049A13434A4613431F43C8
S11325405B461B021F4353465B071F432723F35C71
S1132550002B01D104331F43737E9B02327F52024E
S11325601343727F120213432422B25C52041343B6
S11325702522B25C12041343B17AF27A114319434F
S11325803389FF2B00D181E0802252041743194381
S11325902C23F35C002B03D1624B9B789B0701D562
S11325A080231F432A68D369002BFCD1434659601A
S11325B02A68D369002BFCD143461F600EAB8022EE
S11325C01A7000225A70DA709A70336B0A93736B24
S11325D00B93B36B0C93F36B02930D9300270AAE2A
S11325E063E008230693073B07937AE73368059370
S11325F0F368039373690493337E9B462623F35C49
S11326009A4673689946002B18D080235B05994538
S113261001D0002025E02723F35C002B00D075E7D0
S1132620336A1F00C0B2404B984701000E2206AB2C
S11326309C46624438003D4B984712E008230693B9
S1132640002307932723F35C002B0ED0069B0093F3
S1132650079B0E2206A98C466244B16A306A344F45
S1132660B847002800D0E0E650E7336A1F00C0B244
S11326702D4B98470100069B0093079B0E2206A84A
S11326808446624438002A4FB847EAE7F37E002BB9
S113269000D17DE78023DB041F4379E72000254B2D
S11326A0984707E00137042F0DD0F9B2BB009859C1
S11326B00028F3D0431CF5D00EA90870000CC0B25A
S11326C01D4B9847EEE70023EB602B616B61AB6118
S11326D0EB612B62AB626B620022EB85AB8530331E
S11326E0EA540133EA540133EA540133EA542868C2
S11326F0074B984704001149114B9847A400114B0C
S1132700E550002091E61023069300230793E8E6A2
S1132710315300000004004051680000C567000008
S11327206D510000002000416D680000AF500000B2
S1132730D9500000B951000049690000E5270000A4
S11327403923000008040020C2791C23002A01D187
S113275018007047C28D92B2173B002AF8D1036863
S1132760DA69002AFCD1198502211A7E0A42FCD0BA
S11327700023EDE782791C23002A01D11800704759
S1132780828D92B2173B002AF8D10268107E40076E
S1132790F4D5D369002BFCD1538BDBB298061DD042
S11327A0980703D5022353831833E7E7580703D563
S11327B0042353831A33E1E7D80703D50123538352
S11327C01233DBE7D80603D5102353833233D5E71E
S11327D09B0603D5202353832133CFE7138D0B802E
S11327E00023CBE7F8B58000624BC5582C68E36939
S11327F0002BFCD1237EA67D1E403023EB5C3122CE
S1132800AF5C1F40F30722D5EB8D9BB2002B1CD08D
S1132810AA6A1378DBB2511CA962697901290ED026
S11328209BB2DB05DB0D2385EB8D013B9BB2EB8576
S1132830002B0CD1013323750133A37507E05178C4
S113284009020B430232AA62EBE701232375B307A3
S113285006D50223237500223133EA54FB071AD428
S1132860730765D5AB8D9BB2002B5FD0638BDBB256
S11328701A0714D43F221340002B34D09A0711D5E1
S11328801A223223EA54303B63837B0750D5280055
S11328906B6998474CE02800EB689847E0E73722DB
S11328A01340E9E75A0705D51E223223EA542E3B8A
S11328B06383EAE7DA0705D513223223EA54313B6E
S11328C06383E2E7DA0605D542223223EA54223B47
S11328D06383DAE720221A42D7D021323223EA5422
S11328E0123B6383D1E7238DDB05DB0DDAB2696A22
S11328F00A706A6A511C69626979012910D0AB8D2A
S1132900013B9BB2AB85002B12D10433237500220B
S11329102E33EA54BB070BD528002B69984707E0F0
S11329201B0A53706B6A01336B62E8E70423237557
S1132930F30604D5102323752376FB060ED4B306C1
S113294004D52023237523763B070BD4330704D502
S1132950082323752376BB0608D4F8BD2800EB6949
S11329609847ECE72800AB699847EFE72B6A280003
S11329709847F2E70804002010B5082803D880001F
S11329801E4B1B589F46002036E01D4B186933E050
S11329901C4B1B6A9B059B0F1B48D8402CE0184B13
S11329A0586929E0164B1B6800209B0724D515495C
S11329B01022CB681A42FCD0114B1B685B0701D470
S11329C0124819E00E4B1B689B0601D50F4813E013
S11329D000200F4B98470A4B9B681B041B0C584361
S11329E00AE05023074AD35C00205B0704D5044B5C
S11329F0D86801E08020000210BDC046F07A0000D3
S1132A001C0200200008004000127A00006CDC0266
S1132A106D68000070B50C490B6A047885784078BD
S1132A200122104080014026B34303432A40D201CF
S1132A3080208343134303222240120203480340AD
S1132A4013430B6270BDC04600080040FFFCFFFF4B
S1132A50F0B5CE46474680B5194B99469B694178F7
S1132A608C4605780679C778447980780121084036
S1132A70800004229343034360460840C0000432AC
S1132A80934303433800084080014027BB4303437A
S1132A9030000840C0018026B343034307200540AB
S1132AA02D02084803402B432140090306480340F4
S1132AB00B434A4693610CBC90469946F0BDC04610
S1132AC000080040FFF8FFFFFFEFFFFF10B5037A97
S1132AD09B061B0C42899205920D134318494B60C7
S1132AE08379C2791343428884882243134342780A
S1132AF0D20113430B600378042B11D0202B0ED189
S1132B00037B9B06028A1343C28912040D490A40BF
S1132B1013430B4A936011680B4B0B43136010BDB6
S1132B20037B9B06028A1343C289120405490A40A7
S1132B301343034A9360136804210B431360EEE7C5
S1132B401C0200200000FF0324040000082803D80E
S1132B508000254B1B589F46172044E0234A136AE4
S1132B6002210B43136200203DE0204A93690221B5
S1132B700B439361002036E01C4A138A02210B4365
S1132B80138200202FE0194A938A02210B43938277
S1132B90002028E016490B68022213430B60134BF4
S1132BA09A8419000E32CB681A42FCD0104A9168FC
S1132BB00E4BD96252689A6200229A84190010322C
S1132BC0CB681A42FCD00A4B1B689BB2074A938419
S1132BD0002008E0054944228B5C022003438B5407
S1132BE0002000E000207047147B00000008004033
S1132BF01C02002070B58CB0C222D200424B9A60F5
S1132C00424A53681E218B431A390B4353600122F5
S1132C1001AB1A7000243E4DE0B201A9A84701346B
S1132C20252CF9D13B4C2368DB0437498A695B0EB8
S1132C301B043948024013438B610AA801234370E3
S1132C40837003710722027000254571C370334BF2
S1132C5098470420324B984705AB00225D809A7157
S1132C60DA71202119705A7023689B0E3F2B49D0CA
S1132C7005A80372072303730333C381294B4381DC
S1132C80FF3B8380284B0382284B984704A80024E9
S1132C904470012585700470254B98470620204E0A
S1132CA0B047244B984701A94D604C704C720423E3
S1132CB00B700D720720204B984707201F4B984735
S1132CC00720B04710491022CB681A42FCD00E4AA4
S1132CD0938C80210B439384194A002313725372FB
S1132CE09372D37201A901224A604B704B7207336D
S1132CF00B700A720020104B984700200F4B984726
S1132D000CB070BD203BB3E7000800400040004118
S1132D105168000024608000FFFF80FF512A0000FA
S1132D204D2B0000FF01000080BBFFFFCD2A0000F7
S1132D30152A0000196600003D660000F5660000D3
S1132D400004004010B584B003AB00221A700332B3
S1132D505A70013A9A70013ADA70274B1B78834211
S1132D6007D0002807D1244B1B78002B23D1224BFA
S1132D70187004B010BD03AB1B5C204AD25CFF2A60
S1132D8000D1FEE7EFF3108251424A41019272B63C
S1132D90BFF35F8F00211A4A1170019C1749CA5C66
S1132DA00132CA54002CDED00122154B1A70BFF335
S1132DB05F8F62B6D7E703AAD35C104AD25C002ABD
S1132DC000D1FEE7EFF3108251424A41029272B6FB
S1132DD0BFF35F8F00210A4A1170029C0749CA5C45
S1132DE0013ACA54002CC2D00122054B1A70BFF319
S1132DF05F8F62B6BBE7C0468C020020F40B002054
S1132E00F900002043060BD00F2303405B00C009E8
S1132E1018180238830018188000024B18187047DD
S1132E200020FCE73C020020F0B5D6464F4646465B
S1132E30C0B589468D796BB2002B26DB28005E4B2A
S1132E40984704000F272F40038A98464B461B8857
S1132E509A46837C5B076AD4E36853441E00E360AC
S1132E60A3689E4200D874E0E360A37C01229343EC
S1132E70A3742368002B03D0E1682A00002098473C
S1132E801CBC90469946A246F0BD28004A4B984780
S1132E9004000F272F40038A98464B465E88C36878
S1132EA09C466644C66081688E4225D08D1BADB2B7
S1132EB0424B9D4206D91D0041461800404B98479D
S1132EC06D1AADB2A27C0023920707D541462800B3
S1132ED03C4B984789B24B424B41DBB25B00A27C2E
S1132EE002218A431343A374626892192B003900A8
S1132EF03548364CA047C3E7837C9B070BD4837CBF
S1132F000122934383740368002BB9D02A00310053
S1132F1000209847B4E7837C022293438374426879
S1132F209219002339002848284CA047A8E7436891
S1132F30C268944663441E0041468068214B98470A
S1132F400A007B1E9B01224959183000214B9847E7
S1132F5082E74A469288524500D086E79E4200D1D5
S1132F6083E79B1B9DB2154B9D4216D91D0041461C
S1132F701800134B98476B1A9BB2984514D9A37C3D
S1132F8004221343A3747A1E9201114BD2184346B0
S1132F9039000D48104CA04772E741462800094B00
S1132FA098476B1A9BB2E8E76268921939000648A1
S1132FB0094CA04764E7C046052E0000FF1F00002F
S1132FC0A96D0000D56B0000A00400207546000028
S1132FD020040020A5700000C946000010B5052299
S1132FE0054B1A70054C80212000054B98470021A1
S1132FF02000044B984710BD3A020020A004002092
S1133000C9450000EF45000070B5084C06212000BA
S1133010074DA84704212000A84702212000054BA2
S113302098470220044B984770BDC046A004002076
S1133030DD400000BD400000452D000070B5134B7D
S11330409B8C9B061CD41149D022CB681340D02BF7
S1133050FBD10F4C022120000E4B98470421200085
S11330600D4DA8470D4A062120000D4B9847062117
S11330702000A84703200B4B98470B4B984770BD83
S113308002491022CB681A42FCD0E2E70008004053
S1133090A0040020DD400000BD4000000930000015
S11330A099400000452D0000693C000030B583B014
S11330B004001E4B984780232268937201AD2800B8
S11330C01B4B984703236B7029002000194B98472A
S11330D019492000194B9847194B0222002120005E
S11330E0184DA847184B002200212000A847174B71
S11330F0012200212000A847022200212000144DB3
S1133100A847002200212000A84701220021200016
S1133110A84721680B890F4A1A408023DB00134318
S11331200B8100220C4B1A7003B030BD411D00000E
S1133130E9420000F942000020060020194700007F
S113314095320000F9400000B135000099310000CB
S113315049410000FFF3FFFF3A02002010B50322AB
S1133160074B1A70074C08492000084B9847084B36
S11331709A68002300212000064CA04710BDC046D9
S11331803A020020A0040020200600201947000075
S1133190080600207546000010B589794BB2002B53
S11331A006DB0E4B1B78022B0FD0032B11D010BD66
S11331B00A4B1B78012B05D0042BF8D10848094B86
S11331C09847F4E7084B9847F1E70422034B1A7039
S11331D0EDE70348034B9847E9E7C0463A0200206D
S11331E0A0040020C94500005D31000070B5204BEB
S11331F01B88204A9489E41AA4B2002C18D11E4AD0
S113320011885B189BB213801A4AD2889A4223D041
S11332101A4B1B78002B1FD1164B5B69002B23D054
S11332209847002820D00022114B1A80114B9C890A
S11332303F2C19D90022114B1A7040240C4D2B88B5
S11332400C4A9268D218230000210D480D4EB04755
S11332502B88E4182C8070BD04220B4B1A700B4988
S113326007480B4B9847F6E70122044B1A70E5E731
S11332703602002008060020380200203402002014
S1133280A0040020754600003A0200202006002019
S11332901947000010B50C002C4B1B78002B07D0ED
S11332A02B4B1B69002B00D098470022274B1A7028
S11332B02388082B02D0274B984710BD244A264B5D
S11332C01978117059785170D878000299780918D2
S11332D0518058790002197909189180D979090225
S11332E09B795B18D3801D4B9847002816D0184B48
S11332F01B787F2B15D8164BDB88002B22D000239C
S1133300174A1380174A13800122104B1A70402366
S1133310114A00211448154CA047CEE70D4B98479D
S1133320CBE700230E4A13800E4A13800222074B78
S11333301A704023084A00210B480C4CA0470C4B40
S11333409847BAE70B4B9847B7E7C0463A020020C4
S113335008060020DD2F000020060020D11D0000FB
S11333603802002036020020A0040020C9460000D4
S1133370ED3100005D31000010B5024B9847024B5F
S1133380984710BD8D1D0000753C000010B5074C1A
S113339004212000064B984702212000054B984742
S11333A00120054B9847054B984710BDA004002009
S11333B0DD400000BD400000452D00005D3C0000E4
S11333C010B5040001000A480A4B984720000A4B34
S11333D09847837CDB070AD5837C0122934383745B
S11333E00368002B03D0C16822000120984710BD58
S11333F0A004002069450000052E0000024B1B6854
S1133400188A8004400D7047A004002070B582B073
S1133410040001AD28000D4B984720000C4B984741
S11334202C700023EB700B4E290030000A4B984798
S11334300F21214000223000084B98470022210030
S11334403000074B984702B070BDC046E942000007
S1133450C1330000A0040020F94200002141000013
S113346019420000F0B583B005000F00140001AE4E
S11334703000364B98473570082C13D8002201AB26
S11334805A702800324B984704820321394001299D
S113349038D0022943D0002303293DD1042201ABB3
S11334A0DA7032E0102C03D8012201AB5A70E8E73D
S11334B0202C03D8022201AB5A70E2E7402C03D837
S11334C0032201AB5A70DCE7802C03D8042201AB41
S11334D05A70D6E780235B009C4203D8052201ABD7
S11334E05A70CEE780239B009C4203D8062201AB8E
S11334F05A70C6E7174A002394420DD8072201AB3D
S11335005A70BEE7022201ABDA7001A91248134BCC
S113351098470023002806D0180003B0F0BD03220A
S113352001ABDA70F1E70F2129400B4C0C4B002260
S113353020000C4EB0470022290020000A4EB0475C
S1133540012229002000B0470123E5E7E9420000F9
S1133550052E0000FF030000A0040020F942000033
S1133560292E0000F94000004941000010B5010077
S11335700148024B984710BDA00400209F4500005D
S113358010B504000F2303400020022B00D910BD06
S113359021000448044B98472000044B984701201D
S11335A0F5E7C046A0040020C9450000C13300006F
S11335B070B5344B1B78012B0AD0022B5FD0324BF1
S11335C01B69002B00D0984700222E4B1A7070BD47
S11335D00D882D4B9B892D4A14886219934201DA78
S11335E01D1BADB2284B986800192A002849294BA5
S11335F098476419A4B2254B1C80402D0AD0224B55
S11336009C815B69002B02D09847002814D0224B80
S11336109847DCE71C4BDA88204B1B881B199A421D
S1133620EDDD194B9B89A3420CD04023184A00219D
S11336301B481C4CA047CAE70522124B1A701A4BB0
S11336409847C4E7104B5B69002B0BD098470028C0
S11336500FD012490D4A0B8810881B180B800023C9
S11336601380E2E70522074B1A7000200E4B98479F
S1133670ADE70522034B1A700B4B9847A7E70B4B9A
S11336809847A4E73A0200200806002036020020EA
S113369020060020A57000005D31000038020020E3
S11336A0A0040020C946000081350000ED3100006F
S11336B070B504000F2303400020022B00D970BD15
S11336C02000094B9847050021000848084B9847FB
S11336D0AB7C0120DB07F2D5AB7C01229343AB74B6
S11336E02B6898470120EAE7052E0000A00400207B
S11336F0EF450000F8B504000D000F230340002639
S1133700022B05D80D4B98470700837CDB0701D5B6
S11337103000F8BD21000A480A4B9847061E05D020
S1133720BB7C01221343BB743D60F1E721000448D4
S1133730054B9847061EEBD0A847E9E7052E000085
S1133740A00400209F4500003D450000F0B587B06F
S113375005000391029201930F2606400024022ED5
S113376002D9200007B0F0BD644B9847041E00D076
S1133770BDE02800624B98470700EFF310835A42DC
S11337805341059372B6BFF35F8F00225D4B1A70ED
S1133790059A837CDB0708D5002AE2D00122594B25
S11337A01A70BFF35F8F62B6DBE7837C01210B43A2
S11337B08374002A05D00122524B1A70BFF35F8F25
S11337C062B6029B7B60019BBB600023FB600C9B89
S11337D03B600123039A13405A00BB7C02218B43B4
S11337E0134304229343BB746BB2002B20DB019B75
S11337F0002B6FD09CB2444B9C425AD9398A1C008E
S11338001800424B9847631A9AB23B8A9A4257D29D
S1133810BA7C04210A43BA74721E92013C495218BC
S113382031003C483C4CA04744424441E4B298E750
S1133830019B002B27D09DB2334B9D4206D9398A78
S11338401D001800314B98476B1A9DB2BB7C9B0737
S113385007D5398A2800314B984789B24C424C41EC
S1133860E4B2012020404000BC7C02239C4304437A
S1133870BC742B00029A31002648294CA0474442CC
S11338804441E4B26DE7BB7C9B0705D5BB7C0222B7
S11338909343BB740025ECE7BB7C01229343BB74C8
S11338A00C9B002B25D02A000021002098470124DE
S11338B057E7398A2000194B9847631A9AB2A4E74C
S11338C01300029A31001348134CA0474442444168
S11338D0E4B246E7BB7C01229343BB740C9B002BF0
S11338E009D02A00002100209847012439E7002448
S11338F037E7012435E7012433E7C0466D3500007E
S1133900052E0000F9000020FF1F0000A96D000033
S113391020040020A0040020C9460000D56B00004C
S113392075460000024B1B68802210439872704752
S1133930A0040020024B1B68987A4006400E704792
S1133940A0040020014B986099817047080600206C
S113395010B5054B1A68138901210B43138101200B
S1133960024B984710BDC046A0040020452D00001E
S113397070B50320164B9847164C22681389012111
S11339808B431381144A03312000144EB047144A68
S113399000212000B047134A01212000B047124AF9
S11339A002212000B04704212000104DA847002127
S11339B02000A84701212000A84702212000A84791
S11339C00B4A06212000B04706212000A84770BDFD
S11339D0452D0000A00400208D3300009940000014
S11339E079330000AD3000003D300000BD400000E0
S11339F00930000010B500210E20084B9847084BF1
S1133A001B6A5B0406D4074B984700210E20064B23
S1133A10984710BD054B9847F7E7C046814F000013
S1133A200044004151390000614F00007139000029
S1133A3070B586B0EFF310835A425341019372B6C6
S1133A40BFF35F8F0026294B1E70019D05AC20003B
S1133A50274B9847A670274E220027493000274B52
S1133A6098473000264B9847264B9B8C9B0634D4B2
S1133A702449D022CB681340D02BFBD10120224B08
S1133A80984702AC2000214B98470E230293002351
S1133A90636023720333E372023BA37200210E209E
S1133AA01B4B984721000E201A4B984700220E21E9
S1133AB019481A4B984700210E20194B9847194B67
S1133AC01B6A5B040FD4002D05D00122074B1A702A
S1133AD0BFF35F8F62B606B070BD0A491022CB688F
S1133AE01A42FCD0CAE70C4B9847ECE7F9000020D7
S1133AF0254D0000A004002000500041354D000079
S1133B004947000000080040452D0000A92200009C
S1133B10814F0000BD220000F5390000354F000040
S1133B20614F000000440041F0B5C64600B50C00EA
S1133B30904600280FD1002A11DD8F18094E0A4D36
S1133B40306821002B6898470134BC42F8D14046C4
S1133B5004BC9046F0BD01235B429846F7E78046DB
S1133B60F5E7C0466806002060060020F0B5C646AA
S1133B7000B50E0015000138022810D8002A11D013
S1133B8000240C4B98460C4F43461868315D3B6843
S1133B909847002808DB0134A542F5D106E001244A
S1133BA0644203E0140001E001246442200004BCE8
S1133BB09046F0BD680600206406002070B501211F
S1133BC0164B1970BFF35F8F62B6154B00221A7043
S1133BD05A709A70DA701971124B9847124B9847C1
S1133BE0124B9847124B9847124B9847124B9847E1
S1133BF0124B9847124B9847124B9847124B9847D1
S1133C00124B9847124E134C134D3378002BFDD1B1
S1133C102278002AFAD0A847F7E7C046F900002026
S1133C20F40B00207D690000315B0000653F00005B
S1133C304D400000713E000075070000D1080000EF
S1133C408D0B0000B53C000005400000351D000050
S1133C505A03002058030020551A000010B5014BE8
S1133C60984710BD4D40000010B5014B984710BD5A
S1133C705D40000010B5054B1B78002B00D110BD32
S1133C80034B9847034B9847F9E7C0465803002075
S1133C90FD330000754000000122024B1A70012020
S1133CA07047C046580300200022014B1A70704729
S1133CB0580300207047704770B582B005000E00AD
S1133CC000226B46DA80064C6B46991D2800A047FB
S1133CD00028F9D16B4606331B88337002B070BDDF
S1133CE07527000070B505008CB2034E2100280032
S1133CF0B0470028FAD170BD4927000010B5334BF6
S1133D001B6ADB0000D510BD0020314B98476422AC
S1133D10002300212F4CA0472F4A0023801859412B
S1133D202E4A00232E4CA0472E4B9847274B1B6A44
S1133D30DB00E8D42C4B1B78002B23D080225201CB
S1133D40224B9A6129490A784B781B0213438A78DB
S1133D5012041343CA7812061A4304211F20E024D4
S1133D6093681942FCD15379834305D0402B05D085
S1133D70202BF5D11471F3E74023537100221A4B21
S1133D801A70C0E780225201104B5A6117490A7811
S1133D904B781B0213438A7812041343CA78120621
S1133DA01A4304211F20E02493681942FCD153795B
S1133DB0834305D0202B05D0402BF5D11471F3E7B4
S1133DC0202353710122084B1A709CE700440041E0
S1133DD039670000716E0000571B0000581B00007B
S1133DE0316E0000010000205A030020B0060020BC
S1133DF010B5174B1B6A1B0700D510BD0020154BCF
S1133E009847642200230021134CA047134A00233F
S1133E1080185941124A0023124CA047124B98476C
S1133E200B4B1B6A1B07E8D4104B1B78002B07D1E4
S1133E3080221202064B5A6101220C4B1A70DCE7F5
S1133E4080221202024B9A610022084B1A70D4E7B6
S1133E500044004139670000716E0000571B0000E8
S1133E60581B0000316E000001000020590300209F
S1133E70F0B591B08023DB05009300230193FF226A
S1133E8069460A8100228B72CB7201242421684680
S1133E9044540131445401314354013143540A938D
S1133EA0053143540131435405930382C3760276AA
S1133EB00277427613238376427780235B0303934E
S1133EC01A4B0C931A4B0D9301235B420E930F93E1
S1133ED0E1235B020893174D174B1D60174A184BDB
S1133EE01A60184A184B1A606A4618492800184B79
S1133EF09847184F3B6898680021174EB0473B68B5
S1133F0058680021B0472E683000144B98471F238F
S1133F1018408440124B1C602A68D369002BFCD1E2
S1133F20336802221343336011B0F0BD020016005F
S1133F30020017007806002068060020E53C000017
S1133F4064060020B93C0000600600200014004212
S1133F5005240000FC000020C77000007523000049
S1133F6000E100E0F0B5C64600B584B003AC01251D
S1133F7065700026A670257021000C201C4B984605
S1133F8098471C4F80235B01BB6121000D20C04773
S1133F9080239B01BB6121000F20C04780231B02AB
S1133FA0BB616846144B98471C23009301966B46EB
S1133FB01D720324DC7269460820104FB84702239F
S1133FC0009301966B461D72DC7269460220B84765
S1133FD0009401966B461D72DC7269460320B84753
S1133FE08022D205064B5A6104B004BC9046F0BD51
S1133FF0F565000000440041A9220000BD22000034
S11340008044004110B5002208210B480B4CA04706
S1134010002202210A48A047002203210948A047A0
S113402000210820084CA04700210220A0470021BD
S11340300320A04710BDC046FD3C0000354F0000E2
S1134040B73C0000F13D0000614F00008022D20522
S1134050014B9A617047C046804400418022D205DA
S1134060014B5A617047C046804400417047704715
S113407070477047002804D18022D205054B5A614D
S11340807047FA239B009842FAD18022D205014B53
S11340909A61F5E78044004110B50B002E339B0074
S11340A01A50AA2252004900835A034C095B0B435D
S11340B08352002010BDC0464C7B00004900064BD3
S11340C0CB5A02689383AB214900425A1A434252A5
S11340D002681383002070474C7B00004900054BA5
S11340E0CA5AAB214900435A9343435203689A8204
S11340F0002070474C7B000010B58C00A4183434A9
S1134100A4000419636040185930FF300378034950
S11341108A5C13430370002010BDC0465C7B000022
S113412010B58B009B1834339B00C31800245C60CB
S113413040185930FF30034B9A5C03789343037063
S1134140002010BD5C7B000070B50F230B40C41829
S11341506134FF3425782F4EB65C35432570002A30
S113416029D1002B12D103250A24FF3406683555C2
S1134170032A09D149B2002944DB02685B01D31840
S11341800A33FF3320221A70002070BD4CB2002C79
S113419008DB5C010568AC4664440A34FF3401253D
S11341A02570E5E75C010568AC4664440A34FF34D5
S11341B002252570DCE7012A1AD1002B05D10268FB
S11341C00C210A23FF33D154DEE749B2002907DB6F
S11341D002685B01D3180A33FF3304221A70D3E751
S11341E002685B01D3180A33FF3308221A70CBE745
S11341F0022ABDD102685B01D3180A33FF331022AF
S11342001A70C1E702685B01D3180A33FF334022F6
S11342101A70B9E75C7B000070B50F230B40C4181B
S11342206134FF342F4DAE5C2578B5432570002AE8
S113423029D1002B12D10325842464000668355546
S1134240032A09D149B2002944DB02685B01D3186F
S11342500933FF3320221A70002070BD4CB2002CA9
S113426008DB5C010568AC4664440934FF3401256D
S11342702570E5E75C010568AC4664440934FF3405
S113428002252570DCE7012A1AD1002B05D102682A
S11342900C210933FF33D154DEE749B2002907DB8F
S11342A002685B01D3180933FF3304221A70D3E781
S11342B002685B01D3180933FF3308221A70CBE775
S11342C0022ABDD102685B01D3180933FF331022DF
S11342D01A70C1E702685B01D3180933FF33402227
S11342E01A70B9E75C7B000000230370437083708D
S11342F00133C37070470000F0B50C780F232340DE
S113430064B2CA78042A70D89200894DAA58974694
S1134310026808335B0100219954002282E05C01A9
S113432002689446644480225200A55CE43A6D0716
S113433078D1E432A65C7025E43A2E4272D15F3D16
S1134340E432A5541A00083252010468A4182F3527
S1134350657100688218802010718A78002A1FD045
S11343605801744A121854688020000604435460AB
S113437054692043506107254C785A016D4B9B18B2
S113438058682C4024076C4E3040204358604978CC
S11343905A692940090732400A435A61002241E020
S11343A05801644A1218506840004008506050692F
S11343B0400040085061DEE7002C35DB5D010268F7
S11343C09446654480225200AE5CE43A760729D1D3
S11343D080267600AA5D02273A43AA55026818008F
S11343E008304001121840205071E20F4F785D00F0
S11343F0AD182D014F4E7519686807243C402407F9
S11344004D4E3040204368608978002900D088E010
S11344105B009B181B01474AD3185A685200520884
S11344205A6000221000F0BD5D01026894466544A4
S113443080225200AF5C7026E43A3742F2D19036C3
S1134440AA5D20273A43AA550268180008304001A3
S1134450121880201071C8E7002C17DB5D01026878
S11344609446654480225200AE5CE43A7607D9D182
S113447080267600AA5D03273A43AA5502681800ED
S113448008304001121840205071AEE75D01026807
S11344909446654480225200AF5C7026E43A374269
S11344A0C0D19036AA5D30273A43AA550268180055
S11344B00830400112188020107196E7002C17DB99
S11344C05D0102689446654480225200AE5CE43A81
S11344D07607A7D180267600AA5D04273A43AA5519
S11344E002681800083040011218402050717CE71F
S11344F05D0102689446654480225200AF5C7026D8
S1134500E43A374200D08DE79036AA5D40273A431B
S1134510AA55026818000830400112188020107152
S113452063E7696880231B060B436B60002279E70D
S1134530387B0000F0060020FFFFFF8F0F230B40A5
S113454049B2002909DB026808335B01985C400723
S1134550400F431E9841C0B27047026808335B01A4
S1134560985C4006400FF4E70F230B4049B2002942
S11345700ADB08335B010268D218402151710268DA
S1134580D3180122DA71704708335B010268D2182C
S1134590802111710268D3180222DA71F3E70F2324
S11345A00B4049B2002907DB026808335B01D318CA
S11345B09879C006C00F7047026808335B01D318AE
S11345C098798006C00FF6E70F230B4049B2002903
S11345D006DB026808335B01D31810225A71704756
S11345E0026808335B01D31820225A71F7E730B50B
S11345F00F230B4049B200291DDB590102685218F0
S113460083246400145DE40614D510258224640018
S11346101555026852180821FF31515C890609D5E5
S1134620E43C0821FF315454026808335B01D31879
S113463001221A7130BD59010268521883246400A2
S1134640145DA406F6D5202582246400155502685D
S113465052180821FF31515C4906EBD5C43C0821AE
S1134660FF315454026808335B01D31802221A71D3
S1134670E0E7000030B50C00083464010568645DAF
S11346806406640F1C25002C01D1280030BD4C01A8
S11346900B4D2D192C002A616A690A4D2A4062616A
S11346A062699B049B0C920B92031343636103683E
S11346B008314901591880234B710025E5E7C046AC
S11346C0F0060020FF3F00F030B50C000834640110
S11346D00568645D64071C25002C01D1280030BDE9
S11346E00B4C4D012A51621954689B041B09094D56
S11346F02C402343536053689B0B9B035360036814
S113470008314901591840230B710025E6E7C046DA
S1134710F0060020FF3F00F0094B19605A68094970
S11347201140802292020A435A605A68920B920303
S11347305A600268402182235B00D15400207047F4
S1134740F0060020FF3F00F00268137802210B43BB
S1134750137002689378022BFCD07047F0B5DE46E4
S113476057464E464546E0B583B0C24B1F683D6888
S11347702B78DB0914D12E8CB6B2002E00D0A9E11F
S1134780AE8BB6B2AB235B00FB5AAA225200BD5AD1
S11347901D4035400024B84FB64B9946984684E1F5
S11347A02B8C9BB2002B00D1DEE0288C80B2B34B63
S11347B0984704001F2800D9D6E0030008335B01A2
S11347C0ED18ED79EDB2AB0741D0AD4A012383403A
S11347D0116899431160030008335B013A689446F9
S11347E063440322DA713B18AE331B78DB072ED502
S11347F0A44B18703A68030008335B019B5C9B0769
S11348009B0F012B00D181E042019F4B9B185A68FA
S11348101201920C90B29B494A805A689204920CFD
S11348208A805A6899490A405A60002807D162016F
S1134830954B9B185B689B049B0C924A53808D4B51
S11348401868A31C1B01C3185B688E4998476B0743
S11348500ED58B4A0123A340116899431160854BFF
S11348601B681B682200083252019B180422DA716B
S11348702B0714D5824A0123A34011689943116080
S11348807C4B1868230008335B0102689446634438
S11348900822DA710319AE331B789B0747D4EB0661
S11348A014D5774A0123A340116899431160714BD1
S11348B01868230008335B0102689446634410229D
S11348C0DA710319AE331B785B073ED4AB0600D410
S11348D0B0E06B4A0123A340116899431160654B12
S11348E01868230008335B0102689446634420225D
S11348F0DA710319AE331B781B0700D49AE06149BF
S11349000C7024010419236B984793E042015E4B19
S11349109B185A689204920C5A494A805A681201A8
S1134920920C8A805A68920B92035A6087E7554921
S11349300C706201544B9B18DB891F2213404B708F
S11349402301C3189B6A9847A9E74E490C7062017A
S11349504D4B9B185B681B019B0C4B802301C318B8
S1134960DB6A00219847B1E7AC8BA4B2630705D595
S11349700423AB83A133FB5CDB0762D423070BD591
S113498000223F4B1A603B4B18680823026893834C
S11349909D33C35C9B0758D4630608D5354B186810
S11349A04023026893836533C35CDB0650D4A306BB
S11349B008D5304B18682023026893838533C35C81
S11349C01B0748D4E30608D52A4B1868102302684D
S11349D093839533C35C5B0740D423060BD5002235
S11349E0274B1A60234B186880230268938325336E
S11349F0C35C9B0635D4E3050CD50022204B1A601A
S1134A001C4B186880235B00026893835B3BC35C88
S1134A105B0629D4A3050DD50022194B1A60154B4A
S1134A20186880239B00026893835C3BFF3BC35C54
S1134A307F2B1CD803B03CBC90469946A246AB469B
S1134A40F0BD7B683800984798E783689847A3E7E8
S1134A5043699847ABE703699847B3E7C368984746
S1134A60BBE783699847C6E7C3699847D2E7036AF7
S1134A709847DFE75C0300204C7B0000F16D0000E9
S1134A806C03002070030020F0060020FF3F00F0BC
S1134A9023002E339B00424612689B589E4942468F
S1134AA0106898470134072CC4D06300DB5B3342A1
S1134AB003D04A461268126893832B42F2D0062C24
S1134AC0E6D1964B1B891B09802252001340924A5F
S1134AD01360DDE73C005934FF340023012294467F
S1134AE05F329146503A92460D3A9346B8462F00AB
S1134AF0B9E02A003D00474690465B01ED180823C3
S1134B00FF33EB5C5B0616D540220823FF33EA54DF
S1134B10883BFF3B42461343814A937160230B4217
S1134B2000D187E7019B1B01FB18E0331B687C491C
S1134B30380098477EE70823FF33EB5C9B06EDD5EE
S1134B4020220823FF33EA54754B42469A71E5E765
S1134B503D004746019A130008335B01ED1810230A
S1134B60EB71BB186133FF331B78DB0600D461E7BC
S1134B7010005201694B9B185B689B049B0C6849AD
S1134B800B800301FB18DC331B684046984751E750
S1134B902A003D00474690465B01ED180823FF3389
S1134BA0EB5C9B071ED502220823FF33EA545C48C2
S1134BB0883BFF3B424613438371019B5A01574B89
S1134BC09B1810335B689B049B0C43808B0700D1BC
S1134BD030E7019B0D331B01FB185B68504938001B
S1134BE0984727E70823FF33EB5CDB07EED5012268
S1134BF00823FF33EA544A4843468371019B5B010F
S1134C00464AD21853689B049B0C038053681B01CB
S1134C109B0C8380DAE70822FF329A5C52076ED538
S1134C2004200822FF329854019842013B4B9B1800
S1134C309B7A9B0705D5394B9B189A7A02208243AD
S1134C409A72374B42469A71019B08335B013A686A
S1134C5094466344DB79DB0751D5EBE60133013439
S1134C60082B00D1E6E6DDB2019332001A41614619
S1134C701142F3D01A0008325201BA18D279D2B2D2
S1134C80217A1140207801404846104200D030E794
S1134C905046104200D05BE75846104200D077E7F8
S1134CA00C201042DAD02A003D00474690465B01B2
S1134CB0EB180822FF329A5C1207ACD5043808229C
S1134CC0FF32985401984201144B9B189B7E9B071A
S1134CD005D5124B9B189A7E022082439A76802334
S1134CE05B42424613430E4A9371019B08335B01B6
S1134CF03A6894466344DB799B0700D59AE60C2313
S1134D000B4200D196E6019B1B01FB18D8331B68AC
S1134D100349380098478DE660030020F006002020
S1134D206403002000220270012343708270C37068
S1134D3070470000F0B5CE46474680B583B0040006
S1134D400D00160000236E4A13606E4A1060216045
S1134D506D49CA6920200243CA6101AF7B700122F8
S1134D60BA70FB70063399463B7039000838674BBC
S1134D70984698474B463B7039001920C047B37892
S1134D806A46137069460620614B98470620614BBA
S1134D9098472B78012213432B70AB78DB07FCD4A4
S1134DA05D4AD37803218B4302210B43D370D3781C
S1134DB00C218B4308210B43D370584B1B689B0376
S1134DC0DB0E1F2B00D18FE02A8D9B0154490A4032
S1134DD013432B85514B1B685B02DB0E1F2B00D149
S1134DE084E02A8D1F218A4313432B854B4B1B6878
S1134DF09B015B0F072B00D17AE02A8D1B034949E5
S1134E000A4013432B8532782978D2017F230B4043
S1134E1013432B7071782B7801220A4092000421ED
S1134E208B4313432B70404B6B62F378012B61D09F
S1134E30002B06D1226813890C218B4304210B43D8
S1134E4013818022520000213748384B9847231D94
S1134E5021002431002204C38B42FCD12100A4315F
S1134E6000221A605A609A60DA6010338B42F8D1DB
S1134E700023A422A3540132A3542300A633210007
S1134E80AE3100221A701A7201339942FAD123000A
S1134E90B8332100D431002204C38B42FCD1210059
S1134EA05531FF3100221A605A609A60DA6010337B
S1134EB08B42F8D10023AA225200A3520232A352F9
S1134EC023005933FF336134FF3400221A701A72FD
S1134ED00133A342FAD18022154B1A60002003B09B
S1134EE00CBC90469946F0BD1A3B6DE7023B78E74F
S1134EF0043B82E72268138908318B431381A0E7BE
S1134F006C0300205C030020000400404969000099
S1134F1051680000C5670000005000412460800013
S1134F203FF8FFFFFF8FFFFFF0060020B77000007F
S1134F3000E100E01723002A01D0180070478B001D
S1134F40064A9B58002B03D0834205D01D23F4E767
S1134F50890088500023F0E70023EEE7C80300200F
S1134F601723002901D01800704700221F2800D8F9
S1134F70024A01238340D3600023F4E70018004071
S1134F801723002901D01800704700221F2800D8D9
S1134F90024A0123834093600023F4E70018004091
S1134FA070B50022104B1A70002310491F25104EB3
S1134FB00D4C0AE00D4908E023780133DBB223707D
S1134FC00F2B10D800211F2BF4D9280018400122E0
S1134FD0824008691042EFD00A619B009B59002B64
S1134FE0EAD09847E8E770BDF007002000180040B9
S1134FF0C8030020F0B5DE4657464E464546E0B5A8
S113500087B08046049116001F000022002300216F
S11350108B463F2401202100009601975C460394AF
S11350204446059413E02024641A0500E540A8468C
S113503014E0009C019D121BAB415C464D462C4381
S1135040A346039C45462C430394013925D32024CD
S113505064420C19E7D40500A540A84604008C401E
S1135060A14692185B4114001D00059E4F463E4028
S1135070B446049E47463E40B246664657463E43C3
S113508003D00600264332002B00009C019D9D4264
S1135090DBD8CED19442D8D8CBE7039B584619002D
S11350A007B03CBC90469946A246AB46F0BD10B54D
S11350B0490840230024814202D2180010BD1C007C
S11350C0091A631C9BB28842F9D94023FF2CF4D8F7
S11350D014800023F1E70000F0B583B00F00160040
S11350E008AA117804004C434022BC4202D91000A3
S11350F003B0F0BD002B14D1020008000021194CAC
S1135100A04701003A0000230020174CA0470022CA
S11351100123121A8B41120C1B041A433280002201
S1135120E5E70022012BF9D10A00002300210D4CF0
S1135130A04702000B0000920193380000210A4CA2
S1135140A047050080239B0140229842CFD8790FC5
S1135150F800009A019BA047EA00821AD2B25203D7
S11351602A43DBE7716E0000F54F000010B582B0F2
S113517004000E4B1B78002B07D0002905D10B4BE4
S11351805B78834210D01D200CE001A90C70132021
S1135190074B98471320074B9847044B5C70012238
S11351A01A70002002B010BD0020FBE77803002035
S11351B051680000C5670000404B984231D00AD9BD
S11351C03F4B98424DD03F4B98425AD03E4B984269
S11351D037D0002070473D4B98420CD03C4B98424E
S11351E0F7D1012917D000295DD0022915D0032950
S11351F015D00020EEE7012907D0002951D002295B
S113520005D0032905D00020E4E73248E2E732481C
S1135210E0E73248DEE73248DCE73248DAE7324892
S1135220D8E7012907D000293FD0022905D0032956
S113523005D00020CEE72D48CCE72D48CAE72D48FD
S1135240C8E7012907D0002931D0022905D0032954
S113525005D00020BEE72848BCE72848BAE728481C
S1135260B8E7012907D0002923D0022905D0032952
S113527005D00020AEE72348ACE72348AAE723483B
S1135280A8E7012907D0002915D0022905D0032950
S113529005D000209EE71E489CE71E489AE71E485A
S11352A098E71E4896E7032094E71D4892E71D48B7
S11352B090E71D488EE71D488CE7C0460010004269
S11352C000180042001C0042001400420008004282
S11352D0000C004203000500030006000300070061
S11352E00300010003001E0003001F000300090067
S11352F003000A0003000B00030011000300120066
S11353000300130003000D0003000E0003000F0050
S11353100300170003001800030019000300040031
S1135320030008000300100003000C000300160033
S113533030B587B00B4B6A4632CB32C232CB32C265
S1135340009B83420BD001239A0069465258824243
S113535006D00133062BF7D1002007B030BD00235F
S1135360D8B2FAE7607B000070B582B006000D0089
S113537000226B46DA800468E369002BFCD18F338A
S11353802375237623680222934323603068C3691C
S1135390002BFCD1124B98471430C0B2114B9847E4
S11353A001006B469A1D28000F4B9847002802D035
S11353B0172002B070BD6B4606331B782373336825
S11353C0DA69002AFCD1DA69002AFCD11A680221C0
S11353D00A431A603268D369002BFCD1E9E7C0465E
S11353E0315300006D680000AF500000F0B5D646A0
S11353F04F4680B58BB081460F001400030019603E
S11354000B689B0709D40B680520DB0700D4B1E0C7
S11354100BB00CBC91469A46F0BD936A0593D36ACF
S11354200693136B0793536B0893002605AB019304
S11354300AE03800AF4B98470CE00F231840814234
S11354402DD10136042E2FD0F1B2B300019A985811
S11354500028EED0431CF4D00104090C000CC3B2A4
S11354609C460023020605D463465B09DB01A24A7D
S1135470924653441F2260460240981840300078F8
S1135480824680205546ED07D9D552089B18303303
S11354901878C0B26346DB07CFD50009CFE70023F5
S11354A04A4613601C20B3E71320944B9847227894
S11354B00025012A16D02178002927D13B68E27FF4
S11354C01204A07F02431C209A42A1D1A369A28B9B
S11354D00430205C002801D040200243082003430C
S11354E01D4314E004AA0100A069854B98470300FA
S11354F01720002B00D08BE73B7BDBB204AA127889
S113550005309A4200D083E70C35D4E70022636863
S1135510A0680343E06803432B43207C0243607C80
S1135520002801D080200343A07C002802D08020E2
S113553080020243E07C002802D0802080000243E5
S1135540207D002802D08020800102433868022593
S11355502B43834204D000234A4613601C2057E7A0
S11355607B689342F7D14B465971237C4A46937129
S113557000204DE70800634B9847634A116A851C75
S11355800123AB400B43136209A92426A35D0B70CE
S11355901430C5B228005D4B984728005C4B9847EF
S11355A0A05D00215B4B98472378012B20D0237802
S11355B0002B03D13B68082213433B604B461E6813
S11355C004AB80221A7000225A7001219970DA709B
S11355D02378002B01D104AB9A70A36A0593E36A84
S11355E00693236B0793636B0893002705AD11E0C3
S11355F03B680C2213433B60D9E730003D4B98478E
S11356000DE004A90870000CC0B2434B9847013761
S1135610042F07D0F9B2BB0058590028EDD0431C21
S1135620EFD1F4E723784A465371237C9371A37C2A
S1135630D371237D1372002202ABDA802378012B0D
S113564012D02378002B27D1A069A28B736AE17F43
S11356500904A57F2943194371622023E35C002BCD
S11356601CD040231A4319E04B461868254B984731
S11356701430C0B2214B9847010002AB9A1DA069B7
S11356801F4B984703001720002B00D0C0E602AB45
S113569006331B783373D4E7002200206368A168C3
S11356A00B43E1680B430343217C0A43617C0029DB
S11356B003D11A498978890701D580210B43A17C3C
S11356C0002902D0802189020A43E17C002902D00A
S11356D0802189000A43217D002902D0802189018B
S11356E00A4331680B43336073681A4372600020C5
S11356F08EE6C046B9510000004400416D680000C8
S1135700AF50000031530000000400405168000015
S1135710C56700006D510000496900000020004188
S1135720F0B5D6464F464646C0B582B088461727E0
S1135730002A73D0C179053700296FD04179002937
S113574003D101680C7EA4070BD4013A94B200255E
S11357500422022189460126DB05DB0D9A46C44654
S113576037E002240C76F0E701680B7E3342FCD06C
S11357700B7E334209D053468B622DE03B7E494673
S11357800B4238D13B7E134245D001680B7E134255
S1135790FCD00B7E134240D04B8B00270197134261
S11357A002D04A831E2301938379012B27D08B6A6D
S11357B0DBB20199002938D16F1CBFB261464B5549
S11357C0817901291FD03D00013CA4B218498C42C3
S11357D01FD04379012BC7D04379002BD5D107685B
S11357E03B7E1342CAD1134B397E1142C6D1013BD1
S11357F0002BF9D1C2E702233B7604270EE0896A25
S1135800C905CB0DD5E70235ADB2190A6346D955A2
S1135810DAE7019F02E0122700E01027380002B007
S11358201CBC90469946A246F0BD019FF6E7C046CF
S1135830FFFF00001027000010B544791523012C48
S113584001D0180010BD047A0023002CF9D1002ADD
S113585058D04B78002B44D003681B7EDB0710D450
S11358600A78D1090023002904D15309DB012E4908
S11358708C4663441F21114001228A409A6105230A
S1135880DFE70A78D4090023002C04D15309DB0193
S1135890254CA44663441F2414400122A2405A61AB
S11358A003681A7ED20701D58A789A62C2790023E6
S11358B0002AC6D102680421137E0B42FCD0117E5B
S11358C000234907BDD5538B5B0701D504235383BC
S11358D08379012B02D0936A0023B2E7936A0023F1
S11358E0AFE70A78D1090023002904D15309DB0169
S11358F00D498C4663441F21114001228A405A619C
S113590000239EE70A78D1090023002904D1530912
S1135910DB0105498C4663441F21114001228A4062
S11359209A6100238DE7C04600440041F0B5DE468D
S113593057464E464546E0B583B01723002A07D1A3
S1135940180003B03CBC90469946A246AB46F0BD55
S11359504379002B03D103681C7EA4070AD4934621
S1135960002401230225AC460235A846013A92B22E
S11359708A4623E002241C76F1E7357E61460D4217
S11359802ED1357E1D4200D1C2E00668357E1D420F
S1135990FCD0671CBFB251460D5D8179012923D02B
S11359A0ADB23C00377E1F4202D0ED05ED0DB5626D
S11359B0551EADB2C679002E1DD12A00594DAA42FA
S11359C070D04579002DE0D10668357E1D42D4D1D2
S11359D0554D377E1F42D0D1013D002DF9D1CCE782
S11359E0022333760233ABE70234A4B25146CF5DCF
S11359F03F023D43D6E751464579002D37D14B4D03
S1135A00019112E00234A4B24946019F795C090273
S1135A10009F0F431BE0013A92B20668377E41466D
S1135A200F421BD1013D002D18D0002AF5D0066885
S1135A30377E1F42F1D0671CB9B289460199095DCE
S1135A40009181790129DDD069460F884C46317E69
S1135A501942E0D0FF05FF0DB762DCE70199357EFE
S1135A6067463D4218D1357E4646354252D00668D7
S1135A70357E47463D42FBD0357E3D4207D0758B8F
S1135A803D4200D077838579012D09D0B56A5D4602
S1135A90013DADB2AB4669E70223337602334FE7EB
S1135AA0B56AF4E74379012B0BD0002B34D1C279CA
S1135AB0002A00D144E704245B465D46002B19D13B
S1135AC03EE7016802220B7E1342FCD0002337E735
S1135AD00B7E234222D00B7E234207D04B8B2342E2
S1135AE000D04C838379012B10D08B6A013DADB279
S1135AF0002D15D001680B7E2342E9D10A4B0A7EA2
S1135B002242E5D1013B002BF9D1E1E78B6AEDE7B5
S1135B10122315E7122313E7002311E712230FE7DB
S1135B2000230DE7FFFF00001027000011270000ED
S1135B307047000010B504000F4B9847012819D096
S1135B40002803D0022810D0012010BD0B4B1B5D90
S1135B500220002BF9D12000094B984703000320B1
S1135B601840434258414000EFE70022034B1A55C6
S1135B700220EAE70320E8E7AD0B00007C030020E5
S1135B805D10000010B50020014B984710BDC046C1
S1135B90355B000070B504000D00044B98474000CD
S1135BA0013828602000024B984770BD8510000022
S1135BB0355B000010B501000020014B984710BD73
S1135BC0955B000010B50020014B984710BDC046FE
S1135BD0AD10000001207047F8B51400244B98471D
S1135BE0002804D00238434258410130F8BD013442
S1135BF0A2B201271F4E08E01F4810E000201F4BEF
S1135C009847002826D100272200541EA4B2002A57
S1135C101CD0002C20D001252540EDD018480121AE
S1135C20B047002814D1002FE8D11549002D00D029
S1135C3011490023802292000120124DA847002818
S1135C40DCD101200D4B98470120CFE70020CDE7A0
S1135C500120CBE70120C9E7002FD4D10023802203
S1135C60920007490120074DA8470028CBD1E8E757
S1135C70B110000039110000F40900206511000082
S1135C80F4070020051B000010B50A0001000020E5
S1135C90014B984710BDC046D95B0000F8B514000D
S1135CA0204B984700280DD0023843425841013018
S1135CB0F8BD1D481BE00130002DF9D11B4B98475E
S1135CC00120F5E70125194F194E08E00020EFE700
S1135CD00120EDE7002C11D1013CA4B20025154BA5
S1135CE09C42F3D0002DF5D1E307E2D512480121FF
