:10000000002A00207D1D0000791D0000791D0000E0
:1000100000000000000000000000000000000000E0
:10002000000000000000000000000000791D00003A
:100030000000000000000000791D0000791D000094
:10004000791D0000791D0000791D0000791D000058
:1000500079120000791D000015010000B10C0000AC
:10006000791D00007D0500008D0500009D05000044
:10007000AD050000BD050000CD050000C90400006D
:10008000D9040000E9040000791D0000791D00007A
:10009000791D0000791D0000791D0000791D000008
:1000A000791D0000791D0000791D0000791D0000F8
:1000B0000000000010B5064C2378002B07D1054B3B
:1000C000002B02D0044800E000BF0123237010BDC4
:1000D000200000200000000054230000084B10B551
:1000E000002B03D00749084800E000BF0748036819
:1000F000002B00D110BD064B002BFBD09847F9E731
:1001000000000000240000205423000054230000BD
:100110000000000010B5264B984726490B8C0F2293
:1001200013409B002448185803781A403F23CA54B0
:100130000F33CA5CD2B203781B012049C918498821
:100140001F4CE3185B88CB1A4361D3070FD50121FD
:100150004E23184AD1543E3B4374037CDB0703D53E
:100160004368002B00D09847164B984710BD930763
:100170000DD502214E230F4AD15400234374037C32
:100180009B07F1D58368002BEED09847ECE7530727
:10019000EAD504214E23074AD154483B4374037CDB
:1001A0005B07E1D5C368002BDED09847DCE7C0468B
:1001B0001D190000004800413C00002010010020F3
:1001C000500000205D1900000023037043700322DB
:1001D0008270C37003717047F8B5CE46474680B54C
:1001E00005000E00454B9847454B1B78002B18D156
:1001F000444B5A6920210A435A61DA6910390A438B
:10020000DA61414B1A880E398A431A8001221A801A
:100210003E4A5A633E4A9A633E4A1A80384B01224C
:100220001A70364B9847364B5B68DA070FD55B0878
:10023000012401221A420BD05B080134E4B2052CE0
:10024000F8D1354B9847344B9847142051E000249F
:100250002B4A51680123A3400B435360137A013B9F
:1002600013722D4B9847FF2CEDD02C700F2398461E
:100270001C40254F30339946FC540133FA5C02216F
:100280008A43FA540124FC541C4B98472B7842466D
:1002900013404A46BB543B692A789440A3433B61D0
:1002A000327852016023134072781202FC218901D6
:1002B0000A401343B2789205C02109040A4013434F
:1002C000F178002904D007220A4008210A43134389
:1002D0003279002A01D0102213430B4A53640E4C8A
:1002E000A0470023AB612B789B000C4A9D50A04790
:1002F00000200CBC90469946F8BDC0461D19000070
:100300000C000020000400400048004110010020C3
:1003100050000020020F00005D1900003C0000208A
:1003200070B50400194B9847637C052B08D0A3696E
:100330005B889BB2002B07D1154B9847172070BDE7
:10034000134B98470520FAE74026124B1E6022788F
:100350000F231340104D3F22AB5423780F4AD25C39
:10036000072313404D22AB5405236374207800010A
:100370000B4BC018A1693D3A0A4B9847AB5D02226E
:100380001343AB55024B98470020D8E71D190000D6
:100390005D19000000E100E000480041A0000020DD
:1003A0001001002069220000F0B50A7803880126B8
:1003B00032400124A343134303804B78048803276E
:1003C0003B405B00062294431C4304808D780488E4
:1003D0003D40ED0018239C432C430480CA780388D9
:1003E0003A401202164C2340134303800B790488D1
:1003F00033409B02134A14401C4304804D79048807
:100400003540ED02104B1C402C4304808A79038850
:10041000324012030D4C234013430380CB79072253
:100420001A4003885203DB04DB0C134303800B895F
:100430004380CB6843600B6983604B69C360F0BD48
:10044000FFFCFFFFFFFBFFFFFFF7FFFFFFEFFFFFDB
:10045000427C0523052A0BD08369002B0AD0DA6879
:10046000002A03D0DB68DA68002AFBD1D9600023B8
:100470001800704781610023FAE70000F0B5C64616
:1004800000B580000E4BC7583B68DE6ABB6B7A6BC9
:1004900013401E4000240B4B984602E00434302CDD
:1004A0000AD04346E5583542F8D03B195B6838001E
:1004B00098473B68DD62F1E704BC9046F0BDC0465A
:1004C000600100208C22000010B50020014B9847ED
:1004D00010BDC0467D04000010B50120014B9847B7
:1004E00010BDC0467D04000010B50220014B9847A6
:1004F00010BDC0467D040000044A137802210B435E
:10050000137053785BB2002BFBDB70470018004080
:1005100000B583B0124A936940210B43936101A94E
:1005200000230B7005200F4B984705200E4B984772
:100530000E4A137801210B43137053785BB2002BE2
:10054000FBDB0B4B19004031002204C39942FCD164
:100550001022084B1A60084B984703B000BDC046F4
:1005600000040040211C0000951B00000018004002
:100570006C01002000E100E0F904000010B5024B1E
:100580001B680020984710BDA800002010B5024B42
:100590005B680120984710BDA800002010B5024BF1
:1005A0009B680220984710BDA800002010B5024BA0
:1005B000DB680320984710BDA800002010B5024B4F
:1005C0001B690420984710BDA800002010B5024BFD
:1005D0005B690520984710BDA800002010B50828C9
:1005E00003D880001E4B1B589F46002036E01D4B51
:1005F000186933E01C4B1B6A9B059B0F1B48D840B6
:100600002CE0184B586929E0164B1B6800209B070B
:1006100024D515491022CB681A42FCD0114B1B6817
:100620005B0701D4124819E00E4B1B689B0601D5ED
:100630000F4813E000200F4B98470A4B9B681B04A0
:100640001B0C58430AE05023074AD35C00205B0789
:1006500004D5044BD86801E08020000210BDC046DC
:10066000BC220000C00000200008004000127A00F8
:10067000006CDC023D1C000070B50C490B6A04786C
:10068000857840780122104080014026B34303431F
:100690002A40D201802083431343032222401202C6
:1006A0000348034013430B6270BDC046000800407E
:1006B000FFFCFFFFF0B5CE46474680B5194B994683
:1006C0009B6941788C4605780679C77844798078AB
:1006D0000121084080000422934303436046084000
:1006E000C000043293430343380008408001402790
:1006F000BB43034330000840C0018026B34303439B
:10070000072005402D02084803402B4321400903E0
:10071000064803400B434A4693610CBC90469946F9
:10072000F0BDC04600080040FFF8FFFFFFEFFFFFED
:10073000F0B5DE4657464E464546E0B50100264B2D
:100740009B469B8A45780078424242419146887890
:10075000CA7894460A7990464E7B0F7B8C7B8A68D8
:100760001E494A6101214A46920091460422934360
:100770004A46134342460A40D20090460822934319
:100780004246134362460A401201944610229343A4
:1007900062461343084040012022934303430F4025
:1007A000BF01402083433B430E40F601403083436A
:1007B0003343793805402D02094803402B4321403B
:1007C0000903084803400B435A4693823CBC9046B9
:1007D0009946A246AB46F0BD00080040C00000208C
:1007E000FFF8FFFFFFEFFFFF10B5037A9B061B0C1E
:1007F00042899205920D134318494B608379C2795F
:10080000134342888488224313434278D20113431E
:100810000B600378042B11D0202B0ED1037B9B0699
:10082000028A1343C28912040D490A4013430B4A3A
:10083000936011680B4B0B43136010BD037B9B0649
:10084000028A1343C289120405490A401343034A2A
:100850009360136804210B431360EEE7C00000208F
:100860000000FF0324040000082803D88000254B63
:100870001B589F46172044E0234A136A02210B436A
:10088000136200203DE0204A936902210B439361EB
:10089000002036E01C4A138A02210B4313820020F9
:1008A0002FE0194A938A02210B439382002028E00B
:1008B00016490B68022213430B60134B9A841900EC
:1008C0000E32CB681A42FCD0104A91680E4BD962A6
:1008D00052689A6200229A8419001032CB681A4238
:1008E000FCD00A4B1B689BB2074A9384002008E0A7
:1008F000054944228B5C022003438B54002000E016
:1009000000207047E022000000080040C0000020E6
:10091000F0B5CE46474680B591B0C222D2005A4BC0
:100920009A605A4A53681E218B431A390B4353600D
:10093000022201AB1A700024554DE0B201A9A8476C
:100940000134252CF9D10CA8002303708370802278
:1009500012028260C3700122027103738373053235
:10096000427043734B4B984705204B4B9847464981
:100970000222CB681A42FCD043498B8A802213435F
:100980008B82464C2368DB048A695B0E1B04444857
:10099000024013438B610AA80123437083700371E3
:1009A0000722027000254571C3703E4B9847042012
:1009B000394B984705AB00225D809A71DA7120218E
:1009C00019705A7023689B0E3F2B5AD005A80372EA
:1009D000072303730333C381334B4381FF3B83807E
:1009E000324B0382324B984704A8002545700126FC
:1009F000867005702F4B98470620274FB8472E4B1F
:100A0000984701AC029665702572657205232370C4
:100A100021000120294B994698470120284B9846F0
:100A20009847666065706572042323702672210002
:100A30000720C8470720C0470720B847124910229F
:100A4000CB681A42FCD0104A938C80210B439384CC
:100A50001C4A0023137253729372D37201A90122AC
:100A60004A604B704B7207330B700A720020134BB5
:100A700098470020124B984711B00CBC90469946FD
:100A8000F0BD203BA2E7C046000800400040004106
:100A9000211C00003107000069080000246080006C
:100AA000FFFF80FFB5060000FF01000080BBFFFFD5
:100AB000E907000079060000E91900000D1A00009E
:100AC000C51A0000000400400122014B1A70704753
:100AD000D800002070B58EB0554B9847554B9847BD
:100AE000554C1423237000236370A37001226946C0
:100AF0004A708B700A701420504B98472278530923
:100B0000D0090021002802D1DB014D4959181F23CB
:100B1000134001221000984088616B461A70002330
:100B20000193029369460B744B748A74CA740B75F3
:100B300024228B54183A002106A8424B9847424B76
:100B4000069380239B030393404B0A93404B0B93E4
:100B5000404B0C9301235B420D933F4C6A463F4947
:100B600020003F4B98472368DA69002AFCD11A68B5
:100B7000022422431A6068463A4B984702256B4686
:100B80009C70394C69462000384B984701226B46CF
:100B90001A70002369464B708B70CB704A718B7151
:100BA000CB7105930B7114330B812B4B1B682833CE
:100BB00003932F4B143304932E4E30002E4B984743
:100BC000310020002D4B98472D4BA360237C2B43F5
:100BD000237422782B498B5C2B438B54164C1E4D6F
:100BE000012221002800284B98471F48274B98478F
:100BF000274A1378002BFCD000220F491648224BBD
:100C000098470022234B1A700020234B9847FA2262
:100C1000D20000230021214EB047214A0023801832
:100C20005941204A0023204EB047204B9847D7E730
:100C30004D1D00001919000044020020C5190000D4
:100C4000004400417B22000000093D00020010002A
:100C50000200110002001200B0010020000C00424E
:100C6000F1140000C901000028020020D901000091
:100C7000E001002060020020A903000051040000F0
:100C8000C90A0000A0000020251800002103000070
:100C9000D8000020D9000020091B000035200000EA
:100CA000BFCF6A00C0CF6A00F51F0000010000201E
:100CB000F0B5DE4657464E464546E0B583B0C24BDA
:100CC0001F683D682B78DB0914D12E8CB6B2002E3C
:100CD00000D0A9E1AE8BB6B2AB235B00FB5AAA22CF
:100CE0005200BD5A1D4035400024B84FB64B9946BE
:100CF000984684E12B8C9BB2002B00D1DEE0288C3F
:100D000080B2B34B984704001F2800D9D6E00300F7
:100D100008335B01ED18ED79EDB2AB0741D0AD4A78
:100D200001238340116899431160030008335B017C
:100D30003A68944663440322DA713B18AE331B7859
:100D4000DB072ED5A44B18703A68030008335B010B
:100D50009B5C9B079B0F012B00D181E042019F4BC5
:100D60009B185A681201920C90B29B494A805A68AB
:100D70009204920C8A805A6899490A405A60002865
:100D800007D16201954B9B185B689B049B0C924AB0
:100D900053808D4B1868A31C1B01C3185B688E49D8
:100DA00098476B070ED58B4A0123A34011689943DE
:100DB0001160854B1B681B682200083252019B188A
:100DC0000422DA712B0714D5824A0123A34011684B
:100DD000994311607C4B1868230008335B0102685B
:100DE000944663440822DA710319AE331B789B07DB
:100DF00047D4EB0614D5774A0123A34011689943E1
:100E00001160714B1868230008335B010268944637
:100E100063441022DA710319AE331B785B073ED4AA
:100E2000AB0600D4B0E06B4A0123A340116899439C
:100E30001160654B1868230008335B010268944613
:100E400063442022DA710319AE331B781B0700D4E8
:100E50009AE061490C7024010419236B984793E0D0
:100E600042015E4B9B185A689204920C5A494A8080
:100E70005A681201920C8A805A68920B92035A6047
:100E800087E755490C706201544B9B18DB891F2280
:100E900013404B702301C3189B6A9847A9E74E493A
:100EA0000C7062014D4B9B185B681B019B0C4B80C7
:100EB0002301C318DB6A00219847B1E7AC8BA4B2C9
:100EC000630705D50423AB83A133FB5CDB0762D446
:100ED00023070BD500223F4B1A603B4B18680823B1
:100EE000026893839D33C35C9B0758D4630608D57F
:100EF000354B18684023026893836533C35CDB0677
:100F000050D4A30608D5304B186820230268938379
:100F10008533C35C1B0748D4E30608D52A4B186801
:100F20001023026893839533C35C5B0740D4230688
:100F30000BD50022274B1A60234B186880230268C8
:100F400093832533C35C9B0635D4E3050CD500227F
:100F5000204B1A601C4B186880235B000268938347
:100F60005B3BC35C5B0629D4A3050DD50022194B5E
:100F70001A60154B186880239B00026893835C3BC2
:100F8000FF3BC35C7F2B1CD803B03CBC904699460A
:100F9000A246AB46F0BD7B683800984798E7836867
:100FA0009847A3E743699847ABE703699847B3E7D6
:100FB000C3689847BBE783699847C6E7C369984702
:100FC000D2E7036A9847DFE7DC0000200423000033
:100FD000B51F0000EC000020F0000020FC080020FD
:100FE000FF3F00F023002E339B00424612689B58BF
:100FF0009E494246106898470134072CC4D06300CC
:10100000DB5B334203D04A461268126893832B425B
:10101000F2D0062CE6D1964B1B891B098022520088
:101020001340924A1360DDE73C005934FF3400233B
:10103000012294465F329146503A92460D3A9346C9
:10104000B8462F00B9E02A003D00474690465B01B4
:10105000ED180823FF33EB5C5B0616D5402208230E
:10106000FF33EA54883BFF3B42461343814A937166
:1010700060230B4200D187E7019B1B01FB18E03383
:101080001B687C49380098477EE70823FF33EB5CF8
:101090009B06EDD520220823FF33EA54754B4246C8
:1010A0009A71E5E73D004746019A130008335B015A
:1010B000ED181023EB71BB186133FF331B78DB068F
:1010C00000D461E710005201694B9B185B689B04D8
:1010D0009B0C68490B800301FB18DC331B684046FE
:1010E000984751E72A003D00474690465B01ED18BE
:1010F0000823FF33EB5C9B071ED502220823FF3336
:10110000EA545C48883BFF3B424613438371019B92
:101110005A01574B9B1810335B689B049B0C438010
:101120008B0700D130E7019B0D331B01FB185B6877
:1011300050493800984727E70823FF33EB5CDB076B
:10114000EED501220823FF33EA544A48434683710F
:10115000019B5B01464AD21853689B049B0C038099
:1011600053681B019B0C8380DAE70822FF329A5CEC
:1011700052076ED504200822FF329854019842018C
:101180003B4B9B189B7A9B0705D5394B9B189A7A4A
:10119000022082439A72374B42469A71019B083370
:1011A0005B013A6894466344DB79DB0751D5EBE693
:1011B00001330134082B00D1E6E6DDB201933200A1
:1011C0001A4161461142F3D01A0008325201BA188E
:1011D000D279D2B2217A114020780140484610429B
:1011E00000D030E75046104200D05BE7584610422E
:1011F00000D077E70C201042DAD02A003D004746A5
:1012000090465B01EB180822FF329A5C1207ACD5BE
:1012100004380822FF32985401984201144B9B185D
:101220009B7E9B0705D5124B9B189A7E022082431A
:101230009A7680235B42424613430E4A9371019B88
:1012400008335B013A6894466344DB799B0700D519
:101250009AE60C230B4200D196E6019B1B01FB187A
:10126000D8331B680349380098478DE6E00000201A
:10127000FC080020E400002070B50022104B1A701A
:10128000002310491F25104E0D4C0AE00D4908E0BF
:1012900023780133DBB223700F2B10D800211F2BD2
:1012A000F4D9280018400122824008691042EFD08A
:1012B0000A619B009B59002BEAD09847E8E770BD74
:1012C000FC090020001800406C01002010B54908FE
:1012D00040230024814202D2180010BD1C00091ACC
:1012E000631C9BB28842F9D94023FF2CF4D81480A8
:1012F0000023F1E710B582B004000E4B1B78002BE1
:1013000007D0002905D10B4B5B78834210D01D20FC
:101310000CE001A90C701320074B98471320074BD2
:101320009847044B5C7001221A70002002B010BD77
:101330000020FBE7F8000020211C0000951B0000A6
:10134000404B984231D00AD93F4B98424DD03F4B49
:1013500098425AD03E4B984237D0002070473D4BC0
:1013600098420CD03C4B9842F7D1012917D0002964
:101370005DD0022915D0032915D00020EEE7012900
:1013800007D0002951D0022905D0032905D000201B
:10139000E4E73248E2E73248E0E73248DEE7324845
:1013A000DCE73248DAE73248D8E7012907D00029DC
:1013B0003FD0022905D0032905D00020CEE72D48D3
:1013C000CCE72D48CAE72D48C8E7012907D00029F6
:1013D00031D0022905D0032905D00020BEE72848D6
:1013E000BCE72848BAE72848B8E7012907D0002910
:1013F00023D0022905D0032905D00020AEE72348D9
:10140000ACE72348AAE72348A8E7012907D0002929
:1014100015D0022905D0032905D000209EE71E48DB
:101420009CE71E489AE71E4898E71E4896E7032067
:1014300094E71D4892E71D4890E71D488EE71D4838
:101440008CE7C0460010004200180042001C004219
:101450000014004200080042000C00420300050096
:1014600003000600030007000300010003001E0044
:1014700003001F000300090003000A0003000B0023
:1014800003001100030012000300130003000D000D
:1014900003000E0003000F000300170003001800F4
:1014A00003001900030004000300080003001000FB
:1014B00003000C000300160030B587B00B4B6A46E2
:1014C00032CB32C232CB32C2009B83420BD00123DB
:1014D0009A0069465258824206D00133062BF7D152
:1014E000002007B030BD0023D8B2FAE71423000073
:1014F000F0B5D6464F4680B58BB081460F0014003C
:10150000030019600B689B0709D40B680520DB07F3
:1015100000D4B1E00BB00CBC91469A46F0BD936A82
:101520000593D36A0693136B0793536B08930026B6
:1015300005AB01930AE03800AF4B98470CE00F234E
:10154000184081422DD10136042E2FD0F1B2B300C4
:10155000019A98580028EED0431CF4D00104090CDD
:10156000000CC3B29C460023020605D463465B0907
:10157000DB01A24A924653441F226046024098185B
:1015800040300078824680205546ED07D9D5520874
:101590009B1830331878C0B26346DB07CFD50009FB
:1015A000CFE700234A4613601C20B3E71320944B77
:1015B000984722780025012A16D02178002927D1C2
:1015C0003B68E27F1204A07F02431C209A42A1D113
:1015D000A369A28B0430205C002801D04020024384
:1015E000082003431D4314E004AA0100A069854BB1
:1015F000984703001720002B00D08BE73B7BDBB222
:1016000004AA127805309A4200D083E70C35D4E75B
:1016100000226368A0680343E06803432B43207CF7
:101620000243607C002801D080200343A07C002876
:1016300002D0802080020243E07C002802D080207B
:1016400080000243207D002802D0802080010243D8
:10165000386802252B43834204D000234A46136096
:101660001C2057E77B689342F7D14B465971237C86
:101670004A46937100204DE70800634B9847634A40
:10168000116A851C0123AB400B43136209A9242670
:10169000A35D0B701430C5B228005D4B984728003D
:1016A0005C4B9847A05D00215B4B98472378012B4A
:1016B00020D02378002B03D13B68082213433B60E2
:1016C0004B461E6804AB80221A7000225A7001211A
:1016D0009970DA702378002B01D104AB9A70A36A59
:1016E0000593E36A0693236B0793636B08930027C4
:1016F00005AD11E03B680C2213433B60D9E7300095
:101700003D4B98470DE004A90870000CC0B2434B54
:1017100098470137042F07D0F9B2BB005859002869
:10172000EDD0431CEFD1F4E723784A465371237C74
:101730009371A37CD371237D1372002202ABDA80F4
:101740002378012B12D02378002B27D1A069A28BFC
:10175000736AE17F0904A57F29431943716220233D
:10176000E35C002B1CD040231A4319E04B46186859
:10177000254B98471430C0B2214B9847010002AB6B
:101780009A1DA0691F4B984703001720002B00D01B
:10179000C0E602AB06331B783373D4E70022002087
:1017A0006368A1680B43E1680B430343217C0A4350
:1017B000617C002903D11A498978890701D58021E4
:1017C0000B43A17C002902D0802189020A43E17CDD
:1017D000002902D0802189000A43217D002902D0FE
:1017E000802189010A4331680B43336073681A43CF
:1017F000726000208EE6C0464113000000440041A4
:101800003D1C0000CD120000B9140000000400408F
:10181000211C0000951B0000F5120000191D00009E
:101820000020004110B544791523012C01D0180087
:1018300010BD047A0023002CF9D1002A58D04B782F
:10184000002B44D003681B7EDB0710D40A78D10933
:101850000023002904D15309DB012E498C4663443F
:101860001F21114001228A409A610523DFE70A788F
:10187000D4090023002C04D15309DB01254CA446D4
:1018800063441F2414400122A2405A6103681A7E57
:10189000D20701D58A789A62C2790023002AC6D17C
:1018A00002680421137E0B42FCD0117E00234907FD
:1018B000BDD5538B5B0701D5042353838379012B5B
:1018C00002D0936A0023B2E7936A0023AFE70A7855
:1018D000D1090023002904D15309DB010D498C46AD
:1018E00063441F21114001228A405A6100239EE770
:1018F0000A78D1090023002904D15309DB010549E5
:101900008C4663441F21114001228A409A610023C2
:101910008DE7C04600440041704700000C4B1B6837
:10192000002B06D1EFF31083002B07D00022094BC8
:101930001A70074A136801331360704772B6BFF319
:101940005F8F0022044B1A700132024B1A70F0E7CD
:10195000FC0000200001002018000020084B1A683D
:10196000013A1A601B68002B09D1064B1B78002B2B
:1019700005D00122044B1A70BFF35F8F62B6704727
:10198000FC0000200001002018000020F0B583B00A
:1019900001AC012565700027A770257021003E204D
:1019A000064EB0478022D205054B9A6127706570BC
:1019B00021000F20B04703B0F0BDC046C51900009C
:1019C0008044004100B583B001AB80221A700A78D0
:1019D0005A704A789A708A78DA701900014B9847E1
:1019E00003B000BD191D0000064A936908210B438E
:1019F00093610122044B1A7019000B781342FCD139
:101A00007047C04600040040000C004070B506005E
:101A100004000D782D0205434B78002B02D0802363
:101A2000DB021D434B7A002B02D080231B031D4396
:101A30004868012810D9431E184234D1022830D9F1
:101A40000223002201325B009842FBD8120232438B
:101A5000140080235B031D430B7A002B02D08023EC
:101A60009B031D43134A53785BB2002BFBDB124BE5
:101A70009847124B1E700F4A53785BB2002BFBDB6A
:101A80000C4B9C601A0053785BB2002BFBDB094ABD
:101A90005368802149020B401D435560084B98470D
:101AA00070BD0022D2E70402344380239B021D4311
:101AB000D2E7C046000C00401D190000080C004091
:101AC0005D19000010B504000B4A53785BB2002B7F
:101AD000FBDB0A4B98470A4B1C70074A53785BB2F2
:101AE000002BFBDB044A516880235B020B435360ED
:101AF000044B984710BDC046000C00401D19000063
:101B0000040C00405D19000070B504001A4A5378B7
:101B10005BB2002BFBDB194B9847194B1C70164A24
:101B200053785BB2002BFBDB134E7068C004C00E11
:101B3000144B98470500124B1C707668F602F60F9E
:101B4000114B1C700C4A53785BB2002BFBDB0A4B29
:101B50009C682402240C0D4B9847002E07D1012CC1
:101B600007D9210028000A4B9847050001E00134FD
:101B7000E540280070BDC046000C00401D19000063
:101B8000040C0040DD050000080C00405D19000059
:101B9000611E000010B50400064B9847064B1C70F0
:101BA000064A53888021C9010B435380044B984750
:101BB00010BDC0461D190000020C0040000C004082
:101BC0005D19000010B504000F4B98470F4B1C70B7
:101BD0000F4A53881B05180F53880E490B4053803A
:101BE00053880D490B40538011008022D2014B884D
:101BF0001342FCD106494A880302064802401343B7
:101C00004B80064B984710BD1D190000020C004088
:101C1000000C0040FFF0FFFFFFBFFFFF5D19000059
:101C200010B50C7824020443024B9847A4B2024B2F
:101C30005C8010BDC51B0000000C004010B5040006
:101C4000064B9847064B1C70064B5C882405240FF6
:101C5000054B98472000054B984710BD1D19000003
:101C6000020C0040000C00405D190000091B000040
:101C700030B5D378002B35D11378802B29D01B06B3
:101C800080246402234354780225AC4306D194781F
:101C9000002C20D18024A402234341605478013CCD
:101CA000012C1CD90D042D0CA024E4052C431C434D
:101CB00084620D0CD02424062C431C438462D47807
:101CC000002C22D15B031CD59378012B1ED04161DF
:101CD00017E00023D7E7C024E4022343DDE70D4CDF
:101CE0002340DFE741600C04240CA023DB052343E1
:101CF00083620C0CD0231B0623438362D378002B12
:101D000003D15378013B012B02D930BD8161F8E743
:101D10008160FAE7FFFFFBFF10B50A00C10900234D
:101D2000002904D14309DB0105498C4663441F2483
:101D30002040012181401800024B984710BDC04649
:101D400000440041711C00007047000010B5054BB5
:101D50009847054B9847054B9847054B9847054BC7
:101D6000984710BD110900008D190000491D0000A1
:101D700011050000491D000070470000F8B52A4A0F
:101D80002A4B9A4211D01A00294B9A420DD2294A65
:101D900003339B1A9B0801339B00002223482249EE
:101DA0008C58845004329A42FAD1234A234B9A42E7
:101DB0000AD2D34321495B1803218B4304339B1878
:101DC000002102C29342FCD11D4AFF211D4B8B43CF
:101DD0009360FD3990235B001B4AD1501B4AD37896
:101DE0000325AB4302242343D370D3780C27BB4392
:101DF00008263343D370164B987B30229043202221
:101E000010439873997BB943314399739A7BAA43E2
:101E100022439A730F4A536880210B4353600E4B41
:101E200098470E4B9847FEE754230000000000201F
:101E30001C0000200400002020000020000A0020D8
:101E400000ED00E000000000007000410050004183
:101E5000004800410040004121220000D50A000056
:101E6000002243088B4274D303098B425FD3030AD9
:101E70008B4244D3030B8B4228D3030C8B420DD3EC
:101E8000FF22090212BA030C8B4202D3121209027A
:101E900065D0030B8B4219D300E0090AC30B8B42B8
:101EA00001D3CB03C01A5241830B8B4201D38B0366
:101EB000C01A5241430B8B4201D34B03C01A52410B
:101EC000030B8B4201D30B03C01A5241C30A8B424E
:101ED00001D3CB02C01A5241830A8B4201D38B0239
:101EE000C01A5241430A8B4201D34B02C01A5241DD
:101EF000030A8B4201D30B02C01A5241CDD2C3094F
:101F00008B4201D3CB01C01A524183098B4201D3CA
:101F10008B01C01A524143098B4201D34B01C01AB5
:101F2000524103098B4201D30B01C01A5241C3082D
:101F30008B4201D3CB00C01A524183088B4201D39C
:101F40008B00C01A524143088B4201D34B00C01A88
:101F50005241411A00D20146524110467047FFE7F4
:101F600001B5002000F006F802BDC0460029F7D0F8
:101F700076E770477047C0461C2101231B04984236
:101F800001D3000C10391B0A984201D3000A08390A
:101F90001B09984201D30009043902A2105C4018C1
:101FA0007047C04604030202010101010000000065
:101FB00000000000414208401C2101231B049842FC
:101FC00001D3000C10391B0A984201D3000A0839CA
:101FD0001B09984201D30009043902A2105C401A7F
:101FE0007047C0461B1C1D1D1E1E1E1E1F1F1F1FCF
:101FF0001F1F1F1F002B11D1002A0FD1002900D154
:10200000002802D00021C943081C07B4024802A1DD
:102010004018029003BDC0465DFFFFFF03B4684651
:1020200001B5029800F030F8019B9E4602B00CBC4E
:102030007047C046F0B5CE46474615042D0C2E001D
:1020400080B50704140C3F0C9946030C7E435D4396
:10205000674363437F19340CE4199C46A54203D9B6
:1020600080235B029846C4444B46514343433604A5
:10207000360C250C24046544A4195918491920006C
:102080000CBC90469946F0BDF0B557464E464546C5
:10209000DE46E0B5040083B00D00924699468B42BF
:1020A0002FD82CD04946504600F0AEF82900060043
:1020B000200000F0A9F8331A9846203B9B4600D533
:1020C00074E053465A4693401F005346424693409D
:1020D0001E00AF4229D826D05B46A41BBD41002B71
:1020E00000DA79E0002200230092019301235A468E
:1020F00093400193012342469340009319E08242AA
:10210000D0D900220023009201930C9B002B01D018
:102110001C605D600098019903B03CBC90469946F4
:10212000A246AB46F0BDA342D6D9002200230092BE
:1021300001934346002BE8D0FB0772081A4346463A
:102140007B080EE0AB4201D1A2420CD8A41A9D41FB
:10215000012024196D410021013E24184D41002E1B
:1021600006D0AB42EED9013E24196D41002EF8D1C4
:102170005B460098019900196941002B22DB2B0076
:102180005A46D3402A004446E2401C005B461500F4
:10219000002B2CDB26009E40330026004746BE4025
:1021A0003200801A994100900191AEE74246202307
:1021B0009B1A5246DA40414613004A468A401700AD
:1021C0001F4382E7424620239B1A2A0046469A4034
:1021D0002300F3401343D5E74246202300219B1AF6
:1021E0000022009101920122DA40019282E74246E8
:1021F000202326009B1ADE402F00B44697406646F7
:102200003B003343C9E7C04610B5002903D1FFF7AF
:10221000B3FE203002E0081CFFF7AEFE10BDC04642
:1022200070B500260C4D0D4C641BA410A64209D1BC
:10223000002600F07BF80A4D0A4C641BA410A6424D
:1022400005D170BDB300EB5898470136EEE7B300F7
:10225000EB5898470136F2E7382300003823000096
:10226000382300003C230000002310B59A4200D11F
:1022700010BDCC5CC4540133F8E7030082189342CC
:1022800000D1704719700133F9E700000100000028
:102290000200000004000000080000000010000020
:1022A000002000000040000000800000000001004D
:1022B000000002000000040000000800EE0500001D
:1022C000EA050000EA050000580600005806000074
:1022D00002060000F40500000806000046060000A3
:1022E0009408000074080000740800000009000051
:1022F00086080000A208000078080000B00800006E
:10230000F0080000040008007000800001000001D7
:102310000002000000080042000C004200100042D1
:102320000014004200180042001C0042F8B5C046EC
:10233000F8BC08BC9E467047DD000000F8B5C046FA
:0C234000F8BC08BC9E467047B5000000C9
:08234C003CFDFF7F01000000D1
:10235400BFF35F8F01380028FAD1704700000000F6
:0C23640000000000050000000100000067
:0400000300001D7D5F
:00000001FF
