:10000000A02E0020358C0000318C0000318C0000C7
:1000100000000000000000000000000000000000E0
:10002000000000000000000000000000318C000013
:100030000000000000000000318C0000318C000046
:10004000318C0000318C0000318C0000318C0000BC
:1000500009710000318C0000318C0000C56800007F
:10006000318C000091280000A1280000B128000078
:10007000C1280000D1280000E12800004507000049
:100080005507000065070000318C0000318C00002E
:10009000318C0000318C0000318C0000318C00006C
:1000A000318C0000318C0000318C0000318C00005C
:1000B0000000000010B5064C2378002B07D1054B3B
:1000C000002B02D0044800E000BF0123237010BDC4
:1000D0008C0100200000000014B10000084B10B596
:1000E000002B03D00749084800E000BF0748036819
:1000F000002B00D110BD064B002BFBD09847F9E731
:10010000000000009001002014B1000014B10000B4
:1001100000000000094B98420CD0094B984207D0D0
:10012000084A0023904201D018007047023302E0D1
:10013000012300E00023DBB2F6E7C04600200042C6
:10014000002400420028004210B5040008004F4B74
:1001500098470023236080004D4A82586260A37252
:10016000E372237363722372E36123626362A362A7
:1001700023756375A375E3752376637623746374BF
:10018000A374E3742C22A3540132A3540132A35468
:100190000132A3540132A3540132A3540132A354B7
:1001A0000132A3540132A3540132A3540132A354A7
:1001B0000132A3540132A3540132A3540132A35497
:1001C0000132A3540132A3540132A3540132A35487
:1001D0000132A3540132A3540132A3540132A35477
:1001E0000132A3540132A3540132A3540132A35467
:1001F0000132A3540132A3540132A3540132A35457
:100200000132A3540132A3540132A3540132A35446
:100210000132A3540132A3540132A3540132A35436
:100220000132A3540132A3540132A3540132A35426
:100230000132A3544132A354A365A3670132A354EE
:10024000E365E3670132A35423661A3AA3501B32D5
:10025000A3546366173AA3501832A354A366143A02
:10026000A3501532A354E366113AA3501232A3549B
:1002700023670E3AA3500F32A35463670B3AA3507F
:1002800001210C32A1540132A35410BD150100000C
:10029000DCA60000F0B5DE4657464E464546E0B5C2
:1002A00091B001900C0015000800C34B9847030063
:1002B0000100C248026A9E00C14FF7593A430262E8
:1002C00022681C20920706D511B03CBC9046994686
:1002D000A246AB46F0BD226801271740F4D1B948C9
:1002E000325817202E68B242EED36E68B242EBD37A
:1002F000E869824200D2B9E1286A824200D2B7E1BD
:10030000686A824200D2B5E1A86A824200D2B3E1B3
:1003100098229446AC4462460892002003E00130E3
:100320000132082808D01678002EF8D0A64E765C48
:100330008642F4DC1720C7E70022029280204004A6
:10034000844602E00132042A0ED0A818007C01285D
:10035000F8D19E48405C904200DA8FE160469040C0
:10036000029E06430296EDE79D32AA5C002A04D065
:10037000802212010299114302912A7A511E8A4168
:10038000920006926A7A012A22D0904AD25C110029
:1003900005923522AA5C8A4200D379E12C21695C5E
:1003A0000F2900D974E1287B0A90E87A0B902D2060
:1003B0008246AA44002004970EAE0796C026360156
:1003C000B1468446A046280055460993824635E04A
:1003D000069911430691D8E792024F463A400A43E4
:1003E00019798B4603215F4639400A4316435A79EF
:1003F000520160210A40324399790902C026B600B1
:100400000E401643DA791203E021C9010A4016436F
:100410003443039A14432043624607995050042AF8
:100420002AD09A7C0599914200D831E1597A0A354F
:1004300004239B46DC440F2900D929E10906F02357
:100440001B0519402B002E783604FF2000040640BF
:1004500068788024002800D1049C987808270397A6
:10046000002801D104980390D878834610205F4675
:10047000002FB1D10498AFE744465546099B524A34
:10048000D25C9146514650315046413000270022FF
:100490000126B2460226FF36B34680267602B046D3
:1004A000A4461C004B460FE00678002E07D093426E
:1004B00000D8E7E0022E14D056469640374301326A
:1004C00001310230082A10D00E78002EECD0934271
:1004D00000D8D5E04646964037430678002EE9D14D
:1004E000EDE75E4696403743E9E7994623006446C8
:1004F0006A7E120130211140287E072202401143FA
:100500000022802040020E0002E00132042A0BD0BB
:10051000A918097D0029F8D00599914200DCB3E0C3
:10052000010091400E43F0E7B24601980200043208
:100530003430002102C28242FCD100220198426381
:1005400082639900224A88500460A022A95C643A20
:1005500081540DA9AA7A0A701E4AD65C30001E4B3F
:10056000984730001D4B98474B46002B3CDD2E0032
:10057000583698339846A84401239946AB464546D9
:10058000A046089C03E001340436AC422AD023780C
:10059000002BF8D00CAB4A469A7000230CAAD370FB
:1005A00013002022B21812781A704A465A70307816
:1005B00019000B4B9847E6E71501000000040040C6
:1005C000C8A60000DCA60000E8A60000D4A6000033
:1005D000F8030020D8A60000D98A00004D8A000048
:1005E000D18B000044465D460A9B1B030B9A120206
:1005F0001343029A134323600422A3681A42FCD1D6
:10060000FF2323710422A3681A42FCD16B461B7E90
:1006100063710E9BE3600F9B2361A7611D4AA36872
:100620001342FCD15346E3631022A3681A42FCD163
:100630002B686363184AA3681342FCD16B68236478
:100640000598002822DD1C350021144E32008A4016
:10065000A3681A42FCD104CD0B0010339B00E318B1
:100660005A6001318842F1DC00202DE617202BE68C
:10067000172029E6172027E6172025E6172023E66E
:10068000172021E617201FE617201DE600201BE695
:10069000172019E640000200800004000001080055
:1006A000920083185960034BD358426B1343436342
:1006B00000207047ECA6000070B504000D00006833
:1006C000094B9847094B1B5C1F221A40012393409A
:1006D000074A1360AD00074BEA58A36B1343A363AB
:1006E00023689A6270BDC046150100001CA7000077
:1006F00000E100E0ECA60000F0B5C64600B58000C1
:100700000E4BC7583B68DE6ABB6B7A6B13401E40CA
:1007100000240B4B984602E00434302C0AD04346A8
:10072000E5583542F8D03B195B68380098473B687C
:10073000DD62F1E704BC9046F0BDC046F80300203E
:10074000ECA6000010B50020014B984710BDC04634
:10075000F906000010B50120014B984710BDC046B6
:10076000F906000010B50220014B984710BDC046A5
:10077000F9060000F0B591B00FA901254D700026D3
:100780008E700D701420284FB84780225203274BDB
:100790009A61274C2F2323706670A6706B465D709C
:1007A0009E701D7069462F20B8472278D10900231A
:1007B000002904D15309DB011C498C4663441F21E5
:1007C0001140012210008840986101AC2270002382
:1007D0000293039323746374A274E2742375233227
:1007E000A354183A002107A8124B984780239B0373
:1007F000E360114BA362114BE362114B23630123AE
:100800005B4263630F4BA3610F4D22000F49280029
:100810000F4B98472A68D369002BFCD1136802213B
:100820000B43136011B0F0BD7D880000004400410F
:100830001C0700204393000002001000020011007A
:100840000200120080841E00B8060020000C004246
:1008500055750000F0B5CE4600B586B002AE310049
:100860005848594B984701AD0023994601930022FF
:1008700056492800564FB84705AC2B7823703A23C9
:100880006370F288534B9C46624453492800B84732
:100890002B78A3706B78E37072794F492800B847C2
:1008A0002B7823716B78637132794B492800B847F4
:1008B0002B78A3716B78E3715F232372B27846497A
:1008C0002800B8472B7863726B78A372727842491C
:1008D0002800B8472B78E3726B78237332783E494F
:1008E0002800B8472B7863736B78A3732E23E373C8
:1008F00049332374163B63741533A3744B46E37476
:1009000021003648364B98470A2221003548364B9D
:10091000984700282ED104AB2C2234493148344C5E
:10092000A04700282BD12F48324B984700282BD1C5
:100930002C48314B984700282BD10A220599294889
:10094000294B9847002829D104AB2C222749254858
:10095000274CA047002826D12248264B984700283C
:1009600026D12048244B9847002826D106B004BC45
:100970009146F0BD01002148194B9847CBE7010093
:100980001F48174B9847CEE701001E48144B984765
:10099000CEE701001C48124B9847CEE701001748EC
:1009A0000F4B9847D0E7010015480D4B9847D3E708
:1009B000010014480A4B9847D3E701001248084B3E
:1009C0009847D3E7B0060020D125000020A70000FB
:1009D000F594000030F8FFFF24A700002CA70000CA
:1009E00055930000C4060020C55600000C000020EE
:1009F0004D580000855A0000115B000048A7000018
:100A000068A7000090A70000B0A70000F0B583B071
:100A10003223013B002BFCD10C4D802676036E6106
:100A200001ACFF330222210009480A4FB847AE61EA
:100A300022780123002A04D101AB5B785A1E93412E
:100A4000DBB2054A138003B0F0BDC046004400414C
:100A5000B806002089780000D002002010B5074BAE
:100A60009847074B1A6801321A601A68054B9A4278
:100A700002D90022024B1A6010BDC0460D0A0000C8
:100A8000A80100200F27000070B5AAB01F4D290053
:100A900001A81F4B98471F4B0293322308931E4C0B
:100AA00001AA290020001D4B984722680221936863
:100AB0001942FCD1136802210B431360164B1A68CC
:100AC00002311F20E02493681942FCD153798343FB
:100AD00005D0402B05D0202BF5D11471F3E740232E
:100AE00053710F4E0C4C0022310020000D4DA847D1
:100AF000082231002000A847002120000A4DA84705
:100B000008212000A8472AB070BDC046002000423E
:100B10004901000024040000500900209502000053
:100B20005D0A0000A1060000B906000010B5074BE1
:100B300019682223CB5C5A1E9341DBB24A7C0968B8
:100B400003480078034CA04710BDC046AC0100200C
:100B5000B50100206182000010B50423002801D0F7
:100B6000180010BD404B197ACA090023002A04D18D
:100B70004B09DB013D4A94466344186A1F220A4030
:100B800001239340184210D0374B9B7B012B04D09C
:100B90000422354B9A730223E2E7354B1B78002B76
:100BA000F6D00022334B1A60F2E72F4B9A7B042ACF
:100BB00005D0012A33D00323032AD1D045E0033ADC
:100BC0009A732C4B1B68002B17D00022284B1A70ED
:100BD0000020294B9847FA22920000230021274C3D
:100BE000A047274A002380185941264A0023264C53
:100BF000A047264B98470223B2E701241C4B1C70E8
:100C000000201D4B9847FA214901214B9847FA23B0
:100C10009B005843174B58601C600223A0E7144BFD
:100C20001B78002B07D0134B1A680223D20397D5E9
:100C30000022104B1A600C4B02229A73154A1A605C
:100C400001225A740021213299540022124B1A7049
:100C5000054C124B1C60124B9847A37B023B5A4237
:100C60005341DBB27CE7C04638000020004400411D
:100C7000B401002010E000E0C1890000FD900000F8
:100C8000571B0000581B0000BD9000000100002011
:100C9000558D0000801A0600B5010020AC0100202F
:100CA0002D0B0000F8B5094D094F0A4E00210A48E6
:100CB000B847041E07D0B047FF23034203D0013DCD
:100CC000002DF3D100242000F8BDC046410D0300E3
:100CD000A5840000BD8400000D1B000010B582B08B
:100CE0000C4B1B68998909040123009310220A48C0
:100CF0000A4CA047002801D102B010BD054B18686E
:100D000012300121064B98470028F5D0054B984733
:100D1000F2E7C046AC01002009110800158300006D
:100D200041850000CD85000010B5044B1B78002BD9
:100D300000D010BD0020024B9847FAE7B501002013
:100D4000B582000010B50422034B9A73FB32034BAB
:100D50001A70034B984710BD38000020B5010020E1
:100D60006D810000F0B5C64600B588B0CB4B984702
:100D70000400012806D0CA4B9847200008B004BCE4
:100D80009046F0BDC74B1B680122DA7300221A742B
:100D90009A81C54B9847002188204001C34B984752
:100DA000002807D1BF4B1B6803229A73BC4B98479E
:100DB0000324E2E7D5214900BD48BC4B98470026F3
:100DC000002825D1B74B1B68DB7BDB0700D5EBE1A7
:100DD000B44B1B68DA7B09231340012B0FD1802110
:100DE0008900B448B14B98470028DBD0AD4B1B6855
:100DF000DB7BDB0703D5B04B98470028D2D0AF4B45
:100E00009847A84B1B6800229A73A54B9847B4E7F4
:100E1000AB4B9847431C00D1C4E10005000DD5231E
:100E20005B0001369842BDD1CCE70021A5489F4B1D
:100E30009847002819D19B4B1B680222DA730021C6
:100E400088204001994B98470028ABD09E4D974F82
:100E50009B4E00219D48B8470028A3D0B047C30748
:100E60007DD5013D002DF4D19CE7954B984743007B
:100E700005D58C4B1A68D37B08210B43D373002113
:100E800093488A4B984700288CD0864B1B68DB7BA5
:100E9000DA0700D4A4E18F4B9847002882D0814B19
:100EA0001A68537D0721194089008B480858FA2198
:100EB000890041435B061B0F9B0088481B584B432E
:100EC0001360937C9B0900D03CE1917E8911537E95
:100ED0009B00107E800203430B43107FC011D17E24
:100EE000490008431B051B0D013307210140023156
:100EF0008B40D07D0F2101408B409B0A536091892C
:100F000009047748694B9847002800D14AE7012334
:100F10000093082200217348734DA847002800D190
:100F200040E7012106A8714B9847002800D139E716
:100F30006F4B9847002800D134E706AB1B780F228F
:100F40001340012B00D119E1002B00D109E1022B44
:100F500000D118E1534B1B6810221A7405E10021DF
:100F60005848524B9847002800D11BE7544B9847EC
:100F7000C023DB0518408023DB05984205D1494B8F
:100F80001A68D17B08230B43D37300215048474B89
:100F90009847002800D105E74E4B9847002800D11C
:100FA00000E7404B1A68937C9B061B0F022B00D175
:100FB000A8E007D9032B00D1A7E0042B04D14023DC
:100FC000137403E0012B66D012231374537D59066A
:100FD000090F8900072003409B003F481858FA2357
:100FE0009B004343434809584B431360917E89114A
:100FF000537E9B00107E800203430B431B051B0D99
:101000003D498B420FD0107FC011D17E4900014372
:1010100001330720014002318B40D17D083001406F
:101020008B409B0A5360137C3F2B7BD9002100919E
:1010300001238022920031482B4DA847002800D17F
:10104000B0E600252E4E05A8B047002800D1A9E63D
:101050000135ADB2322DF6D1124B19688A7E92114C
:101060004B7E9B00097E89020B4313431B051B0D1E
:10107000214A934254D1224E06A8B047002800D1FD
:1010800090E60135ADB2352DF6D9064B1A68069BB0
:101090005B08536044E01423137497E7590B000076
:1010A000290D0000AC010020DD820000A5840000B5
:1010B0000855000010110000A50C00002D0B0000C9
:1010C000BD8400003A050000EF1B00000111000084
:1010D0003B110000DD0C000010A800002CA800004F
:1010E000371100003311080015830000418500000E
:1010F000CD850000D0A70000FF0F000008110800F8
:10110000C98400002223137460E7302313745DE761
:1011100006A8364B9847002800D143E60135ADB20A
:101120007F2DF5D9802189003148324B984700281E
:1011300000D137E6304B9847002800D132E62F4BDC
:1011400098475EE6D07E937E1B02517E09040B43D6
:1011500003439B025B08802189008C4663445360F3
:10116000CDE6274B1B6810221A74254B1B68DB7BCE
:1011700009221340012B00D038E630E6204B1B68D3
:101180001A221A74F1E706AB9B78DB09012B04D114
:101190001B4B1B6830221A74E7E7194B1B6820228F
:1011A0001A74E2E700260DE6731E9E41B30703930F
:1011B000144D104FB846144E00211448B84700286B
:1011C00000D138E603991248C047002800D132E622
:1011D000B047C30700D428E6013D002DECD12AE634
:1011E00009221340012B00D009E6F8E5C98400006C
:1011F00010110000A5840000A50C00002D0B0000BC
:10120000AC010020EF1B0000BD840000371100007E
:101210002911000010B5064B98470023002801D083
:10122000180010BD034B9847034B1B68DB7BF7E7A7
:10123000590B0000290D0000AC01002010B5064B31
:1012400098470023002801D0180010BD034B984791
:10125000034B1B685B68F7E7590B0000290D000082
:10126000AC0100200020704770B582B00E00150060
:10127000164B9847041E02D0200002B070BD144BDC
:101280009847002817D0012D19D91248124B1B6816
:10129000DB7B1B0700D47602012300932B00802206
:1012A000920031000D4EB04700280AD00C4B1D8033
:1012B0000C4B1D80E0E70C4B98470534DCE70B48EE
:1012C000E4E7094B98470524D6E7C046590B0000D0
:1012D000A50C000012111000AC01002015830000C5
:1012E000B0010020B2010020290D000011110800FA
:1012F00010B50C00074B9847002804D10022064B7C
:101300001A80053010BD044A13881C1B148000206D
:10131000F8E7C04641850000B001002010B5040088
:10132000144B98470523002801D1180010BD002C4C
:1013300010D00022104B1A80104B1B88012B0FD0AD
:1013400000210F480F4B984700280DD00E4B9847AF
:101350000023EAE7084B1A880023002AECD0E4E7D0
:10136000094B98470023E0E700210548054B9847C3
:10137000ECE7C046CD850000B0010020B20100209E
:101380000C310000A5840000290D000070B582B06A
:101390000E001500114B9847041E16D1012D17D9C8
:1013A0000F48104B1B68DB7B1B0700D47602012320
:1013B00000932B008022920031000B4EB047002892
:1013C00008D00A4B1D800A4B1D80200002B070BD62
:1013D0000848E6E7084B98470524F6E7590B000054
:1013E00019911000AC01002015830000B00100200D
:1013F000B201002018910800290D000010B50C0062
:10140000074B9847002804D10022064B1A8005306C
:1014100010BD044A13881C1B14800020F8E7C04646
:10142000D1850000B001002010B504000E4B984794
:101430000523002801D1180010BD002C0AD000227D
:101440000A4B1A800A4B1B88012B09D0094B98477D
:101450000023F0E7054B1A880023002AF2D0EAE7C0
:10146000044B98470023E6E751860000B0010020B6
:10147000B2010020290D000000207047431E984152
:10148000C0B2034B18700122024B1A707047C0465D
:10149000040400207000002010B582B0084B0093B7
:1014A0001F23084A01210220074CA047002801D031
:1014B00002B010BD05490230054B9847F8E7C04619
:1014C000BD180000DC010020393C00009914000028
:1014D000E13B0000F8B50023134A1370134A137060
:1014E0000133134A1370134A1370134B98470028A3
:1014F00005D10022114B1A7000252800F8BD0138D3
:101500000E4B18700E4B9847051EF6D000240D4F59
:101510000A4E00212000B8470134E4B23378A342D8
:10152000F7D2094B9847E8E7D2010020D00100200C
:10153000700000207100002075860000000200206D
:10154000555D0000B58600009914000010B5014BF0
:10155000984710BD9914000010B582B0084B009355
:101560000D23084A00218120074CA047002801D004
:1015700002B010BD05498130054B9847F8E7C046D9
:101580004D15000074000020393C00005915000082
:10159000E13B000010B5064B1B78002B00D110BDBD
:1015A0000220044B984704490220044B9847F6E771
:1015B000D00100206D3A000095150000E13B0000CD
:1015C00010B5064B1B78002B00D110BD8120044BB9
:1015D000984704498120044B9847F6E7D001002042
:1015E0006D3A0000C1150000E13B000010B50B4B47
:1015F0009B68002B06D00A4B1B7B7F2B09D802204F
:10160000084B9847064B5A68044B5A60064B98475C
:1016100010BD8120034B9847F4E7C04674000020BA
:10162000DC0100206D3A00005915000010B5054C92
:10163000122200212000044B9847F0232370E63B40
:10164000E37110BD040200204393000070B5060052
:101650000D001400084B98470122084B1A73084BE1
:101660009E70220EDA70220C1A71220A5A719C7135
:101670002A0A1A735D7370BD2D16000074000020D5
:101680000402002010B50022902189010520014BA1
:10169000984710BD4D16000010B5094B1B7B5940F3
:1016A00049B2002904DB074B9A680123824204D225
:1016B000054B9847054B98470023180010BDC046BE
:1016C000DC0100207400002085160000ED150000EC
:1016D00010B5002200210420014B984710BDC046E0
:1016E0004D16000010B582B002000B0007490091B2
:1016F00001218120064CA047002801D002B010BD76
:10170000044B9847044B9847F8E7C0465D17000024
:10171000393C0000D1160000ED15000010B5002284
:10172000A02189010620014B984710BD4D160000ED
:1017300010B50022E82189010220014B984710BD15
:101740004D16000010B5034B98470022024B1A7348
:1017500010BDC0462D1600007400002010B50C000E
:10176000002800D010BD044B9847044B9A68141B06
:101770009C60034B9847F5E7451700007400002074
:10178000ED15000070B50500142200212348244BFC
:101790009847002D18D0234BD97D204A08320824C1
:1017A000204B587C3F2303401C2B13D03F2B11D0E0
:1017B000201C8C4200D9081CC6B2802130001A4B74
:1017C000984700280FD170BD164BD97C134A0432BC
:1017D0000424E5E71C231370123B5370053BD370C0
:1017E0000C34E4B2E4E70F4B587B104B9847431E90
:1017F0009841C001002D0CD0023CA4B2074A230A34
:1018000024021C431480D07031000448084B9847D0
:10181000D9E7024B013C1C709870F5E7B801002035
:1018200043930000DC01002099160000C5860000EB
:10183000E516000010B5041E1ED0174A174B597C40
:10184000D170997C9170D97C5170197D1170144AB6
:10185000997D5170DB7D13701088400221004B1E72
:101860009941C9010F4B9847002804D00E4B1C70BA
:1018700001220E4B1A7010BD084B587B0C4B984739
:101880000028DAD000229C2189010720094B9847C3
:10189000094B9847EFE7C046CC010020DC0100204F
:1018A000FC01002099160000D1010020D201002087
:1018B000C58600004D160000ED15000070B500282B
:1018C0000DD11F2904D1844B844A12689A4207D053
:1018D0000122834B1A70834B9847834B984770BD06
:1018E0007E4B587B0F2210405873804B1B788342ED
:1018F0000BD37A4B7E4A99689160DA7B5A2A00D9D9
:10190000D2E093007B4AD3589F467B4B98477B4B52
:101910009847E4E7714BDA7C131C122A00D9122392
:10192000DCB280212000764B98470028D7D02100D8
:101930007448754B9847D2E7684BDB7C1A1C242B04
:1019400000D92422D4B2802120006D4B9847002872
:10195000C5D0624B1B7C9B0703D1604B5D7C002D87
:1019600004D0654B9847654B9847B8E75B4B587B6D
:10197000664B98478023002800D12B00644E73707B
:10198000564B587B634B98470100300010300131B3
:101990001022614B9847337C002B00D18EE0222B24
:1019A00000D18AE05A4901234A7C002A00D185E00F
:1019B000222A00D182E00133DBB20131102BF3D1B6
:1019C00084E00020554B984789E70120534B984706
:1019D00085E7534B9847022809D0032804D00028F4
:1019E00008D0504B984707E04F4B984704E04F4BC7
:1019F000984701E04E4B9847404B98476FE780214E
:101A000008203F4B9847002800D168E7334B587BAC
:101A10004849494B984702280DD0032806D0002892
:101A20000ED0404B9847354B984758E73E4B984768
:101A3000324B984753E73D4B9847304B98474EE71A
:101A40003C4880239B02436003681BBA0360082163
:101A50002D4B984743E7214BDB7C9A0704D4344B4A
:101A60009847264B98473AE701214B4001211940FE
:101A7000324B9847F3E7194BDB7C002B04D01E4B0D
:101A800098471E4B98472AE7294B9847F9E7284B78
:101A900098471A4B984722E70120294B98471EE7A1
:101AA0000020274B98471AE7002280218901052052
:101AB000244B9847114B984711E72B0014482021DD
:101AC000C21811740133DBB2102BF9D12100104878
:101AD0000D4B984703E7C04655534243DC010020B5
:101AE000D001002095150000C11500000002002063
:101AF000740000206CA8000085160000ED150000A1
:101B00009916000004020020E5160000DD860000A2
:101B100084000020F5860000319300008517000046
:101B200079860000D11600001D1700003117000053
:101B300045170000D401002091860000B586000002
:101B4000351800004D16000010B50022044B1A7025
:101B50000123044A1370044A1370044B984710BDC4
:101B6000D20100207000002071000020655D00009F
:101B700010B5204B1A7853B2002B05DB60231340BD
:101B80000020202B18D010BD602313400020202BF4
:101B9000F9D1184B5B78FE2B27D1164BDB88012B34
:101BA000F1D1144B5B88002BEDD1124B124A9A6095
:101BB00001229A810130E6E70E4B5B78FF2B16D1AC
:101BC0000C4BDB88002BDED10A4B5B88002BDAD173
:101BD0000A4A13700A4A137002300A4CA047812047
:101BE000A047094B98470120CDE70020CBE7002014
:101BF000C9E7C0464C06002000020020D0010020AA
:101C0000D2010020AD3800009914000010B51E4B21
:101C10001C78002C30D000231B4A13701B4A137011
:101C20001B4B1B78002B15D01A4B1A881A4B1968BE
:101C30001A4B587B1A4B9847144B1B78DBB2002B7E
:101C400011D102281DD0032818D0002810D0154B20
:101C500098470FE00F4B1A880F4B19680F4B587BB2
:101C6000114B9847E8E70021084A11701C0003E077
:101C70000E4B98470E4B9847200010BD0D4B9847D0
:101C8000F8E70D4B9847F5E7D201002071000020DE
:101C9000D1010020FC010020CC010020DC0100204B
:101CA00005870000D11600003987000045170000A5
:101CB000ED1500001D1700003117000030B583B08E
:101CC000050014001D4A1078C0B2002813D000206F
:101CD00010708130002D00D17F38002B0DD0009383
:101CE00023000A000021164DA847002820D0154BDC
:101CF0009A68141B9C6003B030BD134B0093230003
:101D00000A0000210E4DA847002811D00B4A137875
:101D1000002BFCD00D4B1B780020002BEBD1094B86
:101D20009A68141B9C60094B187801235840E2E71D
:101D30000122024B1A700020DDE7C046700000202F
:101D4000393C0000740000207D14000004040020D1
:101D500010B5114B1B681A689478D3781B02234383
:101D6000D2180378C018904210D24378042B0FD0B9
:101D70008B420AD00378C018904205D24378042BD6
:101D800008D08B42F6D100E0002010BD0020FCE717
:101D90000020FAE70020F8E72402002010B5034BEA
:101DA0005B887F201840024B984710BD4C060020EE
:101DB000113E000070B5194B1B780022002B29D072
:101DC000174B1B681B681C79844223D9154A136082
:101DD0009A78DC78240214431C19A3421CD20025F3
:101DE000012607E00F4A13600FE01A789B183500B0
:101DF000A3420CD25A78042AF7D19A788242F4D1BD
:101E0000DA788A42F1D1002DECD1012202E0054AB4
:101E100013600022100070BD0022FBE720020020AA
:101E20002402002028020020F0B5C64600B50400B8
:101E30000021134B9847051E03D1280004BC90468F
:101E4000F0BD104B1B685B68A200D3589846DB6856
:101E50009847010020000A4B9847051EEDD00A4B19
:101E60001C680A4E0A4F05212000B047041E02D00C
:101E70008078B847F7E743465B689847DDE7C04698
:101E8000B51D00002402002028020020511D000082
:101E9000F9380000F8B505000F4B9847002819D015
:101EA0000E4B1C680E4E0F4F05212000B047041E3C
:101EB00009D00379427912021A43C1788078B84771
:101EC0000028F1D106E0084B1B685B68AD00EB58B9
:101ED0001B689847F8BDC046B51D000028020020C9
:101EE000511D0000513900002402002010B5014BA3
:101EF000984710BD1D3F000070B50E4B1B78002B9E
:101F000011D00D4B1B681B681B79002B0BD00024D4
:101F10000A4E094D2000B0470134E4B22B681B681B
:101F20001B79A342F6D80022024B1A700132044BEF
:101F30001A8070BD2002002024020020291E00000B
:101F40001602002070B50E4B1B78002B17D00D4BDE
:101F50001B681A681279002A11D00024094D06E086
:101F60000134E4B22B681A681279A24207D95B687F
:101F7000A200D3581B69002BF2D09847F0E770BD40
:101F80002002002024020020F8B5AC4B00229A81E8
:101F90001A615A611B785AB2002A13DB60221A4276
:101FA00000D1DAE0A54B1A781F231340012B00D192
:101FB00076E1A24B1A781F2313400020022B00D198
:101FC000CCE1F8BD9D4AD2880020002AF9D06021DA
:101FD0001942E7D11F210B4008D1984949780629B9
:101FE00023D0082900D187E0002917D0012B00D188
:101FF0008AE0022BD6D1914B5B780020002B00D0D9
:10200000A8E1022AD5D18D4B18798D4B98478D4B7D
:102010001880022118008C4B9847FFE0022AC8D193
:1020200002318A48884B9847F8E0844B5A88130A53
:10203000022B23D0D9B202290FD9032B34D00F2B76
:1020400000D084E1824B98680028B2D08378C178B0
:10205000090219437C4B984707E0012B00D076E139
:102060007B4B18680178784B9847744BDA889B89CA
:10207000934200D8D2E0714B9A81CFE0D2B2744B38
:102080001B685B7C934200D893E7714B5B68D2007E
:10209000D0588378C178090219436B4B9847674B36
:1020A0009B6802225A70E0E7FF231A40012A20D0E1
:1020B000002A19D0022A00D178E1032A00D071E762
:1020C0000C21644C644A02320023E05C108001332E
:1020D0000232D8B28142F8D8490002315E4801701C
:1020E00089B2594B9847C0E704215C48564B984742
:1020F000BBE75B4C0921E5E7012A00D059E7012144
:102100005848514B984789E04C4949780A2900D0F2
:102110006FE7012A00D0C3E0524B1B78002B00D19F
:10212000BEE0464B1C79504B1D682B681B79A342BF
:1021300000D8B5E0002120004C4B9847002800D182
:1021400030E76B68A400E358DB689847484B187089
:10215000012118003C4B984760E01F2213405FD1DB
:10216000364A5278032A00D1F3E0D1B203293BD991
:10217000052A4BD0092A53D1304BDB88002B00D0E5
:1021800017E73C4B9847002800D10BE72B4B9A7878
:102190002F4B1B685B7C9A4200DD03E7364B984768
:1021A000264B9B782F4A1370002B37D0334A944626
:1021B0006344DB00264A5268D3182B4A13601B681D
:1021C0001B79002B2AD000242D4D16000021200061
:1021D000A847002800D1E5E60134E4B233681B6863
:1021E0001B79A342F2D819E0012A19D1134BDB88DD
:1021F000002B00D0DDE6114B5B88012B00D0D8E628
:10220000124A138802218B43138007E00B4BDB88B3
:10221000002B00D0CDE61B4A084B1A610120D0E606
:10222000012B31D0022B00D0BCE6044B5B78012B94
:102230006CD0032B00D178E000208BE04C0600200E
:10224000593A000018020020313E0000160200201A
:10225000D8000020D8A90000A8000020C400002059
:10226000C80000202002002024020020B51D00002C
:102270001C020020213E0000F91E0000FFFFFF1F8E
:10228000951E00009D1D00004A4A52780B2AC9D1B4
:10229000484BDB88002B03D1474B1B78002B27D101
:1022A000454B1B780020002B00D18AE6414B1C795E
:1022B000424B1D682B681B79A34200D881E60021A0
:1022C00020003F4B9847002800D172E66B68A200BF
:1022D000D558EB68984701002000394B98470028F3
:1022E00000D166E6AB689847002800D069E660E652
:1022F000304B1D795C882800324B9847002800D16C
:1023000050E6E1B22800304B984723E0294BDB88A8
:10231000002B00D04DE6274B5B88002B00D048E611
:10232000244B1879294B984714E0224BDB88002B6B
:1023300000D03EE61F4B5B88002B00D039E61D4CD9
:102340002079234B98472079224B984702E00020C0
:1023500000E00020002800D033E623E6164B1B786F
:10236000002B00D12DE6154B1B681A681279002A44
:102370001AD00025124E114F5B68AA00D458E368AA
:10238000984701002800B047002800D119E6A3684B
:102390009847002800D014E60135EDB23B681A6872
:1023A0001279AA42E8D80CE600200AE603210A4C7A
:1023B00088E6C0464C0600202002002024020020AF
:1023C000B51D0000291E0000951E00009D3B000069
:1023D000AD3800006D3A0000D4000020044A1378A4
:1023E00002210B43137053785BB2002BFBDB704769
:1023F0000018004000B583B0124A936940210B4396
:10240000936101A900230B7005200F4B984705200D
:102410000E4B98470E4A137801210B4313705378E3
:102420005BB2002BFBDB0B4B19004031002204C3D5
:102430009942FCD11022084B1A60084B984703B010
:1024400000BDC04600040040D98A00004D8A00004B
:10245000001800400804002000E100E0DD23000037
:1024600000230360436001220272427283720233CE
:10247000C3727047F0B583B005000C0001A90023BA
:102480004B70CB7023790B70237A8B702078154BAF
:10249000984700201F2D00D8134807222A40920099
:1024A000E77AA37A002B01D008231F43EB089B0097
:1024B000C31899690F269640B14397403A000A43E2
:1024C0009A61637A002B06D143690122AA409343A3
:1024D000436103B0F0BD42690123AB401343436144
:1024E000F7E7C046D18B0000001800400268937ADD
:1024F0005BB2002BFBDB138802210B431380704778
:102500000268937A5BB2002BFBDBC12393711372D9
:10251000138802218B4313807047000070B50400BC
:102520000568064B98472268937A5BB2002BFBDB69
:102530002B88012213432B8070BDC046012500006B
:1025400010B5CB88C2889A1A92064B799B050C79F4
:10255000640423438C782403234313430279002A21
:1025600005D1CA78002A02D080225202134348784B
:1025700080010A781043184310BD10B58B0EC48833
:102580001B19D3808B011B0F53718B02DB0E137150
:102590000379002B0CD10B041B0F9370CB03DB0FC3
:1025A000D37088093F23184050701940117010BD36
:1025B000CB03DB0E9370F4E710B50468034B984728
:1025C000A37A5BB2002BFBDB206110BD412500002C
:1025D00010B50A0003684179002906D059884904DA
:1025E0000BD519690A4B984710BD0A4959800468F0
:1025F000A17A49B20029FBDBF3E75988C024240201
:10260000214359800468A17A49B20029FBDBE8E73D
:102610007B2500000080FFFF70B50D00140017231C
:10262000012A01D9180070BD0668064B9847B37A95
:102630005BB2002BFBDBE4003419A0612B7A23771B
:102640000023EFE74125000030B583B005001400FA
:1026500001601C4A936920210B43936101A9022365
:102660000B700420184B98470420184B98472800FB
:10267000174B984723792B71E3786B71E388EB80D4
:10268000144B1D602A6823882179002917D008215E
:102690000B43A178002901D080210B431380E378FC
:1026A000002B04D053888021C9010B4353802100A3
:1026B000083100222800084B984703B030BD48215C
:1026C0000B43E6E700040040D98A00004D8A000071
:1026D0001D250000480400201926000070B50C00DC
:1026E0001723012A01D9180070BDD20003689D1874
:1026F000A9692200024B98472B7F23720023F2E73F
:102700007B25000070B586B00400066804A93D4B27
:1027100098472379002B42D004AA90780B23834258
:102720009B415B42D3700C21374B9847C9B20029BB
:1027300016D004AB997001AD002229002000334B64
:102740009847A8780B2383429B415B42EB700C2196
:102750002D4B9847C9B2002906D001AB997006E00D
:102760000C2204AB9A70E6E70C2201AB9A700025AC
:102770002571002201A92000254B984725712000D2
:10278000244B984733884022534033802000224B0B
:10279000984704A92000214B984706B070BD04ABB0
:1027A000DB78002B15D004AB9A780C329A7000229B
:1027B000DA7001AD002229002000144B9847EB7815
:1027C000002B0ED101AB9B780C2B17D0012323716A
:1027D000D5E704AB9B780C2BEBD1002204AB9A70AD
:1027E000E7E701A98B780C338B700023CB700133A2
:1027F000237100222000064B9847E7E7002201AB37
:102800009A70E3E7D1250000618E0000DD2600000C
:102810001926000001250000ED240000B925000064
:1028200070470000F0B50A4B1B78002B0CD1094F04
:10283000094E0A4D0024DE515A1914600433182B36
:10284000F9D10122024B1A708000024BC150F0BD39
:102850002C02002030020020212800004C0400201F
:1028600000B583B009236A461370013353700133F6
:1028700093700133D3700133137101335371034BE0
:1028800098476B46185603B000BDC04699740000C7
:1028900010B5024B1B680020984710BD3002002085
:1028A00010B5024B5B680120984710BD3002002034
:1028B00010B5024B9B680220984710BD30020020E3
:1028C00010B5024BDB680320984710BD3002002092
:1028D00010B5024B1B690420984710BD3002002040
:1028E00010B5024B5B690520984710BD30020020EF
:1028F000F0B5DE4657464E464546E0B591B0050078
:102900000C00160029600800BC4B984702002368A1
:102910000520DB0706D511B03CBC90469946A2467F
:10292000AB46F0BD236817309B07F4D4B449086A5E
:10293000971C0123BB4003430B620FA92D27F35DB6
:102940000B701432D3B202931800AE4B9847029822
:10295000AD4B9847F05D0021AC4B9847F37A6B7113
:102960002423F35CAB712523F35CEB71F37E2B72B4
:10297000337F6B722B6898461800A04B9847143031
:1029800000220E2306A98C4663441A80328A0292E2
:102990008023DB019A4200D19EE00FD9C023DB01E6
:1029A000029A9A4200D192E080231B029A4200D000
:1029B0001FE1032306930023079308E080239B0174
:1029C0009A4200D015E1102306930F3B079333681A
:1029D0000593F368039373690493337E9B46262320
:1029E000F35C9A4673689946002B00D1A0E08023DF
:1029F0005B05994500D184E0737E002B02D0B37E45
:102A0000424693732A68029FD369002BFCD10E3390
:102A100006AA944663441B8842469381059B039A09
:102A20001343049A13434A4613431F435B461B0256
:102A30001F4353465B071F432723F35C002B01D141
:102A400004331F43737E9B02327F52021343727F13
:102A5000120213432422B25C520413432522B25CB7
:102A600012041343B17AF27A114319433389FF2BCD
:102A700000D181E080225204174319432C23F35CD8
:102A8000002B03D1624B9B789B0701D580231F430A
:102A90002A68D369002BFCD1434659602A68D36960
:102AA000002BFCD143461F600EAB80221A7000221F
:102AB0005A70DA709A70336B0A93736B0B93B36B23
:102AC0000C93F36B02930D9300270AAE63E0082387
:102AD0000693073B07937AE733680593F3680393FC
:102AE00073690493337E9B462623F35C9A4673688E
:102AF0009946002B18D080235B05994501D0002012
:102B000025E02723F35C002B00D075E7336A1F0014
:102B1000C0B2404B984701000E2206AB9C4662446F
:102B200038003D4B984712E0082306930023079393
:102B30002723F35C002B0ED0069B0093079B0E22ED
:102B400006A98C466244B16A306A344FB8470028FF
:102B500000D0E0E650E7336A1F00C0B22D4B984723
:102B60000100069B0093079B0E2206A88446624440
:102B700038002A4FB847EAE7F37E002B00D17DE703
:102B80008023DB041F4379E72000254B984707E0AB
:102B90000137042F0DD0F9B2BB0098590028F3D0AB
:102BA000431CF5D00EA90870000CC0B21D4B98470D
:102BB000EEE70023EB602B616B61AB61EB612B6295
:102BC000AB626B620022EB85AB853033EA54013394
:102BD000EA540133EA540133EA542868074B984712
:102BE00004001149114B9847A400114BE5500020F7
:102BF00091E61023069300230793E8E699740000FA
:102C000000040040D98A00004D8A0000D5720000FF
:102C100000200041F58A0000177200004172000098
:102C200021730000D18B0000D12C0000252800006A
:102C30004C040020C2791C23002A01D118007047DF
:102C4000C28D92B2173B002AF8D10368DA69002AD4
:102C5000FCD1198502211A7E0A42FCD00023EDE73F
:102C600082791C23002A01D118007047828D92B20C
:102C7000173B002AF8D10268107E4007F4D5D369CB
:102C8000002BFCD1538BDBB298061DD0980703D5DF
:102C9000022353831833E7E7580703D504235383EC
:102CA0001A33E1E7D80703D5012353831233DBE757
:102CB000D80603D5102353833233D5E79B0603D5BB
:102CC000202353832133CFE7138D0B800023CBE7E1
:102CD000F8B58000624BC5582C68E369002BFCD125
:102CE000237EA67D1E403023EB5C3122AF5C1F406B
:102CF000F30722D5EB8D9BB2002B1CD0AA6A137868
:102D0000DBB2511CA962697901290ED09BB2DB05A7
:102D1000DB0D2385EB8D013B9BB2EB85002B0CD1AA
:102D2000013323750133A37507E0517809020B4382
:102D30000232AA62EBE701232375B30706D502230B
:102D4000237500223133EA54FB071AD4730765D583
:102D5000AB8D9BB2002B5FD0638BDBB21A0714D410
:102D60003F221340002B34D09A0711D51A22322368
:102D7000EA54303B63837B0750D528006B69984742
:102D80004CE02800EB689847E0E737221340E9E77A
:102D90005A0705D51E223223EA542E3B6383EAE705
:102DA000DA0705D513223223EA54313B6383E2E785
:102DB000DA0605D542223223EA54223B6383DAE75E
:102DC00020221A42D7D021323223EA54123B6383A5
:102DD000D1E7238DDB05DB0DDAB2696A0A706A6A16
:102DE000511C69626979012910D0AB8D013B9BB2FE
:102DF000AB85002B12D10433237500222E33EA5405
:102E0000BB070BD528002B69984707E01B0A5370B6
:102E10006B6A01336B62E8E704232375F30604D57C
:102E2000102323752376FB060ED4B30604D5202386
:102E3000237523763B070BD4330704D5082323756A
:102E40002376BB0608D4F8BD2800EB699847ECE769
:102E50002800AB699847EFE72B6A28009847F2E70C
:102E60004C04002010B5082803D880001E4B1B58C6
:102E70009F46002036E01D4B186933E01C4B1B6A4F
:102E80009B059B0F1B48D8402CE0184B586929E044
:102E9000164B1B6800209B0724D515491022CB68D0
:102EA0001A42FCD0114B1B685B0701D4124819E091
:102EB0000E4B1B689B0601D50F4813E000200F4BFB
:102EC00098470A4B9B681B041B0C58430AE050238D
:102ED000074AD35C00205B0704D5044BD86801E0A7
:102EE0008020000210BDC046E8A900004802002072
:102EF0000008004000127A00006CDC02F58A000035
:102F000070B50C490B6A047885784078012210402E
:102F100080014026B34303432A40D20180208343EB
:102F200013430322224012020348034013430B625F
:102F300070BDC04600080040FFFCFFFFF0B5CE4664
:102F4000474680B5194B99469B6941788C46057870
:102F50000679C778447980780121084080000422EE
:102F60009343034360460840C00004329343034345
:102F70003800084080014027BB430343300008402D
:102F8000C0018026B3430343072005402D020848B3
:102F900003402B4321400903064803400B434A46A4
:102FA00093610CBC90469946F0BDC04600080040B5
:102FB000FFF8FFFFFFEFFFFF10B5037A9B061B0C26
:102FC00042899205920D134318494B608379C27967
:102FD000134342888488224313434278D201134327
:102FE0000B600378042B11D0202B0ED1037B9B06A2
:102FF000028A1343C28912040D490A4013430B4A43
:10300000936011680B4B0B43136010BD037B9B0651
:10301000028A1343C289120405490A401343034A32
:103020009360136804210B431360EEE7480200200D
:103030000000FF0324040000082803D88000254B6B
:103040001B589F46172044E0234A136A02210B4372
:10305000136200203DE0204A936902210B439361F3
:10306000002036E01C4A138A02210B431382002001
:103070002FE0194A938A02210B439382002028E013
:1030800016490B68022213430B60134B9A841900F4
:103090000E32CB681A42FCD0104A91680E4BD962AE
:1030A00052689A6200229A8419001032CB681A4240
:1030B000FCD00A4B1B689BB2074A9384002008E0AF
:1030C000054944228B5C022003438B54002000E01E
:1030D000002070470CAA00000008004048020020B1
:1030E00070B58CB0C222D200424B9A60424A5368FB
:1030F0001E218B431A390B435360012201AB1A7016
:1031000000243E4DE0B201A9A8470134252CF9D195
:103110003B4C2368DB0437498A695B0E1B04394842
:10312000024013438B610AA801234370837003712B
:103130000722027000254571C370334B9847042065
:10314000324B984705AB00225D809A71DA712021DD
:1031500019705A7023689B0E3F2B49D005A8037243
:10316000072303730333C381294B4381FF3B8380D0
:10317000284B0382284B984704A80024447001255B
:1031800085700470254B98470620204EB047244B8D
:10319000984701A94D604C704C7204230B700D725E
:1031A0000720204B984707201F4B98470720B04720
:1031B00010491022CB681A42FCD00E4A938C802111
:1031C0000B439384194A0023137253729372D37280
:1031D00001A901224A604B704B7207330B700A72CF
:1031E0000020104B984700200F4B98470CB070BD43
:1031F000203BB3E70008004000400041D98A0000AE
:1032000024608000FFFF80FF3D2F00003930000068
:10321000FF01000080BBFFFFB92F0000012F00005D
:10322000A1880000C58800007D89000000040040DE
:1032300010B584B003AB00221A7003325A70013A01
:103240009A70013ADA70274B1B78834207D0002826
:1032500007D1244B1B78002B23D1224B187004B0CC
:1032600010BD03AB1B5C204AD25CFF2A00D1FEE7F5
:10327000EFF3108251424A41019272B6BFF35F8F61
:1032800000211A4A1170019C1749CA5C0132CA54C4
:10329000002CDED00122154B1A70BFF35F8F62B68F
:1032A000D7E703AAD35C104AD25C002A00D1FEE71C
:1032B000EFF3108251424A41029272B6BFF35F8F20
:1032C00000210A4A1170029C0749CA5C013ACA549B
:1032D000002CC2D00122054B1A70BFF35F8F62B67B
:1032E000BBE7C046B8020020940E00202501002054
:1032F00043060BD00F2303405B00C00918180238A7
:10330000830018188000024B181870470020FCE753
:1033100068020020F0B5D6464F464646C0B58946FD
:103320008D796BB2002B26DB28005E4B984704009A
:103330000F272F40038A98464B461B889A46837C6A
:103340005B076AD4E36853441E00E360A3689E42AF
:1033500000D874E0E360A37C01229343A374236844
:10336000002B03D0E1682A00002098471CBC90463F
:103370009946A246F0BD28004A4B984704000F2703
:103380002F40038A98464B465E88C3689C46664435
:10339000C66081688E4225D08D1BADB2424B9D42E6
:1033A00006D91D0041461800404B98476D1AADB232
:1033B000A27C0023920707D5414628003C4B984742
:1033C00089B24B424B41DBB25B00A27C02218A43B3
:1033D0001343A374626892192B0039003548364CA8
:1033E000A047C3E7837C9B070BD4837C01229343D4
:1033F00083740368002BB9D02A003100002098475D
:10340000B4E7837C022293438374426892190023B9
:1034100039002848284CA047A8E74368C26894466A
:1034200063441E0041468068214B98470A007B1E7A
:103430009B01224959183000214B984782E74A46A0
:103440009288524500D086E79E4200D183E79B1BBD
:103450009DB2154B9D4216D91D0041461800134BD5
:1034600098476B1A9BB2984514D9A37C0422134346
:10347000A3747A1E9201114BD218434639000D48AD
:10348000104CA04772E741462800094B98476B1A39
:103490009BB2E8E76268921939000648094CA047D8
:1034A00064E7C046F1320000FF1F000035900000C5
:1034B000618E0000E4040020DD6700006404002049
:1034C000319300003168000010B50522054B1A70D9
:1034D000054C80212000054B984700212000044B1B
:1034E000984710BD66020020E40400203167000008
:1034F0005767000070B5084C06212000074DA8470B
:1035000004212000A84702212000054B98470220F3
:10351000044B984770BDC046E4040020456200009B
:10352000256200003132000070B5134B9B8C9B0666
:103530001CD41149D022CB681340D02BFBD10F4CA7
:10354000022120000E4B9847042120000D4DA84772
:103550000D4A062120000D4B984706212000A84760
:1035600003200B4B98470B4B984770BD0249102224
:10357000CB681A42FCD0E2E700080040E4040020D7
:103580004562000025620000F53400000162000081
:1035900031320000255D000030B583B004001E4BC1
:1035A000984780232268937201AD28001B4B9847EF
:1035B00003236B7029002000194B984719492000FC
:1035C000194B9847194B022200212000184DA8479B
:1035D000184B002200212000A847174B0122002190
:1035E0002000A847022200212000144DA8470022F5
:1035F00000212000A847012200212000A8472168BF
:103600000B890F4A1A408023DB0013430B810022F1
:103610000C4B1A7003B030BDF91E0000516400005D
:1036200061640000640600208168000081370000AA
:10363000616200009D3A000085360000B162000022
:10364000FFF3FFFF6602002010B50322074B1A703C
:10365000074C08492000084B9847084B9A680023FC
:1036600000212000064CA04710BDC0466602002085
:10367000E404002064060020816800004C0600205D
:10368000DD67000010B589794BB2002B06DB0E4BCD
:103690001B78022B0FD0032B11D010BD0A4B1B78C7
:1036A000012B05D0042BF8D10848094B9847F4E7C3
:1036B000084B9847F1E70422034B1A70EDE70348E3
:1036C000034B9847E9E7C04666020020E404002067
:1036D000316700004936000070B5204B1B88204A36
:1036E0009489E41AA4B2002C18D11E4A11885B18E0
:1036F0009BB213801A4AD2889A4223D01A4B1B7865
:10370000002B1FD1164B5B69002B23D09847002854
:1037100020D00022114B1A80114B9C893F2C19D9C3
:103720000022114B1A7040240C4D2B880C4A9268D1
:10373000D218230000210D480D4EB0472B88E41805
:103740002C8070BD04220B4B1A700B4907480B4BA1
:103750009847F6E70122044B1A70E5E76202002061
:103760004C0600206402002060020020E4040020D7
:10377000DD6700006602002064060020816800000A
:1037800010B50C002C4B1B78002B07D02B4B1B6962
:10379000002B00D098470022274B1A702388082B53
:1037A00002D0274B984710BD244A264B1978117038
:1037B00059785170D8780002997809185180587951
:1037C0000002197909189180D97909029B795B184F
:1037D000D3801D4B9847002816D0184B1B787F2BA1
:1037E00015D8164BDB88002B22D00023174A1380F4
:1037F000174A13800122104B1A704023114A0021EE
:103800001448154CA047CEE70D4B9847CBE7002353
:103810000E4A13800E4A13800222074B1A7040236F
:10382000084A00210B480C4CA0470C4B9847BAE7BC
:103830000B4B9847B7E7C046660200204C060020B5
:10384000C934000064060020891F000064020020C3
:1038500062020020E404002031680000D936000034
:103860004936000010B5024B9847024B984710BDEF
:10387000451F0000315D000010B5074C04212000F9
:10388000064B984702212000054B98470120054B25
:103890009847054B984710BDE4040020456200009E
:1038A0002562000031320000195D000010B50400EF
:1038B00001000A480A4B984720000A4B9847837C2E
:1038C000DB070AD5837C0122934383740368002BB2
:1038D00003D0C16822000120984710BDE4040020F5
:1038E000D1660000F1320000024B1B68188A800488
:1038F000400D7047E404002070B582B0040001ADB3
:1039000028000D4B984720000C4B98472C70002343
:10391000EB700B4E290030000A4B98470F212140D5
:1039200000223000084B9847002221003000074B4E
:10393000984702B070BDC04651640000AD38000029
:10394000E4040020616400008962000081630000DB
:10395000F0B583B005000F00140001AE3000364B07
:1039600098473570082C13D8002201AB5A702800F4
:10397000324B9847048203213940012938D002296B
:1039800043D0002303293DD1042201ABDA7032E099
:10399000102C03D8012201AB5A70E8E7202C03D881
:1039A000022201AB5A70E2E7402C03D8032201AB9C
:1039B0005A70DCE7802C03D8042201AB5A70D6E79A
:1039C00080235B009C4203D8052201AB5A70CEE7EE
:1039D00080239B009C4203D8062201AB5A70C6E7A5
:1039E000174A002394420DD8072201AB5A70BEE754
:1039F000022201ABDA7001A91248134B9847002349
:103A0000002806D0180003B0F0BD032201ABDA7025
:103A1000F1E70F2129400B4C0C4B002220000C4EEB
:103A2000B0470022290020000A4EB0470122290099
:103A30002000B0470123E5E751640000F1320000A7
:103A4000FF030000E404002061640000153300005F
:103A500061620000B162000010B501000148024B34
:103A6000984710BDE40400200767000010B504006B
:103A70000F2303400020022B00D910BD2100044871
:103A8000044B98472000044B98470120F5E7C046B7
:103A9000E404002031670000AD38000070B5344BFD
:103AA0001B78012B0AD0022B5FD0324B1B69002BF5
:103AB00000D0984700222E4B1A7070BD0D882D4BF8
:103AC0009B892D4A14886219934201DA1D1BADB2FD
:103AD000284B986800192A002849294B98476419EF
:103AE000A4B2254B1C80402D0AD0224B9C815B69DF
:103AF000002B02D09847002814D0224B9847DCE7CF
:103B00001C4BDA88204B1B881B199A42EDDD194BA0
:103B10009B89A3420CD04023184A00211B481C4C0F
:103B2000A047CAE70522124B1A701A4B9847C4E700
:103B3000104B5B69002B0BD0984700280FD012491F
:103B40000D4A0B8810881B180B8000231380E2E7B6
:103B50000522074B1A7000200E4B9847ADE705224F
:103B6000034B1A700B4B9847A7E70B4B9847A4E7FA
:103B7000660200204C06002062020020640600203D
:103B8000319300004936000064020020E404002064
:103B9000316800006D3A0000D936000070B50400AD
:103BA0000F2303400020022B00D970BD2000094BD9
:103BB0009847050021000848084B9847AB7C012036
:103BC000DB07F2D5AB7C01229343AB742B6898479B
:103BD0000120EAE7F1320000E4040020576700000A
:103BE000F8B504000D000F2303400026022B05D872
:103BF0000D4B98470700837CDB0701D53000F8BDEB
:103C000021000A480A4B9847061E05D0BB7C0122BA
:103C10001343BB743D60F1E721000448054B98470E
:103C2000061EEBD0A847E9E7F1320000E4040020CB
:103C300007670000A5660000F0B587B00500039196
:103C4000029201930F2606400024022E02D9200082
:103C500007B0F0BD644B9847041E00D0BDE02800BB
:103C6000624B98470700EFF310835A425341059384
:103C700072B6BFF35F8F00225D4B1A70059A837C8A
:103C8000DB0708D5002AE2D00122594B1A70BFF396
:103C90005F8F62B6DBE7837C01210B438374002ACC
:103CA00005D00122524B1A70BFF35F8F62B6029BA0
:103CB0007B60019BBB600023FB600C9B3B6001238E
:103CC000039A13405A00BB7C02218B431343042206
:103CD0009343BB746BB2002B20DB019B002B6FD096
:103CE0009CB2444B9C425AD9398A1C001800424B62
:103CF0009847631A9AB23B8A9A4257D2BA7C0421F7
:103D00000A43BA74721E92013C49521831003C4871
:103D10003C4CA04744424441E4B298E7019B002B4D
:103D200027D09DB2334B9D4206D9398A1D00180019
:103D3000314B98476B1A9DB2BB7C9B0707D5398ADC
:103D40002800314B984789B24C424C41E4B20120E3
:103D500020404000BC7C02239C430443BC742B00E5
:103D6000029A31002648294CA04744424441E4B21B
:103D70006DE7BB7C9B0705D5BB7C02229343BB74DC
:103D80000025ECE7BB7C01229343BB740C9B002B0A
:103D900025D02A00002100209847012457E7398ABE
:103DA0002000194B9847631A9AB2A4E71300029AAD
:103DB00031001348134CA04744424441E4B246E763
:103DC000BB7C01229343BB740C9B002B09D02A00BF
:103DD000002100209847012439E7002437E7012417
:103DE00035E7012433E7C046593A0000F1320000BC
:103DF00025010020FF1F0000359000006404002012
:103E0000E404002031680000618E0000DD670000DE
:103E1000024B1B688022104398727047E404002014
:103E2000024B1B68987A4006400E7047E40400205D
:103E3000014B9860998170474C06002010B5054BE6
:103E40001A68138901210B4313810120024B984703
:103E500010BDC046E40400203132000070B50320DC
:103E6000164B9847164C2268138901218B43138106
:103E7000144A03312000144EB047144A0021200098
:103E8000B047134A01212000B047124A0221200006
:103E9000B04704212000104DA84700212000A8476A
:103EA00001212000A84702212000A8470B4A062133
:103EB0002000B04706212000A84770BD3132000025
:103EC000E404002079380000016200006538000039
:103ED000993500002935000025620000F534000006
:103EE00010B500210E20084B9847084B1B6A5B0455
:103EF00006D4074B984700210E20064B984710BD6B
:103F0000054B9847F7E7C046E970000000440041C0
:103F10003D3E0000C97000005D3E000070B586B0F7
:103F2000EFF310835A425341019372B6BFF35F8F90
:103F30000026294B1E70019D05AC2000274B984799
:103F4000A670274E220027493000274B98473000A3
:103F5000264B9847264B9B8C9B0634D42449D02271
:103F6000CB681340D02BFBD10120224B984702ACE9
:103F70002000214B98470E23029300236360237295
:103F80000333E372023BA37200210E201B4B9847C0
:103F900021000E201A4B984700220E2119481A4B77
:103FA000984700210E20194B9847194B1B6A5B0458
:103FB0000FD4002D05D00122074B1A70BFF35F8F7D
:103FC00062B606B070BD0A491022CB681A42FCD016
:103FD000CAE70C4B9847ECE7250100208D6E0000E6
:103FE000E4040020005000419D6E0000B168000014
:103FF000000800403132000061240000E970000038
:1040000075240000E13E00009D700000C9700000B2
:1040100000440041F0B5C64600B50C0090460028AB
:104020000FD1002A11DD8F18094E0A4D306821008A
:104030002B6898470134BC42F8D1404604BC9046F6
:10404000F0BD01235B429846F7E78046F5E7C0469E
:10405000AC060020A4060020F0B5C64600B50E0050
:1040600015000138022810D8002A11D000240C4B6A
:1040700098460C4F43461868315D3B6898470028C6
:1040800008DB0134A542F5D106E00124644203E0D7
:10409000140001E001246442200004BC9046F0BDFD
:1040A000AC060020A806002030B587B0040001AAA5
:1040B000A0231B01138000239370D370FA21C90041
:1040C000D180012111710420107253729372D37246
:1040D00011735173144BD38106231374134D144978
:1040E0002800144B98472800134B98470120012CB7
:1040F00001D907B030BD2000104B984703000328BA
:1041000006D120000D4B984703000120032BF0D06F
:10411000002B06D120000A4B9847431E984180008F
:10412000E7E70120E5E7C046DE070000B006002013
:104130000014004049260000ED24000079860000AC
:10414000C586000010B5054B9847031E04D0032018
:10415000022B00D0023810BD0020FCE77986000059
:10416000F0B5DE464F464646C0B584B001900D001E
:1041700014001F00184B984706000120002E05D19F
:1041800004B01CBC90469946A346F0BD03A9019813
:10419000124B9847B14632007A431219039B013300
:1041A000734304209A42EBD8002F11D07302984633
:1041B0007B1C9B4601270A4E2A0021000198B0472C
:1041C000002807D101374C4445445F45F4D1D7E777
:1041D0000020D5E70120D3E7AD86000091860000DE
:1041E0006D870000F0B5DE464F464646C0B584B048
:1041F00001900D0014001F00184B98470600012085
:10420000002E05D104B01CBC90469946A346F0BDD3
:1042100003A90198124B9847B14632007A4312190C
:10422000039B0133734304209A42EBD8002F11D033
:10423000730298467B1C9B4601270A4E2A002100E8
:104240000198B047002807D101374C4445445F45E9
:10425000F4D1D7E70020D5E70120D3E7AD860000F1
:1042600091860000A187000010B582B014000129DA
:104270000BD0002920D002290FD00420032902D11D
:1042800001231360002002B010BD01A90E4B984716
:10429000019B013323600020F5E70C4B9847431E38
:1042A000DBB2012B04D9031FFB2201201342EAD108
:1042B000002323700020E6E7054B9847002801D033
:1042C0000320E0E70020DEE791860000AD860000D5
:1042D0007986000000B583B069460F480F4B9847B8
:1042E0006B46587940051B791B0418436B469B7835
:1042F000DB0218436B465B785B0118436B461B7807
:104300005B0818436B46DB88054A944663445B06AA
:10431000184303B000BDC046B0060020D125000000
:1043200044F8FFFF10B5002A05D00023CC5CC4542C
:1043300001339342FAD110BD002A05D00300821840
:10434000197001339342FBD170470200023983692F
:10435000023B0020994203D290784143906A0818AA
:104360007047020001000B3100204308C0010343E5
:1043700010781818C0B201328A42F6D17047000096
:1043800010B5002810D002780923002A01D11800A6
:1043900010BDC2888A42FAD14078044B9847032363
:1043A000C007C0170340F2E70923F0E745410000CA
:1043B00070B504000A0001003031407801231F4D20
:1043C000A8470323002801D0180070BD1C4BE35CF4
:1043D0001B021C4AA25C1A431B4912B202238A42E6
:1043E000F2D16733E35C1B066822A25C120413431C
:1043F0006622A25C13436722A25C120213431B02D3
:104400001B0A124A934216D08523E35C1B068422C2
:10441000A25C120413438222A25C13438322A25C97
:10442000120213431B021B0A094A94466344581E96
:104430008341DBB2C8E70023C6E7C0466141000004
:104440002F0200002E02000055AAFFFF4641540033
:10445000BABEABFFF0B5D6464F464646C0B51500CE
:1044600003681C78303C092C0ED85A783A2A01D0BF
:1044700000240AE0023303600B20032C05D91CBC86
:1044800090469946A246F0BD0024A300C54A9E5816
:104490000E60002E00D1E8E03378002B0DD070784C
:1044A000C14B98470300C20707D40020002DE6D077
:1044B0005B0700D4DBE00A30E1E700233370E0B2B1
:1044C0007070BA4B984703000320DA07D7D4002D49
:1044D00002D007305B07D2D400213000B44B98479C
:1044E00003000024012800D19AE0032B00D1C0E092
:1044F0000D20002BC3D13C33F25C1202013BF35C74
:104500001343802292001BB29342B8D14723F35C3D
:104510001B02BB3AFF3AB55C1D430DD15723F55C36
:104520002D06013BF35C1B041D435423F35C1D4328
:104530005523F35C1B021D43F5614023F25CF270CE
:10454000531E0D20012B9AD83D23F15CB170002938
:1045500095D04B1E194292D14223F35C1B0234309A
:10456000305C1843804630810D2043461B0700D045
:1045700085E74423F35C1B023630305C03430DD1E6
:104580005333F35C1B065220305C0004034350207D
:10459000305C03435120305C000203433F20305C19
:1045A00000023E27F75D0743BA460D20002F00D1D9
:1045B00065E76A4391464246170957444F44BB4258
:1045C00000D25CE7D81B7B4B984703000D20002BE3
:1045D00000D154E7784A9A429241524201327749D7
:1045E0008B4248D80233B361E719B762544434624E
:1045F0000D204146002900D141E74C447462022A53
:104600002CD15B006E498C4663445B0A0D209D42B1
:1046100000D234E701235B4233610023F360B6E04C
:10462000F233FF33F35C0D20002B00D127E7FA2390
:10463000FF33F45C2406013BF35C1B041C43FB23A7
:104640005B00F35C1C43F823FF33F25C120214435B
:1046500021003000564B9847030046E70321594399
:10466000490801200340CB18CCE70C2007E70020C5
:1046700005E7012003E70233B361E719B762524649
:10468000A21832620D204246002A00D0F7E65F22CF
:10469000B25C12065E21715C09040A435C21715C04
:1046A0000A435D21715C09020A4372629B00444A1D
:1046B000944663445B0A0D209D4200D2DFE601234D
:1046C0005B4233610023F36073716133F35C1B025F
:1046D0006022B25C1A431219726131003031707875
:1046E0000123384CA0470322002850D1364BF25CFE
:1046F0001202364BF35C134335491BB203228B4243
:1047000045D13323F35C1B062F32B25C12041343F2
:104710003022B25C13433122B25C120213432D49A2
:1047200003228B4233D12C4BF35C1B062B4AB25C29
:104730001204134385229200B25C1343284AB25CF0
:1047400012021343274903228B4220D1264BF35CEC
:104750001B06264AB25C1204134387229200B25C05
:104760001343234AB25C12021343F360214BF35C00
:104770001B06214AB25C1204134386229200B25CEB
:1047800013431E4AB25C1202134333610322327098
:104790001B4A138801339BB21380F3800020F06220
:1047A00030716CE6BC02002045410000A9400000C9
:1047B000B1430000558D0000F50F0000F5FF00002B
:1047C000FF010000614100002F0200002E020000E6
:1047D00055AAFFFF52526141170200001602000065
:1047E00015020000727241611F0200001E020000EB
:1047F0001D0200001B0200001A0200001902000046
:10480000CC020020F0B5CE4600B582B004000F0007
:10481000C56A8D423FD00379002B07D10023002FBA
:104820002CD1180002B004BC9146F0BD30239C4648
:104830008444634661460193407801232A00174E61
:10484000B04701230028ECD100232371236AE269D9
:10485000944663449D42E1D2E678012EDED90F4BA7
:104860009946E3699C466544607801232A000199D2
:10487000C847013EF6B2012EF3D1CFE72100303117
:10488000607801333A00064DA84701230028C8D1BB
:10489000E7620023C5E70023C3E7C046E541000007
:1048A00061410000F8B505000C00012974D9012010
:1048B000AB69994271D22B78022B34D0032B49D0AB
:1048C000012B02D00120404267E04E087618710AA1
:1048D0002B6A9C4661442800304B9847002802D040
:1048E0000120404259E0F305DB0DEB1830331F780F
:1048F0000136710A2B6A9C4661442800274B984771
:10490000002802D00120404247E0F605F60DAD191F
:104910003035287800023843E30701D500093CE030
:104920000005000D39E0090A2B6A9C466144280005
:104930001A4B9847002802D0012040422DE0640025
:10494000FF235B001C402D1930356B781B02287843
:10495000184322E0C9092B6A9C46614428000F4B8A
:104960009847002802D00120404216E0A400FE2310
:104970005B001C4023003033EB18D87800069A788F
:10498000120410432C193034227810435B781B0238
:1049900018430001000900E00120F8BD05480000AF
:1049A000F8B504000D00E18081680220012903D0E0
:1049B00023689A69914200D3F8BD002919D11A7869
:1049C000032A13D00022E2601A890220AA42F3D9F6
:1049D0002A0992B25B6A9B182361236830330F2245
:1049E00015406D015D1965610020E5E7596A0029F0
:1049F000E8D09E783601B54213D3AD1BADB2104F4F
:104A000000E01D002068B8470100431C12D00128B7
:104A100012D923689B69984210D2AB1B9BB2B54256
:104A2000EFD2E1602068074B98472B099BB218181A
:104A30002061D2E70120BFE70220BDE70220BBE7EB
:104A4000A54800004B430000F0B5C64600B507007E
:104A50000C0016000225012902D98369994203D36B
:104A6000280004BC9046F0BD0378022B53D0032BE2
:104A700063D00225012B02D001233B71F0E74B08E4
:104A8000984688444346590A036A9C4661443B4B16
:104A90009847051EF0D14346DB05DB0DE2071FD525
:104AA000FB18303319780F220A403101FF20000132
:104AB00001400A431A704446013401233B71610AE4
:104AC0003B6A9C46614438002C4B9847002851D1E2
:104AD000E405E40D3609F6B23C1930342670CBE714
:104AE000FB1830331E704446013401233B71610AC8
:104AF0003B6A9C4661443800204B984700283BD1D4
:104B0000E405E40D3B1930331B780F22934336053F
:104B1000360F1E43E0E7090A036A9C466144174BBF
:104B20009847051EA8D16300FF2464002340FB18AA
:104B300030331E70360A5E709EE7C909036A9C46D0
:104B400061440E4B9847051E96D1A400FE235B00DE
:104B50001C4022003032BA18D3783C1930341B097B
:104B60001B071E432670330A5370330C9370360EA6
:104B7000D67081E705007FE705007DE70548000066
:104B8000F0B5C64600B505008846002907D1C668BD
:104B9000002E0DD083699E420BD3012609E0264BDF
:104BA000984701283DD9AB694646984201D23DE07D
:104BB00001263400204F0AE021002800B8470028D1
:104BC0000DD0431C32D0012830D0B4422DD0013456
:104BD000AB699C42F0D3012E25D90224ECE7174A99
:104BE00021002800164B9847002813D14346002B7C
:104BF00009D1EC602B695A1C1BD0013B2B610123AE
:104C00006B71200012E02200414628000C4B9847AF
:104C10000028EED00138424242415042012318435D
:104C200004E0012002E0002000E0002004BC9046E7
:104C3000F0BD2000FAE7C046A5480000FFFFFF0FC7
:104C4000494A0000F8B5CE46474680B504000D003D
:104C50000220012902D9A369994203D30CBC9046D2
:104C60009946F8BD134F144B98460123994603E02B
:104C70003500A369B342F1D929002000B847061EC8
:104C800011D0012811D0431C11D00022290020008E
:104C9000C0470028E2D123695A1CE9D001332361BF
:104CA0004B466371E4E70020D8E70220D6E70120F5
:104CB000D4E7C046A5480000494A0000F8B5D646EA
:104CC000474680B506000D00C4880134A4B2042014
:104CD000002C03D10CBC90469A46F8BD3369002BDA
:104CE000F8D00F2727400FD101333361F168002935
:104CF00004D133681B89A342ECD905E0306883787E
:104D0000013B22091A4207D0F480336830337F0117
:104D1000DF1977610020DDE72C4B984780460220A1
:104D20004346012BD6D901334BD033689A6990455D
:104D30003FD30230002DCDD0F1681800244B9847A6
:104D4000804607204346002BC4D00538012BC1D034
:104D500001380133BED0002130681E4B9847030054
:104D60000120002BB6D13068303080229200002123
:104D7000194B9847356841462800184B9847E86218
:104D8000002501239A4633689A78AA420ED95246E2
:104D90001A71002130680F4B9847002813D13268F0
:104DA000D36A0133D3620135EDB2ECE7DA6A521B04
:104DB000DA624346F36041463068084B98473061F9
:104DC000A2E7012086E7012084E7C046A54800004D
:104DD000814B000005480000394300004B430000B0
:104DE000F0B5DE4657464E464546E0B583B0050071
:104DF00000215A4B9847071E00D09EE0FF2399469A
:104E00009A46574B9B461BE00F2B30D05346002B46
:104E100005D12000534B9847814500D18DE00123F7
:104E20005B422B84A869C37ADB0700D47DE0FF23B3
:104E30009A46002128004C4B9847071E00D07CE082
:104E400029692868D847071E77D16C692678002E13
:104E500000D180E0E27A3F231340E52E00D177E0D5
:104E60001207D1D50F2B02D0FF239A46E1E7EF6955
:104E7000002FDED0730618D5637B994640239E43EE
:104E8000EB882B84637B0093FF2292464B45D0D165
:104E90002378BF3A9343013B5A00D21892009246BE
:104EA0009A440122002399461DE0B245EAD0FF232F
:104EB0009A46BEE72D4B984701905346FE2B1FD8CC
:104EC00001235344984653465B00D85B274B9847D1
:104ED0000200019B834213D1C24601239C46E14458
:104EE0004B460D2B11D0224B4946C95C63185B78A9
:104EF0001B02605C1843002ADCD11E4B9842ECD0A8
:104F0000009B9946FF239A4693E723785B0606D5D4
:104F1000002A04D053465B00DB5B002BF0D1013E3E
:104F2000F3B29A46009B994683E70023E15CC25C9A
:104F300091420AD101330B2BF8D1380003B03CBCAD
:104F400090469946A246AB46F0BDFF239A4670E7CD
:104F5000FF239A466DE70427EFE7C046A14900000A
:104F60000548000063430000BD4C0000715B000079
:104F700030AA0000FFFF0000F0B5DE4657464E465F
:104F80004546E0B589B004008769C3699A4605AD16
:104F90000C2239002800A74B9847EB7ADB0700D496
:104FA00070E00023FB72E3610B2205A93800A14BDE
:104FB0009847012303AD1E00A04649E00138291897
:104FC0004A701B099BB2002B07D0210019400A0030
:104FD0003032392AF2D90732F0E77E332B540028D9
:104FE0000AD03B78202B09D000230133984207D008
:104FF000FA5C202AF9D109E0030007E0002305E06C
:10500000030003E0FA540133072B05D820220728B8
:10501000F8D82A5C0130F5E74046874B98470028CE
:105020001CD10136B6B2642E15D00B2205A938006A
:10503000804B98473300052E0AD951465A08DB03A6
:1050400013430A889B189BB202310A88002AF5D1C3
:1050500007200F24B9E70723984606E04446804618
:10506000642E00D1A5E0042807D0404609B03CBC1E
:1050700090469946A246AB46F0BD05ABDB7AFB7283
:105080005346E36105ABDB7A012293469B0711D5BA
:1050900053461B88002B1BD000205246013080B2A3
:1050A00043009B5A002BF9D119300D21634B9847CF
:1050B00083B29B4600212000614B98478046002820
:1050C000D3D1824600255F4F00265F4B99460BE007
:1050D0000020E9E76B1C9BB29B456DD01D000121B0
:1050E0002000C847002812D121692068B84700284D
:1050F00000D098E063691B78E52B01D0002B04D128
:10510000002DE7D1E3889A46E4E73500E7E78046DB
:10511000ABE7514620004A4B984780460028A4D16F
:10512000A0694A4B98470190A8461FE0220067E01B
:105130005E46644646498B4203D05200935B002B87
:1051400003D140234A461A4391464B46037001233C
:1051500022681371002120003B4B9847002866D13C
:105160004546013DABB29846002B27D02169206807
:10517000344B9847002858D1E669606943466A462F
:10518000D370D3789946137943730F23C3720023E6
:1051900003738376C3764B46013B5A00D2189200C4
:1051A000D2182C490D000D350023294FB346A446D3
:1051B00029E00723984658E7012BAAD821692068DF
:1051C000204B98478046002800D04EE76569202292
:1051D00000212800204B98470B22A1692800154B7D
:1051E0009847A369DA7A182313402B7323680122A6
:1051F0001A713AE70C78FF2606550419FF266670E7
:105200000131A94294D0BB42F4D0541C52005B46F9
:10521000D35A0A78835482181E0A5670002B85D1FF
:1052200022003B00ECE780461FE780461DE78046F2
:105230001BE7C04625430000E14D0000698E0000D9
:10524000A149000005480000BD4C00006343000078
:10525000FFFF000030AA00003943000070B50400D1
:1052600000212C4B984700280AD12378032B08D023
:10527000607800220021284B9847431E9841C0B215
:1052800070BD6379002BF3D00026E662250030352F
:105290008022920000212800204B98475522204B65
:1052A000E25455321F4BE254DE3BFF3B7A3AA354A3
:1052B0000132A3540F330132A3540F32332162540D
:1052C0003F318520800021541748215417496254EA
:1052D000174AA35423690132A354190A154AA15449
:1052E000190C154AA1541B0E144AA354E368013249
:1052F000A354190A124AA154190C124AA1541B0EA4
:10530000114AA35460780123626929000F4DA84710
:105310006671ADE7054800006942000039430000AE
:105320002E0200002F0200001502000016020000ED
:1053300017020000190200001A0200001B02000000
:105340001D0200001E0200001F020000E5410000D7
:10535000F0B5DE4657464E464546E0B583B0824638
:105360000D000B782F2B0FD05C2B0DD00023524655
:1053700093602B7857461F2B09D800215046B24B1B
:10538000984700237B613AE10135EFE70135287842
:105390002F28FBD05C28F9D0FB699A4680B21F28E1
:1053A00000D83BE12F2800D13BE15C2800D13BE154
:1053B0006E1C012480235B009846BB462B00250011
:1053C00034005646994611E0002B35D130806B1CD5
:1053D00020781F281ED92F2800D128E15C2800D171
:1053E00042E102360134434526D01D000121974B8E
:1053F0009847011E20D07F28E8D8222800D1FDE060
:105400002A23934A9FB28F42DED001321378002BB9
:10541000F8D1DBE72C005F464D46ED1804260BE182
:10542000013C023B002C00D1E8E01A88202AF7D08A
:105430002E2AF5D0002C01D10620E0E0630098462A
:1054400000235246414653520B222021B869814B1A
:1054500098475246002301E0013302321188202987
:10546000FAD02E29F8D0002B01D003221643524641
:105470004244023A12882E2A09D04246043A524443
:10548000013C002C03D0023A51882E29F8D1082281
:105490000192002293469146A04606E0444500D181
:1054A000E6E003231E43F6B223005C1C5B00524679
:1054B000985A00282CD02028F3D02E28EED0019B1B
:1054C0009B4519D2444500D1D2E07F285ED82B28D5
:1054D0006ED02C23604A99B2814267D00132137892
:1054E000002BF8D10300413B9BB2192B6CD802234F
:1054F0004A461A4391465FE0019B0B2B3BD0444543
:1055000000D1B9E003231E43F6B2444500D8B3E00E
:10551000BB691A78E52A36D0019B082B60D00C2392
:105520004A4613400C2B60D0D24392075DD0B2079D
:1055300006D4032249460A40012A59D0042B5AD0E6
:10554000BB69DE723800454B9847BB69DB7A00289F
:105550005CD15B0753D47A69D37ADB065CD5517D85
:105560000902137D0B431B04D17E0902927E0A437C
:105570001343BB600BE703231E43BB691A78E52A7C
:10558000CDD10B22019205221A70C5E700212F4BC5
:105590009847002800D179E0314B9C466044803820
:1055A000007802231E43002802D090E7002B99D0F8
:1055B00003231E43F6B25F20BB695A46985423006A
:1055C00001229446E34470E70300613B9BB2192B30
:1055D000F2D801234A461A439146203880B2EBE7BD
:1055E0004B469B00DBB2994699E7022216439EE7A1
:1055F0000F321643A2E704331E43A1E7062003B08F
:105600003CBC90469946A246AB46F0BD0428F6D174
:105610005B07F4D40130F2E70520F0E70123002412
:10562000FBE60123002405E00123002402E02C0016
:105630005F464D46ED180026002CDFD0094BE318DD
:105640005B005344F1E6C046A1490000295B00001D
:10565000C1AA000039430000CDAA0000E14D0000BE
:1056600040AA0000FFFFFF7F2C005F464D46E1E7A8
:10567000019B0B2B00D17EE74B469B00DBB299468A
:1056800043460B220192033A93460EE702231E4340
:105690008EE7C0460B23032801D91800704783000A
:1056A000074A9B58002B01D000221A70002901D014
:1056B00000230B708000024BC1500023EDE7C04671
:1056C000BC020020F0B5C64600B5594CA544050003
:1056D00001911700002303601F2616401E223A4046
:1056E00085A901A8534B984782AB8B9302AB8C934F
:1056F000002806D08A9C1C233B4245D100283DD17E
:105700000CE0019985A84C4B98478A9C0028F2D15F
:10571000002C00D186E01C233B4246D1E37A0420D2
:10572000DA062BD4BA0702D50330DB0726D43B07B1
:1057300001D520231E43859BDB6AEB612C62AE7191
:10574000627D1202237D13431B04E17E0902A27EC7
:105750000A4313432B61E37F1B06A27F120413430A
:10576000227F1343627F12021343EB600023AB607E
:10577000AB61859B2B60DB88AB8000208E239B0078
:105780009D4404BC9046F0BD042805D008231E4368
:105790008A9C0028D3D0F1E785A8284B9847082396
:1057A0001E438A9C002808D0E8E7E37A11220720EC
:1057B0001A42E3D101307B07E0D43307BBD5204B3D
:1057C0009847A073030AE373030C2374000E6074FC
:1057D0000023E37223776377A377E377627D120276
:1057E000277D17433F04E17E0902A27E0A43174347
:1057F000A376E37623756375859801330371002FD3
:1058000097D0C36A984639000E4B98470028B5D107
:105810008598013FC76041460B4B9847002800D14F
:1058200087E7ABE71C2306203B42B2D00620ADE75A
:10583000C8FDFFFF5544000051530000794F0000A0
:10584000D5420000454C000005480000F0B5DE469A
:1058500057464E464546E0B583B004000D0016009D
:10586000994600234A461360818800687F4B984719
:105870000090002800D0F1E0A3795AB2002A00DAA3
:10588000EAE09B0702D407230093E7E0E3689A1954
:10589000934210D8002E0ED02F007BE00021744BD5
:1058A00098470300206103E06169714B984703004A
:1058B000002B00D080E0A368E268934200D9E36047
:1058C000A37920221343A371C8E0A279813B13433B
:1058D000A37102230093C1E0A2797F3B1343A3711C
:1058E00001230093BAE00021624B984700286DD055
:1058F000A27980235B421343A37101230093ADE09F
:10590000A27980235B421343A37102230093A5E095
:10591000A27980235B421343A371012300939DE08E
:10592000400239183033180080229200524B9847B9
:1059300000232268137172E0A368E268934271D277
:105940004346A361A368DD05ED0D80239B005D1B2D
:10595000B54200D93500A1692068464B9847002818
:1059600072D1A368D805C00D303023689C466044CE
:105970002A003900404B98470123226813717F1990
:10598000A3685B19A3604B461B685B194A4613600A
:10599000761B90D0A368DA05D4D120688278013ACA
:1059A0005D0A1540EDB2002D0BD1002B00D07BE736
:1059B0002369002B00D171E7012B86D05A1C8BD0B4
:1059C00063612068C36AA26993428CD023689A46B7
:1059D00061691800294B9847002891D08046A84457
:1059E000730A9B46A8D053469B785A46AA189A42F7
:1059F00001D95B1B9B465B466A46D371D3795246FD
:105A00005078424639001E4DA847002800D07FE755
:105A10002368DA6A4146501A834500D980E75B461D
:105A20005D02ACE700215046124B9847002803D195
:105A300023684246DA6283E7A27980235B421343FC
:105A4000A3710123009309E0A27980235B421343F1
:105A5000A3710123009301E002230093009803B097
:105A60003CBC90469946A246AB46F0BD814300003F
:105A7000814B000005480000254300004B43000017
:105A8000E541000070B50400818800681C4B984710
:105A9000002802D1A3799B0600D470BDE16920687B
:105AA000184B98470028F8D1256AEB7A2022134337
:105AB000EB72237B2B77A3891B0A6B77E389AB7788
:105AC000E37BEB77237CAB76238A1B0AEB76638A36
:105AD0002B75638A1B0A6B750B4B9847A875030AD5
